:100000000C944C0A0C947D0A0C947D0A0C947D0A85
:100010000C947D0A0C947D0A0C947D0A0C947D0A44
:100020000C947D0A0C947D0A0C947D0A0C947D0A34
:100030000C947D0A0C947D0A0C947D0A0C947D0A24
:100040000C947D0A0C94B6440C947D0A0C947D0AA1
:100050000C947D0A0C947D0A0C94E6550C94D456AD
:100060000C947D0A0C947F0A0C947D0A0C947D0AF2
:100070000C947D0A0C947D0A0C947D0A0C947D0AE4
:100080000C9421410C947D0A0C947D0A0C947D0AF9
:100090000C947D0A0C947D0A0C947D0A0C947D0AC4
:1000A0000C947D0A0C947D0A0C944E410C947D0AAC
:1000B0000C947D0A0C947D0A0C947D0A0C947B416F
:1000C0000C947D0A0C947D0A0C947D0A0C94F05AD1
:1000D0000C94265B0C947D0A0C949B5B0C94D15B76
:1000E0000C947D0A37563A564156445647564A565E
:1000F0004D5650565356565659565C566656F857F6
:10010000FD5702580C5816588F5820582858305808
:100110003A5844584E585D5867588F5871587B5814
:100120008558B158B458A358A758AD58EB58B8588B
:10013000BC58C258C658CA58D058D458D858EB588A
:10014000DE58E258E658084AD73B3BCE016E84BCE5
:10015000BFFDC12F3D6C74319ABD56833DDA3D0021
:10016000C77F11BED9E4BB4C3E916BAAAABE00006A
:1001700000803F05A84CCDB2D44EB93836A9020C48
:1001800050B9918688083CA6AAAA2ABE0000008021
:100190003F005072696E7465722068616C746564AA
:1001A0002E206B696C6C28292063616C6C6564215E
:1001B000004B494C4C45442E200020746F6F206C3E
:1001C0006F6E6720657874727573696F6E207072D8
:1001D0006576656E7465640020636F6C6420657875
:1001E00074727573696F6E2070726576656E746572
:1001F00064006F6B00526573656E643A2000546F43
:100200006F206661722066726F6D2072656665721E
:10021000656E636520706F696E74005365747469F0
:100220006E672054726176656C20416363656C650E
:10023000726174696F6E3A200053657474696E67F9
:10024000205265747261637420416363656C6572EA
:100250006174696F6E3A200053657474696E67202B
:100260005072696E7420416363656C657261746974
:100270006F6E3A200053657474696E67205072691E
:100280006E7420616E642054726176656C204163E7
:1002900063656C65726174696F6E3A20007A5F6D98
:1002A000696E3A2000795F6D696E3A2000785F6D63
:1002B000696E3A2000205A3A0020593A0020436FD4
:1002C000756E7420583A200020453A00205A3A00B2
:1002D00020593A00583A004649524D574152455F1D
:1002E0004E414D453A4D61726C696E20312E312E72
:1002F000302D52433620284769746875622920538F
:100300004F555243455F434F44455F55524C3A6801
:10031000747470733A2F2F6769746875622E636FF7
:100320006D2F4D61726C696E4669726D7761726591
:100330002F4D61726C696E2050524F544F434F4C99
:100340005F56455253494F4E3A312E30204D41436E
:1003500048494E455F545950453A334420507269DC
:100360006E7465722045585452554445525F434F50
:10037000554E543A3120555549443A6365646532C7
:100380006132662D343161322D343734382D396283
:1003900031322D6335356336326633363766660A59
:1003A000003F0020573A004E6F20746865726D69F7
:1003B00073746F7273202D206E6F2074656D70657D
:1003C000726174757265004D3131332053004B49B1
:1003D0004C4C45442E20004543484F00494E464F63
:1003E000004552524F52530044525952554E004309
:1003F0004F4D4D554E49434154494F4E006F66662F
:1004000000D703DC03E103E803EF0344454255470B
:100410003A002569206D696E2C202569207365637B
:10042000006F4D47005761726E696E673A20486FE2
:100430006D696E672042756D702044697669736FCF
:1004400072203C2031006F4D47006F4D47006F4DCB
:1004500047006F4D47006F4D47006F4D47006F4D90
:1004600047006F4D47006F4D47006F4D4700627565
:1004700073793A2070617573656420666F722069C4
:100480006E70757400627573793A2070617573656A
:100490006420666F72207573657200627573793AB5
:1004A0002070726F63657373696E6700220A00556E
:1004B0006E6B6E6F776E20636F6D6D616E643A2048
:1004C000220020496E76616C6964206578747275CB
:1004D00064657220004B494C4C45442E20005072FC
:1004E000696E7465722073746F70706564206475D2
:1004F0006520746F206572726F72732E2046697862
:1005000020746865206572726F7220616E64207558
:100510007365204D39393920746F207265737461A9
:1005200072742E202854656D7065726174757265E1
:100530002069732072657365742E20536574206979
:100540007420616674657220726573746172746977
:100550006E6729004E6F204C696E65204E756D6286
:100560006572207769746820636865636B73756D65
:100570002C204C617374204C696E653A20004E6FDC
:1005800020436865636B73756D2077697468206CB0
:10059000696E65206E756D6265722C204C61737496
:1005A000204C696E653A2000636865636B73756DF6
:1005B000206D69736D617463682C204C61737420C5
:1005C0004C696E653A20004C696E65204E756D620F
:1005D0006572206973206E6F74204C617374204CB7
:1005E000696E65204E756D6265722B312C204C61F1
:1005F0007374204C696E653A20004D313130002013
:1006000020506C616E6E65724275666665724279E5
:100610007465733A20002046726565204D656D6FE4
:1006200072793A200046656220323220323031370A
:1006300000436F6D70696C65643A2000286E6F6EC0
:10064000652C2064656661756C7420636F6E6669E5
:10065000672900207C20417574686F723A2000324F
:100660003031362D30342D32342031323A303000B2
:10067000204C61737420557064617465643A200085
:1006800020312E312E302D524336004D61726C696F
:100690006E0020536F6674776172652052657365D2
:1006A0007400205761746368646F672052657365D6
:1006B00074002042726F776E206F757420526573DC
:1006C0006574002045787465726E616C20526573A4
:1006D000657400506F776572557000737461727441
:1006E000002200656E7175657565696E6720220070
:1006F000FFFFFF0000A0400000A0400000004000FD
:100700000048430000484300004843000000000048
:1007100000000000000000000048430000484300C3
:1007200000484300000000000000000000000065D9
:1007300063686F3A004572726F723A0020204D3242
:1007400030302044300020204D3230302044002012
:1007500044697361626C65640046696C616D656EC5
:10076000742073657474696E67733A00204C0020BE
:10077000430020440020490020204D3330312050D8
:10078000005049442073657474696E67733A0020A1
:100790005A0020590020204D323036205800486F32
:1007A0006D65206F666673657420286D6D293A004B
:1007B000204500205A0020580020420020540020EC
:1007C000204D323035205300416476616E6365649C
:1007D000207661726961626C65733A20533D4D69A0
:1007E0006E20666565647261746520286D6D2F7377
:1007F000292C20543D4D696E2074726176656C2001
:10080000666565647261746520286D6D2F73292C8F
:1008100020423D6D696E696D756D207365676D650C
:100820006E742074696D6520286D73292C20583DE5
:100830006D6178696D756D205859206A65726B20FD
:10084000286D6D2F73292C20205A3D6D6178696DBC
:10085000756D205A206A65726B20286D6D2F732983
:100860002C2020453D6D6178696D756D2045206AAD
:1008700065726B20286D6D2F732900205400205263
:100880000020204D323034205000416363656C6598
:10089000726174696F6E733A20503D7072696E7444
:1008A000696E672C20523D726574726163742061B9
:1008B0006E6420543D74726176656C0020450020A2
:1008C0005A0020590020204D3230312058004D610F
:1008D00078696D756D20416363656C6572617469DB
:1008E0006F6E20286D6D2F7332293A00204500204D
:1008F0005A0020590020204D3230332058004D61DD
:1009000078696D756D2066656564726174657320C4
:10091000286D6D2F73293A00204500205A00205978
:100920000020204D393220580053746570732070B8
:10093000657220756E69743A0048617264636F6411
:1009400065642044656661756C74205365747469D0
:100950006E6773204C6F616465640020746F6F2054
:100960006C6F6E6720657874727573696F6E207036
:10097000726576656E7465640020636F6C642065D3
:100980007874727573696F6E2070726576656E74B7
:10099000656400205A3A0020593A0020583A006510
:1009A0006E6473746F7073206869743A200024F465
:1009B000D43050C38E20C2A24017828B7011127A9D
:1009C000910D816CD90AA861E108C7586607615189
:1009D00043061E4B5D05C145A7041A411104093D9C
:1009E0009803713931034036DB0265339102D4300C
:1009F0005402802E1D02632CEE01752AC501B02819
:100A0000A001102781018F2564012B244B01E022D6
:100A10003401AC211F018D200D01801FFC00841EBC
:100A2000ED00971DDF00B81CD200E61BC600201B9E
:100A3000BC00641AB200B219A8000A19A0006A1812
:100A40009900D117910040178B00B516840031161C
:100A50007E00B31579003A157300C7146F0058145F
:100A60006A00EE1366008813630025135E00C71248
:100A70005B006C12570015125400C1115100701127
:100A80004F0021114B00D61049008D104700461031
:100A9000440002104200C00F4000800F3E00420F91
:100AA0003C00060F3B00CB0E3800930E37005C0E67
:100AB0003500270E3400F30D3200C10D3100900DCA
:100AC0003000600D2E00320D2D00050D2C00D90CCC
:100AD0002B00AE0C2900850C29005C0C2700350C7E
:100AE00027000E0C2600E80B2400C40B2400A00BEA
:100AF00023007D0B23005A0B2100390B2100180B1A
:100B00002000F80A1F00D90A1E00BB0A1E009D0A19
:100B10001D00800A1D00630A1C00470A1B002C0AE6
:100B20001B00110A1A00F7091A00DD091900C4098F
:100B30001900AB091900920917007B091800630915
:100B400017004C09160036091600200916000A097C
:100B50001500F5081500E0081400CC081400B808CA
:100B60001400A4081400900813007D0812006B08FC
:100B70001300580812004608120034081100230818
:100B800011001208110001081100F0071000E00721
:100B90001000D0071000C0071000B0070F00A10719
:100BA000100091070E0083070F0074070F00650700
:100BB0000E0057070E0049070E003B070D002E07D9
:100BC0000E0020070D0013070D0006070D00F906A3
:100BD0000C00ED060D00E0060C00D4060C00C80663
:100BE0000C00BC060C00B0060C00A4060B00990615
:100BF0000C008D060B0082060B0077060B006C06BE
:100C00000B0061060A0057060B004C060A0042065C
:100C10000A0038060A002E060A0024060A001A06F0
:100C20000A001006090007060A00FD050900F40580
:100C30000900EB050900E2050900D9050900D00506
:100C40000900C7050900BE050900B5050800AD0586
:100C50000800A50509009C050800940508008C05FE
:100C60000800840508007C050800740508006C0570
:100C70000700650508005D050700560508004E05DC
:100C80000700470507004005080038050700310543
:100C900007002A050700230507001C0506001605A6
:100CA00007000F0507000805060002050700FB0402
:100CB0000600F5040700EE040600E8040600E2045E
:100CC0000700DB040600D5040600CF040600C904B3
:100CD0000600C3040600BD040600B7040600B10404
:100CE0000500AC040600A6040600A00405009B0451
:100CF000060095040500900406008A04050085049A
:100D00000500800406007A040500750405007004DF
:100D100005006B04050066040500610405005C0421
:100D2000050057040500520405004D040500480461
:100D30000500430405003E0404003A0405003504A0
:100D40000500300404002C040500270404002304DB
:100D500005001E0404001A04040016040500110412
:100D600004000D0404000904050004040400000448
:100D70000400FC030400F8030400F4030400F0037F
:100D80000400EC030400E8030400E4030400E003AF
:100D90000400DC030400D8030400D4030400D003DF
:100DA0000400CC030400C8030300C503030024F4BB
:100DB00004D9201BC40C5C0E9804C4095F026507AB
:100DC0007101F405F900FB04B30048048700C10376
:100DD00069005803550003034500BE023A0084022F
:100DE000310053022A002902250004022000E401F8
:100DF0001C00C8011900AF011700980114008401FC
:100E00001300710110006101100051010E00430137
:100E10000D0036010B002B010B0020010B0015010A
:100E200009000C01090003010800FB000800F300A1
:100E30000800EB000700E4000600DE000600D80012
:100E40000600D2000600CC000500C7000500C20065
:100E50000500BD000400B9000400B5000400B100A5
:100E60000400AD000400A9000400A5000300A200D6
:100E700003009F0004009B000300980003009500FE
:100E8000020093000300900003008D0002008B001D
:100E90000300880002008600020084000300810035
:100EA00002007F0002007D0002007B00020079004A
:100EB0000200770001007600020074000200720058
:100EC0000100710002006F0002006D0001006C0063
:100ED00002006A000100690002006700010066006C
:100EE0000100650001006400020062000100610071
:100EF0000100600001005F0002005D0001005C0075
:100F000001005B0001005A00010059000100580077
:100F10000100570001005600010055000100540077
:100F20000100530000005300010052000100510075
:100F30000100500001004F0001004E0000004E0073
:100F400001004D0001004C0001004B0000004B006F
:100F500001004A000100490001004800000048006B
:100F60000100470001004600000046000100450066
:100F70000000450001004400010043000000430060
:100F80000100420000004200010041000000410059
:100F90000100400001003F0000003F0001003E0052
:100FA00000003E0001003D0000003D0001003C004B
:100FB00000003C0000003C0001003B0000003B0042
:100FC00001003A0000003A00010039000000390039
:100FD0000100380000003800000038000100370030
:100FE0000000370001003600000036000000360027
:100FF000010035000000350000003500010034001C
:101000000000340000003400010033000000330011
:101010000000330001003200000032000000320006
:1010200001003100000031000000310001003000FB
:10103000000030000000300001002F0000002F00F1
:1010400000002F0000002F0001002E0000002E00E5
:1010500000002E0001002D0000002D0000002D00DA
:1010600000002D0001002C0000002C0000002C00CE
:1010700000002C0001002B0000002B0000002B00C2
:1010800000002B0001002A0000002A0000002A00B6
:1010900000002A00010029000000290000002900AA
:1010A000000029000000290001002800000028009D
:1010B0000000280000002800000028000100270090
:1010C0000000270000002700000027000000270084
:1010D0000100260000002600000026000000260077
:1010E000000026000100250000002500000025006A
:1010F000000025000000250000002500010024005C
:10110000000024000000240000002400000024004F
:101110000100230000002300000023000000230042
:101120000000230000002300000023000100220033
:101130000000220000002200000022000000220027
:101140000000220001002100000021000000210019
:10115000000021000000210000002100000021000B
:1011600001002000000020000000200000002000FE
:1011700000002000000020000000200000002000EF
:1011800001001F0000001F0000001F0000001F00E2
:1011900000001F0000001F0000001F0001001E00D3
:1011A00000001E0000001E0000001E000000546829
:1011B00065726D616C2052756E617761790054487B
:1011C00045524D414C2052554E41574159004865BA
:1011D0006174696E67206661696C65640048656169
:1011E00074696E67206661696C656400626564009D
:1011F0002C2073797374656D2073746F70706564DF
:1012000021204865617465725F49443A2000236477
:101210006566696E65202044454641554C545F4BD8
:1012200064200023646566696E652020444546415C
:10123000554C545F4B69200023646566696E6520D8
:101240002044454641554C545F4B70200050494462
:10125000204175746F74756E652066696E69736878
:101260006564212050757420746865206C61737406
:10127000204B702C204B6920616E64204B642063EE
:101280006F6E7374616E74732066726F6D20626529
:101290006C6F7720696E746F20436F6E6669677537
:1012A000726174696F6E2E680050494420417574F4
:1012B0006F74756E65206661696C65642120746960
:1012C0006D656F757400504944204175746F747575
:1012D0006E65206661696C6564212054656D70657A
:1012E00072617475726520746F6F20686967680039
:1012F000204B643A2000204B693A2000204B703A82
:10130000200020436C6173736963205049442000BE
:101310002054753A2000204B753A2000206D6178EA
:101320003A2000206D696E3A200020643A200020A7
:10133000626961733A200000000A0B02090C0D0E6D
:101340000807030401000000000000000000000086
:10135000000000000000000000000000000000008D
:10136000000000121110000000000000000000004A
:10137000000000000000000000000000000102105A
:10138000202008081020401020408002010201089F
:10139000040201010204081020408080402010084F
:1013A00004020180040201804020100804020108A8
:1013B0000402010102040810204080010204081008
:1013C00020408005050505070508080808020202F7
:1013D000020A0A08080404040401010101010101D0
:1013E000010303030303030303040707070C0C0CA7
:1013F0000C0C0C0C0C02020202060606060606067F
:10140000060B0B0B0B0B0B0B0B0000200023002615
:101410000029002C002F003200000100000301060B
:1014200001090100002200250028002B002E0031B8
:1014300000340002010000050108010B0100002139
:1014400000240027002A002D003000330001010095
:1014500000040107010A014E414E494E49545949C1
:101460004E46CDCCCC3D0AD7233C17B7D13877CCEC
:101470002B329595E6241FB14F0A00002041000051
:10148000C84200401C4620BCBE4CCA1B0E5AAEC50A
:101490009D741A2B585B035C11241FBECFEFD1E261
:1014A000DEBFCDBF00E00CBF13E0A0E0B2E0E2E59C
:1014B000FFEC00E00BBF02C007900D92AE39B10700
:1014C000D9F72FE0AEE9B3E001C01D92A835B2070D
:1014D000E1F714E1C8E9D4E100E006C02297010970
:1014E000FE010BBF0E94CD61C239D10780E0080721
:1014F000A9F70E94B45C0C94A7670C9400001F929B
:101500000F920FB60F9211240BB60F922F933F93A9
:101510008F939F93EF93FF932091C6009FB7F8940A
:10152000E0911F0481E08E0F8F77309120048317A4
:1015300031F0F0E0E156FC4F208380931F049FBF01
:10154000FF91EF919F918F913F912F910F900BBE43
:101550000F900FBE0F901F9018959A01AB012115A7
:1015600081EE38074105510549F182E08093C000C2
:1015700060E079E08DE390E00E94866121503109BE
:1015800041095109CA01B90122E030E040E050E0D0
:101590000E9486613093C5002093C4008091C100F1
:1015A00080618093C1008091C10088608093C100F8
:1015B0008091C10080688093C10008951092C0009E
:1015C00020E130E0E7CF3FB7F894209120048091EC
:1015D0001F04821759F0E22FF0E0E156FC4F8081A2
:1015E00090E02F5F2F772093200402C08FEF9FEFB2
:1015F0003FBF08958FB7F8949091200490931F04F3
:101600008FBF08954F925F926F927F928F929F92B9
:10161000AF92BF92CF92DF92EF92FF920F931F9300
:10162000CF93DF93CDB7DEB7A0970FB6F894DEBFA8
:101630000FBECDBF5C014115510561057105E9F48F
:1016400020E030E040E350E060E070E0A0960FB6AC
:10165000F894DEBF0FBECDBFDF91CF911F910F91E8
:10166000FF90EF90DF90CF90BF90AF909F908F90C2
:101670007F906F905F904F905BC08E010F5F1F4F08
:10168000C12CD12C76014801422E512C612C712C99
:101690008FEFC81AD80AE80AF80ACB01BA01A301E9
:1016A00092010E946461CA01F80161938F01A9014E
:1016B000BC01411551056105710551F7F1E0CF1AE3
:1016C000D108E108F108F401EC0DFD1D80818A309C
:1016D00010F440E301C047E3480F552747FD5095FC
:1016E000652F752F20E030E0C50122D081E0C81AB7
:1016F000D108E108F108EFEFCE16DE06EE06FE0691
:1017000011F7A0960FB6F894DEBF0FBECDBFDF91E4
:10171000CF911F910F91FF90EF90DF90CF90BF90EE
:10172000AF909F908F907F906F905F904F900895B3
:101730002115310539F48091C00085FFFCCF40931D
:10174000C60008952A30310509F41CC05BCFCF9341
:10175000DF93EC0120E030E04DE050E060E070E02D
:10176000E7DF20E030E04AE050E060E070E0CE01EA
:10177000DF91CF91DDCF9A01AB01662757FD6095D0
:10178000762FD6CFCF92DF92EF92FF92CF93DF9357
:10179000EC016A017B0177FF0FC020E030E04DE2F1
:1017A00050E060E070E0C4DFF094E094D094C09426
:1017B000C11CD11CE11CF11C2AE0B701A601CE011D
:1017C000DF91CF91FF90EF90DF90CF901BCF21154D
:1017D000310539F48091C00085FFFCCF4093C600ED
:1017E000089510CF9A01462F50E060E070E0EFCFEF
:1017F000CF93DF93EC019A01AB0160E070E0E7DF8B
:10180000CE01DF91CF91A3CF8F929F92AF92BF92E3
:10181000CF92DF92EF92FF921F93CF93DF93EC0171
:101820006A017B01122F20E030E0A901C701B60157
:101830000E949B5D87FF0CC020E030E04DE250E04D
:1018400060E070E0CE0174DFF7FAF094F7F8F094FE
:10185000B12C60E070E080E09FE3B11641F020E041
:1018600030E040E251E40E94A25DB394F6CF9B01C8
:10187000AC01C701B6010E94C25C6B017C010E94F1
:101880000F5E4B015C010E943B5E9B01AC01C701F6
:10189000B6010E94C15C6B017C012AE0B501A40184
:1018A000CE01B0DE112341F020E030E04EE250E006
:1018B00060E070E0CE013CDF112319F120E030E060
:1018C00040E251E4C701B6010E9470606B017C01E7
:1018D0000E940A5E4B01AA2497FCA094BA2CB50181
:1018E000A401CE014FDFC501B4010E943D5E9B0102
:1018F000AC01C701B6010E94C15C6B017C011150B3
:10190000DBCFDF91CF911F91FF90EF90DF90CF90D1
:10191000BF90AF909F908F90089576CFFC01659116
:101920007591859194910895CF92DF92EF92FF92F5
:101930000F931F93CF93DF93EC01CC0FDD1FCC0FE0
:10194000DD1FFE01E354FB4FDE01A753BB4F2D917A
:101950003D914D915C9160817181828193810E9462
:10196000C25C6B017C01CE018D5D984FD7DF8E018B
:101970000F541B4FA70196010E94C25CF8016083BF
:10198000718382839383CE01895E984FC7DFC65EE1
:10199000DD4FA70196010E94C25C688379838A8328
:1019A0009B83DF91CF911F910F91FF90EF90DF907C
:1019B000CF9008950E941E576093A2047093A304D1
:1019C0008093A4049093A5040895FC0124912223FC
:1019D00041F03091C00035FFFCCF2093C600019646
:1019E000F4CF4AE050E08EE993E0C5CEFC012491AB
:1019F000222341F03091C00035FFFCCF2093C60078
:101A00000196F4CF22E030E08EE993E086CFFC012E
:101A10002491222341F03091C00035FFFCCF209368
:101A2000C6000196F4CF2AE030E08EE993E0CFCEF5
:101A3000CF93DF931F921F92CDB7DEB78091520FE5
:101A40009091530F9E012F5F3F4F009719F4285537
:101A50003F4002C0281B390B3A83298389819A8130
:101A60000F900F90DF91CF910895FF920F931F93E6
:101A7000CF93DF93F62EFC0120812B3369F1009187
:101A80005C0610915D060430110534F5C0915E06C8
:101A9000D0915F0640E64C9F90014D9F300D112480
:101AA000BC01C90184529B4F0E94DB64FE01E857D0
:101AB000FB4FF082CE01019664E070E00E9451611C
:101AC00090935F0680935E060F5F1F4F10935D0635
:101AD00000935C0681E001C080E0DF91CF911F910F
:101AE0000F91FF900895CF93DF93D82FC92FBDDFBB
:101AF000882309F43CC0EFE2F7E08491882341F0A9
:101B00009091C00095FFFCCF8093C6003196F5CF31
:101B1000E3EEF6E08491882341F09091C00095FFB8
:101B2000FCCF8093C6003196F5CFED2FFC2F81912D
:101B3000882339F09091C00095FFFCCF8093C600B8
:101B4000F6CFE1EEF6E08491882341F09091C00059
:101B500095FFFCCF8093C6003196F5CF8091C000F1
:101B600085FFFCCF8AE08093C60081E001C080E061
:101B7000DF91CF910895DF92EF92FF920F931F9321
:101B8000CF93DF93CDB7DEB76E970FB6F894DEBF75
:101B90000FBECDBF6091A6047091A70461157105B9
:101BA00059F14DE150E08E010F5F1F4FC8010E94B7
:101BB0009E641E8EF8017F01E01AF10AD190DD20AB
:101BC00019F08AE0D812F7CFF801EE0DFF1D108250
:101BD00060E0C80188DF882379F0DD20B1F08FEF65
:101BE000E81AF80A8091A6049091A7048E0D9F1D13
:101BF0009093A7048093A60481E02091A6043091DD
:101C0000A704232B39F480E005C01092A70410929A
:101C1000A604F2CF6E960FB6F894DEBF0FBECDBF0E
:101C2000DF91CF911F910F91FF90EF90DF9008957A
:101C3000269A2E980895FCDF40E052EC61E070E0B7
:101C40008EE993E08ADC26E040E855E260E070E04F
:101C500085EB9EE00E94905A26E040E855E260E065
:101C600070E088E19EE00E94905AEBEDF6E08491EE
:101C7000882341F09091C00095FFFCCF8093C6006F
:101C80003196F5CF8091C00085FFFCCF8AE080932C
:101C9000C600EFE2F7E08491882341F09091C00004
:101CA00095FFFCCF8093C6003196F5CF84B780FFB7
:101CB00014C0E3EDF6E09491992341F02091C00027
:101CC00025FFFCCF9093C6003196F5CF9091C000D0
:101CD00095FFFCCF9AE09093C60081FF14C0E3EC1F
:101CE000F6E09491992341F02091C00025FFFCCFAC
:101CF0009093C6003196F5CF9091C00095FFFCCF30
:101D00009AE09093C60082FF14C0E2EBF6E0949153
:101D1000992341F02091C00025FFFCCF9093C6008D
:101D20003196F5CF9091C00095FFFCCF9AE090934B
:101D3000C60083FF14C0E2EAF6E09491992341F0D3
:101D40002091C00025FFFCCF9093C6003196F5CFBF
:101D50009091C00095FFFCCF9AE09093C60085FF5C
:101D600014C0E2E9F6E08491882341F09091C0002C
:101D700095FFFCCF8093C6003196F5CF8091C000CF
:101D800085FFFCCF8AE08093C60014BEEBE8F6E046
:101D90008491882341F09091C00095FFFCCF8093FF
:101DA000C6003196F5CFE0E8F6E08491882341F053
:101DB0009091C00095FFFCCF8093C6003196F5CF7F
:101DC0008091C00085FFFCCF8AE08093C600EFE2DF
:101DD000F7E08491882341F09091C00095FFFCCFFB
:101DE0008093C6003196F5CFE0E7F6E08491882332
:101DF00041F09091C00095FFFCCF8093C6003196D2
:101E0000F5CFEFE5F6E08491882341F09091C00092
:101E100095FFFCCF8093C6003196F5CFE3E5F6E061
:101E20008491882341F09091C00095FFFCCF80936E
:101E3000C6003196F5CFECE3F6E08491882341F0BB
:101E40009091C00095FFFCCF8093C6003196F5CFEE
:101E50008091C00085FFFCCF8AE08093C600E1E35B
:101E6000F6E08491882341F09091C00095FFFCCF6B
:101E70008093C6003196F5CFE5E2F6E084918823A1
:101E800041F09091C00095FFFCCF8093C600319641
:101E9000F5CF8091C00085FFFCCF8AE08093C6001B
:101EA000EFE2F7E08491882341F09091C00095FF24
:101EB000FCCF8093C6003196F5CFE6E1F6E0849141
:101EC000882341F09091C00095FFFCCF8093C6001D
:101ED0003196F5CFADDD4AE050E0BC018EE993E0EC
:101EE0004ADCEFEFF5E08491882341F09091C00047
:101EF00095FFFCCF8093C6003196F5CF4AE050E0C5
:101F000060ED74E08EE993E036DC8091C00085FFDF
:101F1000FCCF8AE08093C60081E0809388048093A0
:101F2000890480938A0480938B040E94222B80E092
:101F30000E947B2C0E94E14E0E94A7330E94C8564B
:101F40000E94B54A6BE070E08EE894E00E9468421F
:101F500060918C0470918D048EE894E00E94A242FE
:101F600061E0809112020E94EC5860E080911202C0
:101F70000C9425590F931F93CF93DF930091A804DE
:101F80001091A90465E470E0C8010E94C764EC01E7
:101F9000C8010196209761F0188260E070E00E940D
:101FA000E56125E42883DF91CF911F910F9108957A
:101FB00060E070E0DF91CF911F910F910C94E5618B
:101FC0008091A8049091A9044AE050E060E070E09C
:101FD00001960C944D638091A8049091A9044AE065
:101FE00050E060E070E001960E944D63CB010895DF
:101FF000682F772767FD7095809162069091630640
:102000000E94C7649093A9048093A80421E0892BBF
:1020100009F420E0822F08950F931F93CF93DF934D
:102020008C0184E5E5DF882361F1D5DFEC0118162A
:1020300019064CF5EFE2F7E08491882341F0909186
:10204000C00095FFFCCF8093C6003196F5CF8091FC
:10205000C00085FFFCCF8DE48093C6004AE050E0CD
:10206000B8018EE993E087DBBE0182EC94E0ADDC41
:102070008091C00085FFFCCF8AE08093C60081E09C
:1020800005C08091AE048093910480E0DF91CF91F0
:102090001F910F9108950F931F93CF93DF9300D05B
:1020A00000D0CDB7DEB726E0EEE5F2E0DE01119616
:1020B00001900D922A95E1F7FC01EE0FFF1F21E040
:1020C00030E02C0F3D1FE20FF31F60817181161667
:1020D00017061CF1EFE2F7E02491222341F0309142
:1020E000C00035FFFCCF2093C6003196F5CFE5E266
:1020F000F4E02491222341F03091C00035FFFCCF61
:102100002093C6003196F5CF2091C00025FFFCCF6B
:102110002AE02093C6006AE070E08C01000F111FD6
:10212000000F111F025D1C4F882777FD8095982FA7
:102130000E943D5E9B01AC01F8016081718182814A
:1021400093810E94A25D6093320270933302809368
:1021500034029093350226960FB6F894DEBF0FBE78
:10216000CDBFDF91CF911F910F910895CF92EF9244
:10217000FF920F931F9320E030E040E752E40E946B
:10218000A25DC090AE047B018C0120E836E04CE7F4
:1021900056E068E776E084E796E00E941D351F91DF
:1021A0000F91FF90EF90CF9008956091320270915F
:1021B00033028091340290913502D8CF20E936E085
:1021C0004CE856E068E876E084E896E00C94303F0E
:1021D0004F925F926F927F928F929F92AF92BF9237
:1021E000CF92DF92EF92FF920F931F93CF93DF93E3
:1021F0008C01FC01E051F94FF490EC01CC0FDD1F94
:10220000CC0FDD1FCE018C57994F5C01FC01108271
:10221000118212821382D2DFCE018150994F7EDB70
:102220002B013C016F2D772767FD7095872F972F26
:102230000E943D5E6B017C01CE018C58994F4C0190
:1022400020E030E040EC5FE3C301B2010E94706027
:10225000A70196010E947060F401608371838283FC
:102260009383FE01E25DFC4F80819181A281B38165
:102270008093320290933302A0933402B0933502DC
:1022800094DF0E942D4BF50110821182128213827D
:1022900095DF80E00E940843CE018D50994F3C01AC
:1022A0003DDB9058A70196010E947060F4016083A5
:1022B00071838283938379DF0E942D4B81E00E949A
:1022C0000843C801E8DEC30129DB9B01AC010E9481
:1022D000C25CA70196010E947060F4016083718363
:1022E0008283938362DF0E942D4BFE01E753FB4FF5
:1022F0001082118212821382CE01855F984F0EDB0D
:10230000C354DB4F288139814A815B810E94C25CC2
:10231000F5016083718382839383C80105DB4EDFFF
:10232000F50180819181A281B381F4018083918341
:10233000A283B383109232021092330210923402BD
:10234000109235020E941043F801EF58F94F81E0D6
:102350008083F801E259F94F8083DF91CF911F917B
:102360000F91FF90EF90DF90CF90BF90AF909F9034
:102370008F907F906F905F904F90089580E1E4E799
:10238000F6E0A4E8B6E001900D928A95E1F7089591
:10239000CF92DF92EF92FF920F931F93CF93DF9331
:1023A0004AE2E42E43E0F42E04E716E0C4E8D6E067
:1023B00058EDC52E54E0D52EF70181917F0118DE2E
:1023C0008823C9F0D7DDF6012081211104C02091B6
:1023D000AD04222329F0288139814A815B8103C021
:1023E00020E030E0A9010E94C25CF80160837183A3
:1023F0008283938309C088819981AA81BB81F80176
:1024000080839183A283B3830C5F1F4F2496FFEFD9
:10241000CF1ADF0A8EE2E81683E0F80669F686E452
:10242000E7DD882391F0A6DD6B017C0120E030E040
:10243000A9010E949E5F181644F4C0923202D09205
:102440003302E0923402F0923502DF91CF911F9176
:102450000F91FF90EF90DF90CF900895EFE2F7E0BB
:102460008491882341F09091C00095FFFCCF809328
:10247000C6003196F5CFEFEAF4E08491882341F06D
:102480009091C00095FFFCCF8093C6003196F5CFA8
:10249000E0916406F09165068191882339F090916E
:1024A000C00095FFFCCF8093C600F6CFECEAF4E0C5
:1024B0008491882341F09091C00095FFFCCF8093D8
:1024C000C6003196F5CF0895CF92DF92EF92FF923A
:1024D0000E941E576B017C0180910E02882309F433
:1024E00083C020918604309187042115310509F4B9
:1024F0007BC08091820490918304A0918404B09168
:102500008504B701A601481B590B6A0B7B0B77FDAD
:102510007EC02330310579F03CF4213031050CF4D4
:1025200063C0EFE2F7E011C02430310509F05CC070
:10253000EFE2F7E042C0EFE2F7E023C09091C00085
:1025400095FFFCCF8093C600319684918111F6CF20
:10255000EBE9F4E08491882341F09091C00095FF6D
:10256000FCCF8093C6003196F5CF8091C00085FFE7
:10257000FCCF37C09091C00095FFFCCF8093C60080
:10258000319684918111F6CFE5E8F4E084918823B7
:1025900041F09091C00095FFFCCF8093C60031962A
:1025A000F5CF8091C00085FFFCCF1BC09091C0008B
:1025B00095FFFCCF8093C600319684918111F6CFB0
:1025C000EEE6F4E08491882341F09091C00095FFFD
:1025D000FCCF8093C6003196F5CF8091C00085FF77
:1025E000FCCF8AE08093C60020910E0230E0A8EE76
:1025F000B3E00E94A8616C0D7D1D8E1D9F1D609330
:102600008204709383048093840490938504FF90E4
:10261000EF90DF90CF9008951F93CF93DF930E94A8
:102620002D4B8091320290913302A0913402B091EF
:1026300035028093940690939506A0939606B093E6
:10264000970680913002909131029093D704809345
:10265000D60484E690E09093310280933002AAD9A8
:1026600081E00E94084380E1E4E8F6E0A4E7B6E0F8
:1026700001900D928A95E1F7109232021092330286
:10268000109234021092350288E5B2DC182F89E5E9
:10269000AFDCD82F8AE5ACDCC82F111105C0D111F1
:1026A00007C091E0982705C0DD2311F0982F01C0E5
:1026B00090E090931102911102C0112319F080E073
:1026C00090E086DD80911102811102C0DD2319F0B6
:1026D00081E090E07DDD80911102811102C0CC2368
:1026E00019F082E090E074DD69DD80E00E9408432B
:1026F0008091940690919506A0919606B0919706C8
:102700008093320290933302A0933402B093350247
:102710008091D6049091D704909331028093300237
:1027200049D90E9410430E942D4BE6E4F4E08491C5
:10273000882341F09091C00095FFFCCF8093C600A4
:102740003196F5CFDF91CF911F9108958F929F928F
:10275000AF92BF92CF92DF92EF92FF920F931F93AF
:10276000CF93DF9300D01F92CDB7DEB785E440DC76
:10277000B82E811102C00E942D4B6AE2C62E63E082
:10278000D62E79ECE72E74E0F72E04E816E0812CC3
:10279000912CA12CF60181916F012ADC882359F13B
:1027A000F801208131814281538129833A834B830F
:1027B0005C83E0DBF80160837183828393832981EA
:1027C0003A814B815C81F3E08F169104A1F00E9465
:1027D000C15C9B01AC01F7016081718182819381B1
:1027E0000E94C25CF7016083718382839383C4017A
:1027F0009BD8AA24A394FFEF8F1A9F0A84E0E80EC7
:10280000F11C0C5F1F4FE4E08E16910409F0C2CF5B
:10281000AA2021F0D3DCE1E2F4E00EC0BB20D9F322
:1028200080E996E00E94FB3FF6CF9091C00095FFB3
:10283000FCCF8093C600319684918111F6CF0F9022
:102840000F900F900F90DF91CF911F910F91FF90FC
:10285000EF90DF90CF90BF90AF909F908F900895B2
:10286000EF92FF920F931F93CF93DF93CDB7DEB715
:102870006E970FB6F894DEBF0FBECDBF82E994E02D
:102880000E94F24BBC0180E090E02CE330E040E09D
:1028900050E00E9464617F936F933F932F9382E196
:1028A00094E09F938F938E010F5F1F4F1F930F93A1
:1028B0000E94E2640FB6F894DEBF0FBECDBFEFE218
:1028C000F7E08491882341F09091C00095FFFCCF00
:1028D0008093C6003196F5CFF8018191882339F0B5
:1028E0009091C00095FFFCCF8093C600F6CF8091F9
:1028F000C00085FFFCCF8AE08093C6008091940BD6
:10290000882329F11092940BE090AE04F12C8701FA
:10291000000F111F095F114FF80160817181882735
:1029200077FD8095982F0E943D5E20913B0230916B
:102930003C0240913D0250913E020E949E5F18165B
:1029400034F4F80111821082C7010E94244F6E9660
:102950000FB6F894DEBF0FBECDBFDF91CF911F91B0
:102960000F91FF90EF9008950F931F93CF93DF93F4
:1029700083E53EDB882371F12EDB8C018F3F9105CF
:1029800009F040F580E534DB882329F024DBEC01F5
:1029900097FD20C002C0CDE0D0E0E4EFF2E08191ED
:1029A0009191C817D907B1F083E0EA32F807B9F777
:1029B00061E08C2F0E94EC58602F8C2F0E942559CB
:1029C000B8018C2F0E94D457289721F41093B0049B
:1029D0000093AF04DF91CF911F910F910895CF9293
:1029E000DF92EF92FF920F931F93CF93DF9388E6CE
:1029F00090E012DB81113CC08091980683FD38C0C5
:102A000083E5F6DA8823A1F1B5DA6B017C01009148
:102A1000910410E0E801CC0FDD1FC95FD14F0E9487
:102A20000A5E79836883C8010E94244F20E030E069
:102A30004AEA52E4C701B6010E949B5D181664F091
:102A400082E994E0DF91CF911F910F91FF90EF9079
:102A5000DF90CF900C94CC4B82E994E0DF91CF9142
:102A60001F910F91FF90EF90DF90CF900C94194C35
:102A7000DF91CF911F910F91FF90EF90DF90CF905A
:102A8000089589E690E0C8DA811128C0E5E3F7E00F
:102A90008491882341F09091C00095FFFCCF8093F2
:102AA000C6003196F5CFE7EAF3E08491882341F040
:102AB0009091C00095FFFCCF8093C6003196F5CF72
:102AC0008091C00085FFFCCF8AE08093C600809192
:102AD000C00085FFFCCF8AE08093C600089583E59F
:102AE00087DA882311F077DA01C080E080939806B6
:102AF000EFE2F7E08491882341F09091C00095FFC8
:102B0000FCCF8093C6003196F5CFEBE0F4E08491E2
:102B1000882341F09091C00095FFFCCF8093C600C0
:102B20003196F5CF80919806811103C0EDEFF3E067
:102B30003BC021E034E080E090E060E0ACE2409116
:102B4000980650E0082E02C0559547950A94E2F782
:102B500040FF1AC071E0760F662331F04091C0004B
:102B600045FFFCCFA093C600F90145915491FA01AD
:102B70006491662351F0E091C000E5FFFCCF6093C3
:102B8000C6004F5F5F4FF3CF762F01962E5F3F4F0A
:102B90008530910561F0672FD2CF9091C00095FFED
:102BA000FCCF8093C600319684918111F6CF80913D
:102BB000C00085FFFCCF8AE08093C600089583E5BE
:102BC00017DA811103C0EFE2F7E00EC004DA8D33AB
:102BD00008F08CE380930E0208959091C00095FF59
:102BE000FCCF8093C600319684918111F6CF40913D
:102BF0000E0250E060E070E087EC93E00E94070D69
:102C00008091C00085FFFCCF8AE08093C6000895C4
:102C100083E5EED9882391F0ADD920E030E04AE792
:102C200054E40E9470600E940F5E609316027093DD
:102C300017028093180290931902089588E5D8D955
:102C400081110EC089E5D4D981110AC08AE5D0D995
:102C5000811106C085E4CCD9811102C00C94934B3C
:102C60000E942D4B88E5C4D9882319F05F9A1092F1
:102C7000710689E5BDD9882319F08A9A10927206E7
:102C80008AE5B6D9882351F09FB7F894809108015E
:102C90008160809308019FBF1092730685E4A8D9D4
:102CA000882311F0129A089508953F924F925F92EF
:102CB0006F927F928F929F92AF92BF92CF92DF924C
:102CC000EF92FF920F931F93CF93DF93AAE28A2E86
:102CD000A3E09A2EC5EDDBE0B5EEAB2EBBE0BB2E3C
:102CE00005E91BE0312CF40181914F0181D9882342
:102CF00009F456C0F3E03F124EC03CD96B017C0191
:102D000020E030E040EA51E40E949B5D87FF3EC036
:102D1000A7019601688179818A819B810E94A25DC9
:102D20002B013C019B01AC016091A90B7091AA0B96
:102D30008091AB0B9091AC0B0E9470606093A90BDB
:102D40007093AA0B8093AB0B9093AC0BA3019201F1
:102D5000F50160817181828193810E947060F5012B
:102D60006083718382839383F801608171818281A2
:102D700093810E943B5EA30192010E9470600E94B9
:102D80000F5EF8016083718382839383C882D98246
:102D9000EA82FB8205C0EED8688379838A839B83AD
:102DA00033942496F4E0AF0EB11C0C5F1F4F84E007
:102DB000381299CFDF91CF911F910F91FF90EF9033
:102DC000DF90CF90BF90AF909F908F907F906F904B
:102DD0005F904F903F9008958F929F92AF92BF92D5
:102DE000CF92DF92EF92FF92E4EDF2E0849188239C
:102DF00041F09091C00095FFFCCF8093C6003196C2
:102E0000F5CF4091840650918506609186067091B9
:102E1000870622E030E08EE993E00E948D0CE0ED21
:102E2000F2E08491882341F09091C00095FFFCCF9F
:102E30008093C6003196F5CF40918806509189065F
:102E400060918A0670918B0622E030E08EE993E073
:102E50000E948D0CECECF2E08491882341F090917B
:102E6000C00095FFFCCF8093C6003196F5CF40910E
:102E70008C0650918D0660918E0670918F0622E02F
:102E800030E08EE993E00E948D0CE8ECF2E0849152
:102E9000882341F09091C00095FFFCCF8093C6003D
:102EA0003196F5CF4091900650919106609192062F
:102EB0007091930622E030E08EE993E00E948D0C41
:102EC0008FB7F8944091690C50916A0C60916B0C2B
:102ED00070916C0C80906D0C90906E0CA0906F0CAB
:102EE000B090700CC090710CD090720CE090730C8C
:102EF000F090740C8FBFEDEBF2E08491882341F0E9
:102F00009091C00095FFFCCF8093C6003196F5CF1D
:102F10002AE030E08EE993E00E94980BE9EBF2E0C2
:102F20008491882341F09091C00095FFFCCF80935D
:102F3000C6003196F5CF2AE030E0B501A4018EE954
:102F400093E00E94980BE5EBF2E08491882341F036
:102F50009091C00095FFFCCF8093C6003196F5CFCD
:102F60002AE030E0B701A6018EE993E00E94980BB9
:102F70008091C00085FFFCCF8AE08093C600FF905F
:102F8000EF90DF90CF90BF90AF909F908F9008957B
:102F9000E3EAF2E08191882339F09091C00095FF37
:102FA000FCCF8093C600F6CF8091C00085FFFCCF98
:102FB0008AE08093C600EDEAF2E08491882341F034
:102FC0009091C00095FFFCCF8093C6003196F5CF5D
:102FD000659B03C0E4E9F2E009C0EEE9F2E006C057
:102FE0009091C00095FFFCCF8093C6008191811124
:102FF000F7CF8091C00085FFFCCF8AE08093C600A8
:10300000E5EAF2E08491882341F09091C00095FFB9
:10301000FCCF8093C6003196F5CF049B03C0E4E952
:10302000F2E009C0EEE9F2E006C09091C00095FF21
:10303000FCCF8093C60081918111F7CF8091C000B1
:1030400085FFFCCF8AE08093C600EDE9F2E0849131
:10305000882341F09091C00095FFFCCF8093C6007B
:103060003196F5CF029B03C0E4E9F2E009C0EEE936
:10307000F2E006C09091C00095FFFCCF8093C6009F
:1030800081918111F7CF8091C00085FFFCCF8AE04C
:103090008093C600089583E50E94F80F8823F9F015
:1030A0000E94BA0FAB01BC014093BD0B5093BE0B05
:1030B0006093BF0B7093C00B4093B50B5093B60B4E
:1030C0006093B70B7093B80B85E792E00E94F60C03
:1030D0008091C00085FFFCCF8AE08093C60080E528
:1030E0000E94F80F8823B9F00E94BA0FAB01BC010F
:1030F0004093BD0B5093BE0B6093BF0B7093C00BFE
:1031000088E592E00E94F60C8091C00085FFFCCF1C
:103110008AE08093C60082E50E94F80F8823B9F008
:103120000E94BA0FAB01BC014093B90B5093BA0B8C
:103130006093BB0B7093BC0B89E392E00E94F60C8A
:103140008091C00085FFFCCF8AE08093C60084E5B3
:103150000E94F80F8823B9F00E94BA0FAB01BC019E
:103160004093B50B5093B60B6093B70B7093B80BAD
:103170008BE192E00E94F60C8091C00085FFFCCFAD
:103180008AE08093C600089583E50E94F80F8823A3
:1031900051F00E94BA0F6093C10B7093C20B8093E1
:1031A000C30B9093C40B84E50E94F80F882351F061
:1031B0000E94BA0F6093A50B7093A60B8093A70B88
:1031C0009093A80B82E40E94F80F882361F00E947C
:1031D000BA0F0E940F5E6093F50B7093F60B80930D
:1031E000F70B9093F80B88E50E94F80F882351F0B5
:1031F0000E94BA0F6093B10B7093B20B8093B30B24
:103200009093B40B8AE50E94F80F882351F00E9436
:10321000BA0F6093AD0B7093AE0B8093AF0B90938E
:10322000B00B85E40E94F80F882351F00E94BA0F7A
:103230006093A90B7093AA0B8093AB0B9093AC0B8C
:1032400008958F929F92AF92BF92CF92DF92EF92AA
:10325000FF920F931F93CF93DF93CAE2CC2EC3E06C
:10326000DC2ED4E8ED2ED6E0FD2E0DEB14E0C0E010
:10327000D0E0F60181916F010E94F80F882309F1D7
:103280000E94BA0F4B015C01F8012081318142811B
:1032900053810E94C15C9B01AC01F7016081718187
:1032A000828193810E94C25CF70160837183828373
:1032B0009383F80180829182A282B382CE010E9420
:1032C000940C2196F4E0EF0EF11C0C5F1F4FC330FD
:1032D000D10579F6DF91CF911F910F91FF90EF907B
:1032E000DF90CF90BF90AF909F908F900C94DE10A6
:1032F00085E40E94F80F811110C080E50E94F80F4C
:103300008823A9F00E94BA0F60935A0270935B025F
:1033100080935C0290935D020AC00E94BA0F0E94E3
:103320000A5E161617064CF7E5E3F7E0D5C089E408
:103330000E94F80F882361F00E94BA0F0E94B256D3
:1033400060935602709357028093580290935902EB
:1033500084E40E94F80F882361F00E94BA0F0E9453
:10336000BD5660935202709353028093540290931F
:10337000550283E40E94F80F882351F00E94BA0F8F
:1033800060934E0270934F028093500290935102CB
:103390008CE40E94F80F882341F00E94BA0F0E942B
:1033A0000A5E7093100260930F0280910F02909159
:1033B0001002C39734F082E390E090931002809360
:1033C0000F020E94714CEFE2F7E08491882341F0F4
:1033D0009091C00095FFFCCF8093C6003196F5CF49
:1033E000ECEBF2E08191882339F09091C00095FFD9
:1033F000FCCF8093C600F6CF40915A0250915B02F9
:1034000060915C0270915D0222E030E08EE993E011
:103410000E948D0CE0ECF2E08191882339F09091CC
:10342000C00095FFFCCF8093C600F6CF6091560296
:103430007091570280915802909159020E94B8569B
:10344000AB01BC0122E030E08EE993E00E948D0CDC
:10345000E4ECF2E08191882339F09091C00095FF6F
:10346000FCCF8093C600F6CF609152027091530258
:1034700080915402909155020E94C256AB01BC014A
:1034800022E030E08EE993E00E948D0CE8ECF2E05F
:103490008191882339F09091C00095FFFCCF8093F3
:1034A000C600F6CF40914E0250914F0260915002FB
:1034B0007091510222E030E08EE993E00E948D0C81
:1034C0008091C00085FFFCCF1AC09091C00095FF8D
:1034D000FCCF8093C600319684918111F6CFECEC3D
:1034E000F2E08191882339F09091C00095FFFCCFE4
:1034F0008093C600F6CF8091C00085FFFCCF8AE0A4
:103500008093C6000895EF92FF920F93CF93DF93BD
:1035100085E40E94F80F882321F00E94EB0FEC0154
:1035200002C0C0E0D0E083E40E94F80F882321F0BD
:103530000E94EB0F7C0103C005E0E02EF12C85E535
:103540000E94F80F882329F00E94EB0F01E0892BDD
:1035500009F400E083E50E94F80F882319F00E9427
:10356000BA0F06C0D7FD09C060E070E086E193E4C1
:10357000209739F41092910404C060E070E08CE868
:1035800092E410928704109286049701AE010E9483
:10359000B35181E090E09093870480938604DF919B
:1035A000CF910F91FF90EF9008952F923F924F92FD
:1035B0005F926F927F928F929F92AF92BF92CF92C3
:1035C000DF92EF92FF920F931F93CF93DF9300D080
:1035D00000D0CDB7DEB78EE696E09C838B83EDEB13
:1035E000F4E0FA83E98304E816E01E821D82212CB0
:1035F000312CEB81FC818191FC83EB83882309F4DE
:10360000ADC0ED81FE81E65EFD4F208131814281BA
:103610005381ED81FE81EF54FB4F60817181828186
:1036200093810E94C25C20E030E040E05FE30E94B2
:1036300070609B01AC01F80160817181828193818E
:103640000E949E5F18164CF48D819E81855F984F75
:103650000E948E0C9B01AC0103C020E030E0A90168
:10366000F80180809180A280B380C501B4010E94DE
:10367000C15C6B017C0120E030E040EA51EC0E942B
:103680009E5F18161CF0E5E3F7E038C020E030E05C
:1036900040EA51E4C701B6010E949B5D87FFF3CF6A
:1036A000E981FA814080518062807380A701960190
:1036B000C301B2010E94C15C6B017C01A3019201B4
:1036C0000E94C15C9B01AC01C501B4010E94C25CB7
:1036D000F8016083718382839383E981FA81C082D8
:1036E000D182E282F382C1010E94940C37C0909192
:1036F000C00095FFFCCF8093C60031968491811164
:10370000F6CFEEEFF1E08491882341F09091C00074
:1037100095FFFCCF8093C6003196F5CF8091C00015
:1037200085FFFCCF8AE08093C60026960FB6F894FA
:10373000DEBF0FBECDBFDF91CF911F910F91FF90E4
:10374000EF90DF90CF90BF90AF909F908F907F9041
:103750006F905F904F903F902F900895FFEF2F1A3A
:103760003F0A89819A8104969A838983ED81FE813B
:103770003496FE83ED830C5F1F4FF3E02F16310468
:1037800009F037CF26960FB6F894DEBF0FBECDBF37
:10379000DF91CF911F910F91FF90EF90DF90CF902D
:1037A000BF90AF909F908F907F906F905F904F9061
:1037B0003F902F900C94DE10CF92DF92EF92FF9209
:1037C000882361F1EFE2F7E09491992341F0209191
:1037D000C00025FFFCCF9093C6003196F5CF9091A5
:1037E000C00095FFFCCF94E59093C6004AE050E0FE
:1037F000682F8EE993E00E94F20BECECF2E08191ED
:10380000882339F09091C00095FFFCCF8093C600CB
:10381000F6CF8091C00085FFFCCF40C0109291048C
:1038200086E40E94F80F882399F00E94BA0F6B017A
:103830007C0120E030E0A9010E949E5F181644F44C
:10384000C0923202D0923302E0923402F0923502FA
:10385000EFE2F7E08491882341F09091C00095FF5A
:10386000FCCF8093C6003196F5CFEDEDF2E081916B
:10387000882339F09091C00095FFFCCF8093C6005B
:10388000F6CF6091AE0470E04AE050E08EE993E03C
:103890000E94BB0B8091C00085FFFCCF8AE0809323
:1038A000C600FF90EF90DF90CF9008950E94DA0C51
:1038B000E0916006F0916106E857FB4F8081882314
:1038C000A1F0E2EFF1E08491882341F09091C000F3
:1038D00095FFFCCF8093C6003196F5CF8091C00054
:1038E00085FFFCCF8AE08093C60008958EE993E0BF
:1038F0000E94FA0AE5EFF1E08491882341F090916B
:10390000C00095FFFCCF8093C6003196F5CF409163
:1039100066065091670660916806709169064F5F70
:103920005F4F6F4F7F4F2AE030E08EE993E00E94B7
:10393000980B8091C00085FFFCCF8AE08093C60081
:10394000B5CFCF93C62FE5E3F7E02491222379F09A
:103950003091C00035FFFCCF2093C6003196F5CFE3
:103960003091C00035FFFCCF2093C6000196FC01CA
:1039700024912111F5CF4091660650916706609120
:103980006806709169062AE030E08EE993E00E94B3
:10399000980B8091C00085FFFCCF8AE08093C60021
:1039A000C111A4DF1092AB041092AA04CF91089524
:1039B000CF92DF92EF92FF92CF93DF93EC01C09012
:1039C000B104D090B204E090B304F090B404A70125
:1039D0009601688179818A819B810E949B5D87FF26
:1039E00004C0C882D982EA82FB82C090B504D0901C
:1039F000B604E090B704F090B804A70196016C817A
:103A00007D818E819F810E949B5D87FF04C0CC8257
:103A1000DD82EE82FF8220E030E0A9016091B904EE
:103A20007091BA048091BB049091BC040E94C25C66
:103A30006B017C019B01AC01688579858A859B853A
:103A40000E949B5D87FF04C0C886D986EA86FB86F4
:103A5000C0901A02D0901B02E0901C02F0901D0250
:103A6000A7019601688179818A819B810E949E5F6E
:103A7000181624F4C882D982EA82FB82C0901E0202
:103A8000D0901F02E0902002F0902102A701960141
:103A90006C817D818E819F810E949E5F181624F427
:103AA000CC82DD82EE82FF82C0902202D09023027F
:103AB000E0902402F0902502A7019601688579859F
:103AC0008A859B850E949E5F181624F4C886D98635
:103AD000EA86FB86DF91CF91FF90EF90DF90CF9049
:103AE00008958F929F92AF92BF92CF92DF92EF9202
:103AF000FF920F931F93CF93DF93EC018B01809183
:103B0000980683FD90C0FB0180809180A280B380E5
:103B1000288139814A815B81C501B4010E94C15C61
:103B20006B017C0120E030E0A9010E949B5D8823AD
:103B300009F479C0E091AE0424E0E29FF001112481
:103B4000E351F24F20910A0230910B0240910C0296
:103B500050910D0260817181828193810E949B5DF1
:103B600087FF25C088829982AA82BB82EFE2F7E0B4
:103B70008491882341F09091C00095FFFCCF809301
:103B8000C6003196F5CFE8EDF1E08491882341F04D
:103B90009091C00095FFFCCF8093C6003196F5CF81
:103BA0008091C00085FFFCCF8AE08093C600C701EA
:103BB000B6010E940A5E97FF07C0909580957095A8
:103BC00061957F4F8F4F9F4F6139714081059105FE
:103BD00054F1F80180819181A281B3818883998316
:103BE000AA83BB83EFE2F7E08491882341F09091B0
:103BF000C00095FFFCCF8093C6003196F5CFEAEB6D
:103C0000F1E08491882341F09091C00095FFFCCFB2
:103C10008093C6003196F5CF8091C00085FFFCCF20
:103C20008AE08093C600DF91CF911F910F91FF90A2
:103C3000EF90DF90CF90BF90AF909F908F900895BE
:103C400084E796E0B5DE0E94DA0C60E876E080E971
:103C500096E047DF20917406309175064091760614
:103C60005091770660918406709185068091860652
:103C7000909187060E949B5D811117C02091780664
:103C80003091790640917A0650917B0660918806C2
:103C90007091890680918A0690918B060E949B5DA7
:103CA000811103C00E94D5101CC060913002709138
:103CB0003102882777FD8095982F0E943D5E2091E4
:103CC00032023091330240913402509135020E9409
:103CD000706020E030E048EC52E40E94A25D0E9457
:103CE000B6100C94BE112F923F924F925F926F923A
:103CF0007F928F929F92AF92BF92CF92DF92EF927C
:103D0000FF920F931F93CF93DF93CDB7DEB7C654C7
:103D1000D1090FB6F894DEBF0FBECDBF1C017EA740
:103D20006DA7142FDB0114968D909D90AD90BC90E3
:103D30001797CD90DD90ED90FC90A5019401C701FF
:103D4000B6010E94AB5F23966CAF7DAF8EAF9FAF85
:103D500023978091840690918506A0918606B09164
:103D60008706898F9A8FAB8FBC8FA7019601BC0104
:103D7000CD010E94C25C6FAB78AF89AF9AAF8091E2
:103D8000880690918906A0918A06B0918B068D8F46
:103D90009E8FAF8FB8A3A5019401BC01CD010E94F5
:103DA000C25C6BAF7CAF8DAF9EAF80918C06909163
:103DB0008D06A0918E06B0918F0689A39AA3ABA31E
:103DC000BCA39C01AD01D10118966D917D918D919F
:103DD0009C911B970E94C15C6DA37EA38FA398A7A3
:103DE000D1011C968D919D910D90BC91A02D27968F
:103DF0008CAF9DAFAEAFBFAF2797809190069091EB
:103E00009106A0919206B091930689A79AA7ABA7B5
:103E1000BCA7D701C601B0588D8B9E8BAF8BB88FD6
:103E2000D501C401B058898B9A8BAB8BBC8BD10167
:103E30008D919D910D90BC91A02D8FA798ABA9ABB2
:103E4000BAAB2FA938AD49AD5AADBC01CD010E9426
:103E5000C15C6B017C01D10114968D919D910D90F7
:103E6000BC91A02D8BAB9CABADABBEAB2BAD3CAD39
:103E70004DAD5EADBC01CD010E94C15C4B015C014A
:103E8000A70196016D897E898F89988D0E94706047
:103E90002B013C01A501940169897A898B899C8950
:103EA0000E9470609B01AC01C301B2010E94C25C20
:103EB0002B013C01A50194016D897E898F89988D24
:103EC0000E9470604B015C01A701960169897A89A3
:103ED0008B899C890E9470609B01AC01C501B40173
:103EE0000E94C15CA30192010E94355D6B017C01BF
:103EF00020E030E0A9010E949B5D87FF0AC02BED06
:103F00003FE049EC50E4C701B6010E94C25C6B017E
:103F10007C01112351F02BED3FE049EC50E4C70147
:103F2000B6010E94C15C6B017C0120E030E0A90178
:103F3000C701B6010E949B5D811122C02FA538A93F
:103F400049A95AA9698D7A8D8B8D9C8D0E949B5DA4
:103F5000811116C02BA93CA94DA95EA96D8D7E8D3E
:103F60008F8D98A10E949B5D81110AC02BED3FE0CF
:103F700049EC50E4C701B6010E94C25C6B017C01B0
:103F800023962CAD3DAD4EAD5FAD2397C701B60175
:103F90000E9470602DA13EA14FA158A55F770E949D
:103FA000AB5F4B015C012FE632E143E85AE30E942C
:103FB0009B5D87FDB4C1C501B4010E94785E0E947B
:103FC0000F5E7A8F698FFB01EF2B21F421E030E047
:103FD0003A8F298FA98DBA8DBD0180E090E00E94B3
:103FE0003B5E4B015C019B01AC01C701B6010E9425
:103FF000A25D2B013C01A50194016DA17EA18FA1C1
:1040000098A50E94A25D6FA778AB89AB9AAB29A552
:104010003AA54BA55CA527966CAD7DAD8EAD9FAD49
:1040200027970E94C15CA50194010E94A25D6BAB21
:104030007CAB8DAB9EAB20E030E040E05FE3C301A2
:10404000B2010E947060A30192010E9470609B0106
:10405000AC0160E070E080E89FE30E94C15C6DA36A
:104060007EA38FA398A789A19AA1ABA1BCA18987A0
:104070009A87AB87BC8789A59AA5ABA5BCA58D8778
:104080009E87AF87B88B609130027091310288278C
:1040900077FD8095982F0E943D5E209132023091ED
:1040A000330240913402509135020E94706020E04A
:1040B00030E040E752E40E94A25D20E030E048ECAE
:1040C00052E40E94A25D69A37AA38BA39CA3B12CA6
:1040D000A1E0B0E0BE8FAD8F2D8D3E8D898D9A8D84
:1040E0002817390708F007C1B394B8E1BB150CF4E1
:1040F00043C02DA13EA14FA158A569897A898B891A
:104100009C890E9470606B017C01A30192016D8902
:104110007E898F89988D0E947060A70196010E9408
:10412000C25C162FA72E982E892E2DA13EA14FA13D
:1041300058A56D897E898F89988D0E9470606B016A
:104140007C01A301920169897A898B899C890E94EB
:1041500070609B01AC01C701B6010E94C15C6D8B10
:104160007E8B8F8B988F812F9A2DA92DB82D898BBF
:104170009A8BAB8BBC8B6BC0ED8DFE8DBF0180E04D
:1041800090E00E943B5EA30192010E9470606B016F
:104190007C010E949F5D698B7A8B8B8B9C8BC70106
:1041A000B6010E94D3604B015C01ADA5BEA5CD90C8
:1041B000DD90ED90FC901397F7FAF094F7F8F094F7
:1041C00014968D919D910D90BC91A02D89A79AA7D1
:1041D000ABA7BCA729893A894B895C89C701B6017D
:1041E0000E9470606D8B7E8B8F8B988FA5019401E0
:1041F00069A57AA58BA59CA50E9470609B01AC0166
:104200006D897E898F89988D0E94C25C6D8B7E8BB3
:104210008F8B988FA5019401C701B6010E94706031
:104220006B017C0129893A894B895C8969A57AA54A
:104230008BA59CA50E9470609B01AC01C701B601D3
:104240000E94C15C698B7A8B8B8B9C8BB12C2D89E6
:104250003E894F89588D6FA978AD89AD9AAD0E947E
:10426000C25C69837A838B839C8329893A894B89D1
:104270005C896BAD7CAD8DAD9EAD0E94C25C6D83E3
:104280007E838F8398872FA538A949A95AA9698564
:104290007A858B859C850E94C25C69877A878B872B
:1042A0009C872BA93CA94DA95EA96D857E858F852C
:1042B00098890E94C25C6D877E878F87988BCE011C
:1042C000019676DBC090AE04E9A0FAA00BA11CA178
:1042D0009E01235F3F4FAE01475F5F4FBE016B5FA3
:1042E0007F4FCE0101960E941D35ED8DFE8D3196DA
:1042F000FE8FED8FF1CE9101245F3F4FA101485F0A
:104300005F4FB1016C5F7F4FC090AE04E9A0FAA08F
:104310000BA11CA1C1010E941D350E94BE11CA5BE8
:10432000DF4F0FB6F894DEBF0FBECDBFDF91CF9148
:104330001F910F91FF90EF90DF90CF90BF90AF90C3
:104340009F908F907F906F905F904F903F902F90B5
:1043500008951F93CF93DF93CDB7DEB728970FB69D
:10436000F894DEBF0FBECDBF182F80913602882390
:1043700049F10E94C81189E40E94F80F882319F0BE
:104380000E94BA0F03C060E070E0CB0169837A83BA
:104390008B839C838AE40E94F80F882319F00E9483
:1043A000BA0F03C060E070E0CB016D837E838F8322
:1043B0009887412FBE016F5F7F4F84E796E093DCC3
:1043C0000E94DA0C28960FB6F894DEBF0FBECDBF60
:1043D000DF91CF911F9108955F988A989FB7F894C5
:1043E000E8E0F1E080818E7F80839FBF129808957E
:1043F0005F9A109271068A9A109272069FB7F8948B
:10440000E8E0F1E08081816080839FBF10927306B5
:10441000129A0895F8940E94854FEADF60E08CE0DC
:104420000E94EC58E5E3F7E08491882341F09091F5
:10443000C00095FFFCCF8093C6003196F5CFE2E92E
:10444000F1E08491882341F09091C00095FFFCCF6A
:104450008093C6003196F5CF8091C00085FFFCCFD8
:104460008AE08093C6007894C6E0D0E0219739F0C6
:1044700068EC70E080E090E00E944D57F7CFF89430
:10448000A895FECF8F929F92AF92BF92CF92DF926C
:10449000EF92FF920F931F93CF93DF938AE0F82E52
:1044A00080915C0690915D0604970CF02DC12FB7AA
:1044B000F89480911F04909120042FBF891B8F775F
:1044C00009F422C18EE993E00E94E30A2091AA0434
:1044D0003091AB048A3019F08D3009F0E2C01092AF
:1044E000810421153105E1F2F901EF5DFB4F1082E6
:1044F0001092AB041092AA0481E294E06C01FC01DA
:10450000208101962032D1F3E6012E3411F0C12C26
:10451000D12C6AE270E0CE010E94C7648C01C11404
:10452000D10409F474C06AEF75E0CE010E94AD6455
:10453000EE24E394892B11F4E12C09C06EE470E0C1
:10454000CE0104960E94C764009709F06C014AE00E
:1045500050E060E070E0C60101960E944D636093F8
:104560006A0670936B0680936C0690936D0680903C
:10457000660690906706A0906806B0906906FFEF07
:104580008F1A9F0AAF0ABF0A681579058A059B052D
:1045900031F0E11004C061E087EC95E03DC0011509
:1045A000110501F180E0D12CFE01E80FF11D908191
:1045B0009A3219F08F5FD926F7CF4AE050E060E0D9
:1045C00070E0C80101960E944D630D2D10E020E0BF
:1045D00030E0601771078207930741F061E088EAD5
:1045E00095E01AC061E08EE795E016C080916A06FA
:1045F00090916B06A0916C06B0916D068093660653
:1046000090936706A0936806B093690612C000975E
:1046100081F060E084E595E0DF91CF911F910F91EB
:10462000FF90EF90DF90CF90BF90AF909F908F90D2
:1046300088C980913602811124C067E470E0CE0100
:104640000E94C7640097E9F04AE050E060E070E043
:1046500001960E944D636430710598F4EEEDF4E02C
:104660008491882341F09091C00095FFFCCF809306
:10467000C6003196F5CF8091C00085FFFCCFF09247
:10468000C6006FEE72E0CE010E94D264892B19F44D
:1046900085ED94E0BFDE61E081E294E00E94350D9B
:1046A000FFCE2F3531050CF0FBCE8C35C1F42FB782
:1046B000F89480911F04909120042FBF891B8F775D
:1046C00009F4EECE8EE993E00E94E30A9091810412
:1046D0009111E6CE2091AA043091AB0409C08B332E
:1046E00019F491E090938104909181049111D8CEB6
:1046F000A9014F5F5F4F5093AB044093AA04F901A7
:10470000EF5DFB4F8083CCCEDF91CF911F910F9156
:10471000FF90EF90DF90CF90BF90AF909F908F90E1
:1047200008950E94BB0D811101C0ACCE0895CF92B7
:10473000DF92EF92FF920F931F93CF93C82F809138
:104740005C0690915D0604970CF4EBDF0E941E5707
:10475000C0909E04D0909F04E090A004F090A1042B
:10476000C114D104E104F104B9F00091A204109144
:10477000A3042091A4043091A5040C0D1D1D2E1D31
:104780003F1D6B017C01C01AD10AE20AF30AF7FC53
:1047900003C081EB91E03EDEC0901602D09017027C
:1047A000E0901802F0901902C114D104E104F10460
:1047B000E1F00091A2041091A3042091A40430918F
:1047C000A5040C0D1D1D2E1D3F1D6B017C01C01A83
:1047D000D10AE20AF30AF7FC08C0C11106C09091A1
:1047E000C3068091C206981749F0CF911F910F918F
:1047F000FF90EF90DF90CF900C9400355F9A10926D
:1048000071068A9A109272069FB7F89480910801F7
:104810008160809308019FBF10927306129AE5CFC2
:104820000E94EB5080E083DF0C9464128F929F9281
:10483000AF92BF92CF92DF92EF92FF9280E50E94FB
:10484000F80F882329F00E94E00F4B015C0103C0A0
:10485000812C912C540183E50E94F80F882361F08C
:104860000E94BA0F20E030E04AE754E40E947060F2
:104870000E940F5E4B015C010E942D4B0E94DA0CDE
:10488000C090A204D090A304E090A404F090A504EA
:10489000C80CD91CEA1CFB1C0E941E576C197D0910
:1048A0008E099F0997FF02C0BBDFF6CFFF90EF9004
:1048B000DF90CF90BF90AF909F908F9008954F92D0
:1048C0005F926F927F928F929F92AF92BF92CF92A0
:1048D000DF92EF92FF920F931F93CF93DF938DE6BA
:1048E00090E00E940C1081114BC18091980683FDCD
:1048F00047C183E50E94F80FB82E811105C082E5FB
:104900000E94F80F882321F10E94BA0F6B017C01ED
:104910000091910410E0E801CC0FDD1FC95FD14F79
:10492000C701B6010E940A5E79836883C8010E94AC
:10493000244F20E030E04AEA52E4C701B6010E9469
:104940009B5D18160CF467C082E994E00E94CC4B82
:1049500086E40E94F80F8093940B882351F00E9404
:10496000BA0F6093370270933802809339029093A4
:104970003A0283E50E94F80F882351F00E94BA0F93
:1049800060933B0270933C0280933D0290933E0201
:1049900082E40E94F80F882351F00E94BA0F6093BE
:1049A0003F02709340028093410290934202C09173
:1049B0009104D0E0FE01EE0FFF1FE95FF14F60812F
:1049C0007181882777FD8095982F0E943D5E6B014D
:1049D0007C01FE01EE0FFF1FEE0FFF1FE351F24FB0
:1049E00020813181428153810E949B5D881F8827ED
:1049F000881FBB2019F0882399F0C2C0882381F05A
:104A000020E030E04AEA52E4C701B6010E949B5D13
:104A100087FDB6C005C082E994E00E94194C98CF8A
:104A20001092AC04412C512C3201C12CD12C7601B6
:104A3000CAE00E941E574B015C01DC01CB018419C6
:104A40009509A609B709B7FD4AC02401350188EECA
:104A5000480E83E0581E611C711CE3EAF3E0849168
:104A6000882341F09091C00095FFFCCF8093C60051
:104A70003196F5CFC114D104E104F10419F4E1EA4F
:104A8000F3E024C0C701B601605F784D8F4F9F4FA0
:104A9000681979098A099B0928EE33E040E050E063
:104AA0000E946461BA01A9012AE030E08EE993E036
:104AB0000E94980B8091C00085FFFCCF0EC09091A2
:104AC000C00095FFFCCF8093C60031968491811180
:104AD000F6CF8091C00085FFFCCFC093C600A0DE5A
:104AE0000E94DA0C0091910410E0F801EE0FFF1F14
:104AF000E95FF14F60817181882777FD8095982F5C
:104B00000E943D5EF801EE0FFF1FEE0FFF1FE35105
:104B1000F24F20813181428153810E94C15C9F7795
:104B2000C114D104E104F10469F420E030E040E86C
:104B30005FE30E949B5D87FF0DC00E941E576B01C3
:104B40007C0108C020E030E040E450E40E949E5F19
:104B500018169CF38091AC04811112C0C114D104C9
:104B6000E104F10409F465CF80E1881A87E2980A2C
:104B7000A108B1088C189D08AE08BF08B7FC59CF32
:104B8000DF91CF911F910F91FF90EF90DF90CF9029
:104B9000BF90AF909F908F907F906F905F904F905D
:104BA0000895CF92DF92EF92FF92CF93DF9380E54B
:104BB0000E94F80F882309F44EC00E94BA0F6B01BF
:104BC0007C0183E50E94F80F882331F00E94BA0F20
:104BD0000E940A5EEB0102C0CFEFDFEFCE0101962B
:104BE0000397C8F5C701B6010E940A5EF62E262F6C
:104BF000372FE4EFF2E0419151914217530759F1F9
:104C000083E0EA32F807B9F737FD25C00E942D4B43
:104C1000EF2C60E08F2D0E94EC58CF3F8FEFD8072C
:104C200029F0219771F0C0E0D0E00DC08F2D0E94D7
:104C30005A5931E020E0892B09F030E0C32FD22F00
:104C400002C0C1E0D0E08E2D0E945A598C179D07FA
:104C500011F0E6DDF8CFDF91CF91FF90EF90DF907C
:104C6000CF900895CF92DF92EF92FF926B017C017B
:104C70008091D504882331F120E030E0A901C701FB
:104C8000B6010E949B5D8823E9F020E030E040E01F
:104C90005FE3C701B6010E9470606B017C012BEDE0
:104CA0003FE049E450E40E947060A70196010E9431
:104CB00070609B01AC0160E070E080E89FE30E94BF
:104CC000A25D04C060E070E080E89FE3FF90EF9099
:104CD000DF90CF90089560912A0270912B0280910D
:104CE0002C0290912D02BEDF609326027093270262
:104CF00080932802909329020895CF92DF92EF9239
:104D0000FF92CF9388EC90E00E940C10811144C078
:104D100084E40E94F80F882309F43EC00E94BA0F71
:104D20006B017C01C1E020E030E0A9010E949B5DA5
:104D3000811101C0C0E0C093D504CC2339F1E091CA
:104D4000910484E0E89FF0011124E65DFD4FC082EC
:104D5000D182E282F38220E030E0A90160912A0250
:104D600070912B0280912C0290912D020E949B5DEC
:104D700081110CC080E090E0A0E4B0E480932A02AE
:104D800090932B02A0932C02B0932D02CF91FF9011
:104D9000EF90DF90CF909FCFCF91FF90EF90DF907B
:104DA000CF900895CF92DF92EF92FF920F931F93CF
:104DB000CF93DF93209160063091610640E6429FD9
:104DC000C001439F900D112484529B4F9093650620
:104DD000809364068091980680FF22C0EFE2F7E09E
:104DE0008491882341F09091C00095FFFCCF80937F
:104DF000C6003196F5CFE0916406F0916506819189
:104E0000882339F09091C00095FFFCCF8093C600B5
:104E1000F6CF8091C00085FFFCCF8AE08093C6006A
:104E20008091640690916506FC01208101962032F4
:104E3000D9F3F0936506E09364062E3461F0C091D7
:104E40006406D09165066AE270E0CE010E94C764F4
:104E50000097D1F420C0818190ED980F9A3010F026
:104E60008D3269F73296DF0131962C9120532A302A
:104E7000D0F3CD01FC01019620812032D9F3F093CB
:104E80006506E0936406DBCFFC01319682918032A7
:104E900029F08A3219F0FE01419102C01082F6CF4A
:104EA0002E2F9F2F81918032D9F380538A3018F0B2
:104EB0000E942E128EC3E22FF92F20E030E09AE0FC
:104EC0008191B901969F9001979F300D1124205335
:104ED0003109280F311D87FD3A95808180538A3032
:104EE00078F3DF0131968C918032D9F3B093630669
:104EF000A093620681E090E09093870480938604FB
:104F00004D3409F466C0443509F455C3473409F0FB
:104F100056C324303105D1F120F42230310578F523
:104F200016C02A353105A1F138F42C31310509F0CC
:104F300048C30E940C1345C32B35310509F438C012
:104F40002C35310509F03DC30E94A6133AC3809168
:104F50003602882321F00E94C8110E94201E0E9460
:104F60002D4BEAE4F4E08491882309F42AC390915C
:104F7000C00095FFFCCF8093C6003196F4CF81E04E
:104F80002230310509F080E0E4D91BC34FDC19C39E
:104F90001092AD04EAE6F4E08491882309F411C389
:104FA0009091C00095FFFCCF8093C6003196F4CF5E
:104FB00081E08093AD04E6E6F4E08491882309F46F
:104FC00000C39091C00095FFFCCF8093C60031963E
:104FD000F4CF2737310509F4F1C108F079C0253540
:104FE000310509F4BDC1C8F52C34310509F40DC1F2
:104FF000D8F42F31310509F402C148F421313105CB
:1050000009F4FBC02231310509F4A7C1DAC22A3202
:10501000310509F4F7C02B34310509F0D2C282E919
:1050200094E00E94194CCDC22135310509F480C1AC
:1050300058F42D34310509F4EDC02035310509F05F
:10504000C0C2269A2E98BDC22335310509F481C10C
:1050500008F083C11092DB04B4C22D36310509F487
:1050600017C1C8F42936310509F403C158F42C35A9
:10507000310509F48EC12836310509F0A2C20E941B
:10508000EF149FC22A36310509F404C12B363105CD
:1050900009F432C196C22037310509F4D1C058F461
:1050A0002E36310509F4BBC02F36310509F089C20F
:1050B0000E946F1586C22237310509F478C108F4C1
:1050C000C2C02337310509F07CC2E7EDF2E06BC1C5
:1050D0002D3271E0370709F4D7C1F0F52B3C3105CB
:1050E00009F488C1E0F42C38310509F4AFC050F45C
:1050F0002837310509F45EC12937310509F061C24D
:1051000080E059C1283C310509F45BC1293C3105D7
:1051100009F057C2CAE2D3E005EC1BE054C12E3CB3
:10512000310509F481C158F42C3C310509F479C1E9
:105130002D3C310509F045C20E94C41842C22D3DE4
:10514000310509F483C1223E310509F49BC12C3D90
:10515000310509F036C26BC1263FE1E03E0709F494
:10516000B2C118F5203961E0360709F4A4C160F432
:105170002E3281E0380709F48AC12F32314009F01C
:1051800020C20E94831A1DC22C3AF1E03F0709F4A5
:1051900095C1253F61E0360709F493C12A393140B2
:1051A00009F00FC20E94964B0CC2213283E03807EF
:1051B00009F4AAC188F4273FF1E03F0709F485C14B
:1051C0002032334009F0FDC161E0809112020E945B
:1051D0002559EAE5F4E094C1233273E0370709F476
:1051E000C8C108F4A4C1273E334009F0EAC181E0F8
:1051F000809336020E94761CE4C1EED8E2C10E9480
:105200003014DFC10E94B414DCC182E994E00E9432
:10521000DE4BD7C182E994E00E94CC4BD2C18EE430
:105220000E94F80F882309F4CCC10E94E00F60931C
:105230006A0670936B0680936C0690936D06C1C1ED
:105240008EEC93E0E7D80E94DF15BBC180919806F1
:1052500083FDB7C183E50E94F80F882309F4B1C12B
:105260000E94BA0F0E940A5E7093060E6093050EAC
:10527000A8C10E9441151092870410928604DF9104
:10528000CF911F910F91FF90EF90DF90CF900895F5
:1052900016DB97C183E50E94F80F882329F00E944E
:1052A000EB0FD82FC92F02C0DFEFC0E080E50E94CE
:1052B000F80F882319F00E94EB0F02C080E090E005
:1052C0002D2F3C2F2F3F310519F010F02FEF30E03C
:1052D000892B21F43093B0042093AF04E2E6F4E08C
:1052E0008491882309F46DC19091C00095FFFCCF93
:1052F0008093C6003196F4CF80E50E94F80F8111AB
:1053000005C01092B0041092AF0404C00E94EB0FCD
:10531000892BB9F3EEE5F4E08491882309F451C1B7
:105320009091C00095FFFCCF8093C6003196F4CFDA
:105330000E94854F0E94934B1092B0041092AF04CC
:1053400068EE73E080E090E00E944D57269A2E9A16
:1053500038C181E08093DB0435C10E94081631C159
:1053600083E50E94F80F882309F42BC10E94BA0F2D
:1053700020E030E04AE754E40E9470600E940F5E33
:1053800060939E0470939F048093A0049093A10463
:1053900018C10E94551615C19091C00095FFFCCF11
:1053A0008093C600319684918111F6CF0AC10E9484
:1053B000EC1607C181E00E940B4303C10E94C8178D
:1053C00000C19BDCFEC089910E94F80F882349F040
:1053D0000E94BA0F0E940F5EF8016083718382837E
:1053E00093830C5F1F4FF3E0CE32DF0761F70E941B
:1053F0001840E7C0CAE2D3E005EE1BE089910E94A5
:10540000F80F882339F00E94BA0FF8016083718386
:10541000828393830C5F1F4FF3E0CE32DF0771F777
:10542000D0C00E944B18CDC00E942119CAC083E58C
:105430000E94F80F882309F4C4C00E94BA0F0E948A
:105440000A5E7093310260933002BBC083E50E9414
:10545000F80F882309F4B5C00E94BA0F0E940A5EB3
:105460006B017C018DED90E00E940C108111A9C0B0
:10547000E0919104F0E0EE0FFF1FE25DFD4FD1825D
:10548000C0829FC08EDB9DC00E9478199AC083E5C0
:105490000E94F80F882319F00E94BA0F03C060E041
:1054A00070E0CB0160930A0270930B0280930C02B0
:1054B00090930D0286C00E942D4B83C00E94D51A86
:1054C00080C0C0D013C0BED07CC083E50E94F80F5E
:1054D000882361F00E94BA0FC1E020E030E0A9010A
:1054E0000E949B5D8111C0E08C2F01C080E003D23F
:1054F00068C09091C00095FFFCCF8093C6003196A4
:1055000084918111F6CF5DC060E0809112020E940B
:105510002559E6E5F4E08491882309F452C090917E
:10552000C00095FFFCCF8093C6003196F4CF83E591
:105530000E94F80F882341F00E94BA0F0E940A5E71
:105540007093150260931402609114027091150219
:105550008EE894E00E94A242E2E5F4E08491882380
:1055600081F19091C00095FFFCCF8093C6003196E9
:10557000F5CF83E50E94F80F882341F00E94BA0F0F
:105580000E940A5E70938D0460938C0460918C0479
:1055900070918D048EE894E00E94A242EEE4F4E063
:1055A0008491882371F09091C00095FFFCCF809387
:1055B000C6003196F5CF822F0E94DC1B02C080E02E
:1055C00001C081E01092870410928604882309F4B8
:1055D0006FCCDF91CF911F910F91FF90EF90DF90F3
:1055E000CF900C94561C80915C0690915D060497B8
:1055F0000CF497D880915C0690915D06892BB9F0E8
:10560000D1DB80915C0690915D06019790935D06D9
:1056100080935C068091600690916106019664E03B
:1056200070E00E94516190936106809360060E9431
:105630001343F6C882E994E00E94BE4B8EE894E0E2
:105640000C94A841AF92BF92CF92DF92EF92FF925B
:105650000F931F93CF93DF93CDB7DEB7E0970FB6CD
:10566000F894DEBF0FBECDBF80E1E4E6F2E0DE01DC
:10567000919601900D928A95E1F780E1E4E7F2E0DE
:10568000DE01519601900D928A95E1F780E1E4E800
:10569000F2E0DE01119601900D928A95E1F77E010C
:1056A00081E2E80EF11C05ED1BE0BE016F5E7F4F4D
:1056B00045EE5BE09E012F5F3F4FE5ECAE2EEBE049
:1056C000BE2ED12CF70181919191A191B1917F01D1
:1056D000F80181939193A193B1938F01FB01819183
:1056E0009191A191B191BF01FA0181939193A193FD
:1056F000B193AF01F90181919191A191B1919F0174
:10570000F50181939193A193B1935F01D394F4E058
:10571000DF12D8CF0E941840C12CD12C98ECE92E72
:1057200092E4F92EC092BD0BD092BE0BE092BF0B5B
:10573000F092C00B80E090E8ABE3B5E48093B90B46
:105740009093BA0BA093BB0BB093BC0BC092B50B5C
:10575000D092B60BE092B70BF092B80B1092C10B3F
:105760001092C20B1092C30B1092C40B80E29EE405
:10577000A0E0B0E08093F50B9093F60BA093F70BAD
:10578000B093F80B1092A50B1092A60B1092A70BDA
:105790001092A80B80E090E0A0EAB0E48093B10BF7
:1057A0009093B20BA093B30BB093B40B4DEC5CECA5
:1057B0006CEC7EE34093AD0B5093AE0B6093AF0B5C
:1057C0007093B00B8093A90B9093AA0BA093AB0B93
:1057D000B093AC0B1092C5041092C6041092C7048B
:1057E0001092C8041092C1041092C2041092C30413
:1057F0001092C4041092BD041092BE041092BF0413
:105800001092C0048AE999E9A1EBB1E480935A02AD
:1058100090935B02A0935C02B0935D0261E77DE32D
:105820008AE89FE30E94B256609356027093570233
:10583000809358029093590260E070E084EE92E405
:105840000E94BD566093520270935302809354029B
:1058500090935502C0924E02D0924F02E0925002B5
:10586000F092510284E190E09093100280930F0235
:105870000E94714C1092D50480E090E0A0E4B0E466
:1058800080932A0290932B02A0932C02B0932D02B6
:1058900022DAEFE2F7E08491882341F09091C00092
:1058A00095FFFCCF8093C6003196F5CFE9E3F9E090
:1058B0008491882341F09091C00095FFFCCF8093A4
:1058C000C6003196F5CF8091C00085FFFCCF8AE0FD
:1058D0008093C600E0960FB6F894DEBF0FBECDBF32
:1058E000DF91CF911F910F91FF90EF90DF90CF90BC
:1058F000BF90AF900895CF93C82F882389F140912E
:10590000D50B5091D60B6091D70B7091D80B81E2DB
:1059100099E00E94F60C4091D90B5091DA0B6091FE
:10592000DB0B7091DC0B8EE199E00E94F60C40914C
:10593000DD0B5091DE0B6091DF0B7091E00B8BE182
:1059400099E00E94F60C4091E10B5091E20B6091BE
:10595000E30B7091E40B88E199E00E94F60C2FC0F4
:10596000EFE2F7E08491882341F09091C00095FF29
:10597000FCCF8093C6003196F5CFE9E2F9E084913F
:10598000882341F09091C00095FFFCCF8093C60022
:105990003196F5CF8091C00085FFFCCF8AE08093DF
:1059A000C600EFE2F7E08491882309F4A8CF909134
:1059B000C00095FFFCCF8093C6003196F4CF809154
:1059C000C00085FFFCCF8AE08093C600CC2389F11C
:1059D0004091E50B5091E60B6091E70B7091E80B5D
:1059E00085EF98E00E94F60C4091E90B5091EA0B8C
:1059F0006091EB0B7091EC0B82EF98E00E94F60C3B
:105A00004091ED0B5091EE0B6091EF0B7091F00B0C
:105A10008FEE98E00E94F60C4091F10B5091F20B42
:105A20006091F30B7091F40B8CEE98E00E94F60CF1
:105A30002FC0EFE2F7E08491882341F09091C000FD
:105A400095FFFCCF8093C6003196F5CFEEEFF8E0DE
:105A50008491882341F09091C00095FFFCCF809302
:105A6000C6003196F5CF8091C00085FFFCCF8AE05B
:105A70008093C600EFE2F7E08491882309F4A8CF71
:105A80009091C00095FFFCCF8093C6003196F4CF73
:105A90008091C00085FFFCCF8AE08093C600CC23B4
:105AA00089F14091C50B5091C60B6091C70B709165
:105AB000C80B85EC98E00E94070D4091C90B5091EE
:105AC000CA0B6091CB0B7091CC0B82EC98E00E94DA
:105AD000070D4091CD0B5091CE0B6091CF0B709183
:105AE000D00B8FEB98E00E94070D4091D10B5091A5
:105AF000D20B6091D30B7091D40B8CEB98E00E9489
:105B0000070D2FC0EFE2F7E08491882341F09091D8
:105B1000C00095FFFCCF8093C6003196F5CFEEEC28
:105B2000F8E08491882341F09091C00095FFFCCF6C
:105B30008093C6003196F5CF8091C00085FFFCCFE1
:105B40008AE08093C600EFE2F7E08491882309F4AD
:105B5000A8CF9091C00095FFFCCF8093C6003196EE
:105B6000F4CF8091C00085FFFCCF8AE08093C6000F
:105B7000CC2329F14091BD0B5091BE0B6091BF0B1E
:105B80007091C00B81E898E00E94F60C4091B90B2F
:105B90005091BA0B6091BB0B7091BC0B8EE798E0F3
:105BA0000E94F60C4091B50B5091B60B6091B70B6B
:105BB0007091B80B8BE798E00E94F60C2FC0EFE2D3
:105BC000F7E08491882341F09091C00095FFFCCFCD
:105BD0008093C6003196F5CFEAE8F8E084918823F7
:105BE00041F09091C00095FFFCCF8093C6003196A4
:105BF000F5CF8091C00085FFFCCF8AE08093C6007E
:105C0000EFE2F7E08491882309F4B4CF9091C000CB
:105C100095FFFCCF8093C6003196F4CF8091C000F1
:105C200085FFFCCF8AE08093C600CC2309F449C0ED
:105C30004091C10B5091C20B6091C30B7091C40B8A
:105C40008FEB97E00E94F60C4091A50B5091A60BAC
:105C50006091A70B7091A80B8CEB97E00E94F60C5B
:105C60004091F50B5091F60B6091F70B7091F80B8A
:105C700089EB97E00E94070D4091B10B5091B20B58
:105C80006091B30B7091B40B86EB97E00E94F60C19
:105C90004091AD0B5091AE0B6091AF0B7091B00B7A
:105CA00083EB97E00E94F60C4091A90B5091AA0B50
:105CB0006091AB0B7091AC0B80EB97E00E94F60CFF
:105CC0002FC0EFE2F7E08491882341F09091C0006B
:105CD00095FFFCCF8093C6003196F5CFE8ECF7E056
:105CE0008491882341F09091C00095FFFCCF809370
:105CF000C6003196F5CF8091C00085FFFCCF8AE0C9
:105D00008093C600EFE2F7E08491882309F490CFF6
:105D10009091C00095FFFCCF8093C6003196F4CFE0
:105D20008091C00085FFFCCF8AE08093C600CC2321
:105D300029F14091BD045091BE046091BF0470915F
:105D4000C00485E997E00E94F60C4091C10450918F
:105D5000C2046091C3047091C40482E997E00E9478
:105D6000F60C4091C5045091C6046091C70470912F
:105D7000C8048FE897E00E94F60C2FC0EFE2F7E02E
:105D80008491882341F09091C00095FFFCCF8093CF
:105D9000C6003196F5CFEEE9F7E08491882341F013
:105DA0009091C00095FFFCCF8093C6003196F5CF4F
:105DB0008091C00085FFFCCF8AE08093C600EFE2AF
:105DC000F7E08491882309F4B4CF9091C00095FF47
:105DD000FCCF8093C6003196F4CF8091C00085FF40
:105DE000FCCF8AE08093C600CC2309F441C04091E7
:105DF0005A0250915B0260915C0270915D0288E7EB
:105E000097E00E94F60C60915602709157028091C3
:105E10005802909159020E94B856AB01BC0185E727
:105E200097E00E94F60C60915202709153028091AB
:105E30005402909155020E94C256AB01BC0182E708
:105E400097E00E94F60C40914E0250914F026091F3
:105E50005002709151028FE697E00E94F60C60911B
:105E60000F02709110028CE697E00E94E50C2FC0A3
:105E7000EFE2F7E08491882341F09091C00095FF14
:105E8000FCCF8093C6003196F5CFE1E8F7E084912E
:105E9000882341F09091C00095FFFCCF8093C6000D
:105EA0003196F5CF8091C00085FFFCCF8AE08093CA
:105EB000C600EFE2F7E08491882309F498CF90912F
:105EC000C00095FFFCCF8093C6003196F4CF80913F
:105ED000C00085FFFCCF8AE08093C600CC2369F028
:105EE00040912A0250912B0260912C0270912D0258
:105EF00086E497E00E94F60C45C0EFE2F7E084915B
:105F0000882341F09091C00095FFFCCF8093C6009C
:105F10003196F5CFE9E5F7E08491882341F090913F
:105F2000C00095FFFCCF8093C6003196F5CF8091DD
:105F3000D504811103C0EFE4F7E00CC08091C000EC
:105F400085FFFCCF0EC09091C00095FFFCCF8093E1
:105F5000C600319684918111F6CF8091C00085FFF3
:105F6000FCCF8AE08093C600EFE2F7E084918823BB
:105F700009F4B6CF9091C00095FFFCCF8093C60086
:105F80003196F4CF8091C00085FFFCCF8AE08093EA
:105F9000C6008091D504811123C0C1110DC0EFE26C
:105FA000F7E007C09091C00095FFFCCF8093C6003A
:105FB000319684918111F6CFECE3F7E007C0909120
:105FC000C00095FFFCCF8093C6003196849181116B
:105FD000F6CF8091C00085FFFCCF8AE08093C60099
:105FE000CF9108952F923F924F925F926F927F923E
:105FF0008F929F92AF92BF92CF92DF92EF92FF92D9
:106000000F931F93CF93DF93CDB7DEB768970FB68B
:10601000F894DEBF0FBECDBF1C012A013B01480131
:106020005901DC01D8966D917D918D919C91DB9702
:106030000E943B5E6B017C01A30192010E94706093
:106040000E94885D0E940F5E69877A878B879C8794
:10605000A5019401C701B6010E9470600E94885D8D
:106060000E940F5E6D877E878F87988B29853A8582
:106070004B855C85283731054105510540F488E79B
:1060800090E0A0E0B0E089879A87AB87BC872D8538
:106090003E854F855889283731054105510540F423
:1060A00088E790E0A0E0B0E08D879E87AF87B88B4F
:1060B00091012C5B3F4FD9018D919D910D90BC9129
:1060C000A02D8D839E83AF83B887BC01CD010E9434
:1060D0003D5E69837A838B839C8369857A858B8512
:1060E0009C850E943B5E698B7A8B8B8B9C8B20E01E
:1060F00030E0A90169817A818B819C810E949B5D3E
:10610000882339F1A7019601C701B6010E9470608A
:106110004B015C0129893A894B895C89CA01B90123
:106120000E9470609B01AC01C501B4010E94C15C7A
:106130004B015C0129813A814B815C81CA01B90123
:106140000E94C25C9B01AC01C501B4010E94A25D2A
:1061500003C060E070E0CB010E94885D0E940A5E8F
:106160002B013C016D817E818F8198859095809572
:10617000709561957F4F8F4F9F4F0E943D5E4B0101
:106180005C016D857E858F8598890E943B5E6D835D
:106190007E838F83988720E030E0A901C501B40198
:1061A0000E949B5D882349F12D813E814F81588556
:1061B000CA01B9010E9470606D8B7E8B8F8B988FA6
:1061C000A7019601C701B6010E9470609B01AC0156
:1061D0006D897E898F89988D0E94C15C6B017C01DD
:1061E000A5019401C501B4010E94C25C9B01AC01F0
:1061F000C701B6010E94A25D03C060E070E0CB0160
:106200000E94785EF10180889188A288B388750128
:106210006401C418D508E608F7080E940A5EC61A89
:10622000D70AE80AF90AF7FE6BC020E030E0A901BE
:1062300069817A818B819C810E949B5D882309F40E
:1062400047C029813A814B815C81CA01B9010E9412
:10625000C25C6B017C01C501B4010E943B5E9B01E5
:10626000AC01C701B6010E9470606B017C012989F5
:106270003A894B895C89CA01B9010E9470609B010F
:10628000AC01C701B6010E94C15C6B017C012D818C
:106290003E814F815885CA01B9010E9470609B01FF
:1062A000AC01C701B6010E94C25C6B017C0120E019
:1062B00030E040E850E469817A818B819C810E94C2
:1062C00070609B01AC01C701B6010E94A25D03C0D2
:1062D00060E070E0CB010E94885D0E940A5E2B01A5
:1062E0003C0197FF03C0412C512C32014814590442
:1062F0006A047B0410F024013501C12CD12C7601F5
:106300008FB7F894F101E45BFF4F9081911125C0A4
:10631000D10154964D925D926D927C925797C40C28
:10632000D51CE61CF71CF101C08ED18EE28EF38ED7
:1063300029853A854B855C85DC962D933D934D935D
:106340005C93DF97A05CBF4F2D853E854F855889B4
:106350002D933D934D935C9313978FBF68960FB623
:10636000F894DEBF0FBECDBFDF91CF911F910F918B
:10637000FF90EF90DF90CF90BF90AF909F908F9065
:106380007F906F905F904F903F902F9008954F9225
:106390005F926F927F92AF92BF92CF92DF92EF9215
:1063A000FF920F931F93CF93DF93EB017A01209716
:1063B00009F458C04115510509F454C0AAA4BBA45E
:1063C0000CA51DA59501A8016EA17FA188A599A581
:1063D0000E949B5D882309F445C08FA981113AC0B2
:1063E000F70146A057A060A471A4A3019201B501D2
:1063F000C8010E949E5F18166CF5A3019201C301AB
:10640000B2010E9470606B017C018AA99BA9ACA9B2
:10641000BDA9BC01CD0190589B01AC010E94C25C9A
:106420002EA53FA548A959A90E9470609B01AC0107
:10643000C701B6010E94C15C0E94DD606B017C0156
:106440009B01AC01B501C8010E949B5D87FD02C0A4
:1064500056018701A501B8014EA35FA368A779A7DC
:1064600081E08EABDF91CF911F910F91FF90EF9064
:10647000DF90CF90BF90AF907F906F905F904F90E4
:106480000895DF92EF92FF920F931F93CF93DF93C4
:106490008091C3068FB7F894E090C2068FBF8091B9
:1064A000C30690E08E1991098F7099270497E4F044
:1064B0001091C30613501F7040E050E000E0F12C33
:1064C0008DE4D82E1E1581F011501F70D19EE00171
:1064D0001124CC53D94F602F7F2DCE0158DF402F90
:1064E0005F2D0C2FFD2EEECFDF91CF911F910F91DD
:1064F000FF90EF90DF9008954F925F926F927F929E
:10650000AF92BF92CF92DF92EF92FF920F931F93C1
:10651000CF93DF938C01EB01009709F453C0FC018A
:1065200087A981114FC046A057A060A471A4AEA056
:10653000BFA0C8A4D9A49501A601C301B2010E94BD
:106540009B5D87FF3FC0A3019201C301B2010E947E
:1065500070602B013C01F80182A993A9A4A9B5A9F7
:10656000BC01CD0190589B01AC010E94C25CF801B6
:1065700026A537A540A951A90E9470609B01AC01D6
:10658000C301B2010E94C15C0E94DD607B018C01ED
:106590009B01AC01B501C6010E949B5D87FF02C053
:1065A000750186019701A801B501C6010E949B5D96
:1065B000882341F0A701B8014EA35FA368A779A77C
:1065C00081E08EABDF91CF911F910F91FF90EF9003
:1065D000DF90CF90BF90AF907F906F905F904F9083
:1065E0000895EF92FF920F931F93CF93DF93109133
:1065F000C206F12C00E080E090E02DE4E22E209134
:10660000C306121781F0E19EE0011124CC53D94F4B
:10661000AE016F2D702F70DF1F5F1F708F2D902FB9
:10662000FC2E0D2FECCF40E050E06F2D702FDF914E
:10663000CF911F910F91FF90EF905ECF4F925F929D
:106640006F927F928F929F92AF92BF92CF92DF9282
:10665000EF92FF920F931F93CF93DF939090C20618
:10666000C0E0D0E03DE4832E892D992787FD9095E9
:106670002091C30630E082179307B1F1889E500144
:10668000899EB00C1124C5018C53994F5C01209751
:1066900029F18EA9811104C0F50186A98823F1F0A2
:1066A000CAA0DBA0ECA0FDA0A7019601F50166A1A0
:1066B00077A180A591A50E94A25D2B013C01A701B5
:1066C00096016EA17FA188A599A50E94A25DAB014C
:1066D000BC0193018201CE0185DC1EAA9394F92DA1
:1066E000FF709F2EE501C0CF2097E9F0CAA0DBA084
:1066F000ECA0FDA0A70196016DEC7CEC8CE49DE381
:106700000E94A25D4B015C01A70196016EA17FA1D1
:1067100088A599A50E94A25DAB01BC0195018401E9
:10672000CE0160DC1EAADF91CF911F910F91FF90E7
:10673000EF90DF90CF90BF90AF909F908F907F9021
:106740006F905F904F9008959CDE4BDF77CF109253
:10675000C2061092C30680E1E2EBF6E0DF011D9273
:106760008A95E9F71092A2061092A3061092A40649
:106770001092A5061092A6061092A7061092A806DF
:106780001092A9061092AA061092AB061092AC06BF
:106790001092AD061092AE061092AF061092B0069F
:1067A0001092B10610929E0610929F061092A006BB
:1067B0001092A10608954F925F926F927F928F92EE
:1067C0009F92AF92BF92CF92DF92EF92FF920F9380
:1067D0001F93CF93DF938091940B882309F4FFC01C
:1067E00000913B0210913C02D0913D02C0913E02CB
:1067F0006091070E7091080E882777FD8095982F7D
:106800000E943D5E20E030E040E050E40E94C25C27
:1068100098014D2F5C2F0E949B5D87FDE0C050903A
:10682000C206612C712C812C912C4DE4442E809158
:10683000C306581609F44EC0459C50011124C501E9
:106840008C53994F5C01FC0180819181A281B381BD
:10685000892B8A2B8B2B81F484819581A681B7812A
:10686000892B8A2B8B2B41F480859185A285B3855A
:10687000892B8A2B8B2B49F1F501648575858685DB
:1068800097850E943D5E6B017C01F50160897189ED
:10689000828993890E943B5E9B01AC01C701B601CE
:1068A0000E94A25DF50122A133A144A155A10E943D
:1068B00070606B017C019B01AC01B301C4010E94BB
:1068C0009B5D87FF02C0360147015394F52DFF7091
:1068D0005F2EADCF209137023091380240913902BE
:1068E00050913A02B301C4010E9470609B01AC0157
:1068F000B8018D2F9C2F0E94C25C6B017C01980116
:106900004D2F5C2F0E949B5D87FD14C000913F02BC
:1069100010914002D0914102C091420298014D2F46
:106920005C2FB601C7010E949E5F18161CF08601FD
:10693000DE2DCF2D8090990690909A06A0909B0610
:10694000B0909C0698014D2F5C2FC501B4010E94A8
:106950009E5F1816E4F420E037ED43EA5CE3B801EB
:106960008D2F9C2F0E9470606B017C0128E431EE1A
:106970004AE75FE3C501B4010E9470609B01AC016E
:10698000C701B6010E94C25C8B01D82FC92FC80174
:10699000AD2FBC2F8093990690939A06A0939B06E7
:1069A000B0939C06B8018D2F9C2F0E940A5E7093B5
:1069B000080E6093070E80E090E0DF91CF911F9169
:1069C0000F91FF90EF90DF90CF90BF90AF909F908E
:1069D0008F907F906F905F904F900C94244FDF9139
:1069E000CF911F910F91FF90EF90DF90CF90BF90CC
:1069F000AF909F908F907F906F905F904F90089591
:106A00006091AF049091C3068091C206981781F0FF
:106A10008091C2069DE4899FF0011124E45FF84F44
:106A200060819091C306891719F08F5F8F70F9CF3D
:106A300070E088E00E94D457BECE2F923F924F92D2
:106A40005F926F927F928F929F92AF92BF92CF92FE
:106A5000DF92EF92FF920F931F93CF93DF93CDB707
:106A6000DEB7C857D1090FB6F894DEBF0FBECDBF51
:106A70004C015B011A013CAB2BAB2496EFAE249783
:106A80002896FFAE28976C960FAF6C9764961FAF51
:106A900064971C2D2091C3062F5F2F70A0962FAFF7
:106AA000A097E22EFF24E7FCF0948091C20690E0CC
:106AB0008E159F0519F40E941024F7CF2091D50B55
:106AC0003091D60B4091D70B5091D80BD4016D91DA
:106AD0007D918D919C910E9470600E9440602B017D
:106AE0003C0169A37AA38BA39CA32091D90B30917D
:106AF000DA0B4091DB0B5091DC0BF5016081718169
:106B0000828193810E9470600E9440604B015C0111
:106B10006DA37EA38FA398A72091DD0B3091DE0B90
:106B20004091DF0B5091E00BD1016D917D918D91E2
:106B30009C910E9470600E94406023966CAF7DAF74
:106B40008EAF9FAF239769A77AA78BA79CA72091A9
:106B5000E10B3091E20B4091E30B5091E40BEBA978
:106B6000FCA960817181828193810E9470600E9482
:106B700040606B017C016DA77EA78FA798AB8091C9
:106B8000B2069091B306A091B406B091B506A301E8
:106B90009201281B390B4A0B5B0B2BAB3CAB4DAB6B
:106BA0005EAB8091B6069091B706A091B806B09101
:106BB000B906881A990AAA0ABB0A8091BA06909166
:106BC000BB06A091BC06B091BD0623962CAD3DAD91
:106BD0004EAD5FAD2397281B390B4A0B5B0B2396F9
:106BE0002CAF3DAF4EAF5FAF23978091980683FFE8
:106BF00008C0C092BE06D092BF06E092C006F092D6
:106C0000C1068091BE069091BF06A091C006B091CA
:106C1000C10626013701481A590A6A0A7B0A09F493
:106C200097C034E0139FF0011124E351F24F2091FB
:106C30000A0230910B0240910C0250910D026081CA
:106C40007181828193810E949B5D87FF2CC0C092DD
:106C5000BE06D092BF06E092C006F092C106EFE2F7
:106C6000F7E08491882341F09091C00095FFFCCF1C
:106C70008093C6003196F5CFE9E7F9E08491882347
:106C800041F09091C00095FFFCCF8093C6003196F3
:106C9000F5CF8091C00085FFFCCF8AE08093C600CD
:106CA000412C512C3201C301B20177FE07C0662787
:106CB0007727CB0164197509860997090E943D5E03
:106CC0006B017C0120E030E048EC53E46091E10B83
:106CD0007091E20B8091E30B9091E40B0E94706045
:106CE0009B01AC01C701B6010E949E5F181684F596
:106CF0008DA59EA5AFA5B8A98093BE069093BF06AB
:106D0000A093C006B093C106EFE2F7E08491882318
:106D100041F09091C00095FFFCCF8093C600319662
:106D2000F5CFEBE5F9E08491882341F09091C00024
:106D300095FFFCCF8093C6003196F5CF8091C000BF
:106D400085FFFCCF8AE08093C600412C512C320194
:106D50008091C3064DE4849F10011124C1018C531E
:106D6000994F1C01FC01E45BFF4F10822BA93CA949
:106D70004DA95EA92FAB38AF49AF5AAF57FF0BC033
:106D800050954095309521953F4F4F4F5F4F2FAB1A
:106D900038AF49AF5AAF8FA998ADA9ADBAADF101DF
:106DA00080839183A283B3838BAE9CAEADAEBEAE27
:106DB000B7FE0BC022273327A901281939094A0930
:106DC0005B092BAF3CAF4DAF5EAF8BAD9CADADADB6
:106DD000BEADF10184839583A683B7832396CCACA3
:106DE000DDACEEACFFAC2397F7FE08C0F094E09466
:106DF000D094C094C11CD11CE11CF11CD101189687
:106E0000CD92DD92ED92FC921B97E12FF0E02D9652
:106E1000FFAFEEAF2D97C301B20177FE07C0662723
:106E20007727CB0164197509860997090E943D5E91
:106E30002D962EAD3FAD2D97220F331F220F331FFE
:106E400069963FAF2EAF6997F901EA5DFD4F20814A
:106E50003181428153810E9470600E940A5E9B01D1
:106E6000AC012D96EEADFFAD2D97EE0FFF1FE25D4D
:106E7000FD4FA081B1810E94C76124E630E040E06F
:106E800050E00E948661D1011C962D933D934D9355
:106E90005C931F978BAD9CADADADBEADC816D9064A
:106EA000EA06FB0614F46C017D01C216D306E40663
:106EB000F50614F469017A018FA998ADA9ADBAADB0
:106EC0008C159D05AE05BF0514F4D701C601F1016F
:106ED000808B918BA28BB38B0697A105B10508F42B
:106EE000A5C7E85BFF4F8091AF049091B004AA273B
:106EF00097FDA095BA2F80839183A283B3838BA93A
:106F00009CA9ADA9BEA98827B7FD83959927AA2773
:106F1000BB27282FB7FC226023968CAD9DADAEAD6C
:106F2000BFAD2397B7FD246077FC2860D101909610
:106F30002C93909791961C932FA938AD49AD5AADDB
:106F4000232B242B252B09F05F98F1018481958157
:106F5000A681B781892B8A2B8B2B09F08A98F101A6
:106F600080859185A285B385892B8A2B8B2B41F057
:106F70009FB7F894809108018E7F809308019FBF8E
:106F8000F10184859585A685B785892B8A2B8B2B66
:106F900069F080919D06882319F0815080939D06A9
:106FA000111104C0129880E280939D06D1011C96B5
:106FB0002D913D914D915C911F9763962CAF3DAF04
:106FC0004EAF5FAF6397232B242B252B61F1B0913C
:106FD000C10BBFABE091C20BEBAF0091C30B1091A3
:106FE000C40B2B2F3E2FA80124966FAD2497289613
:106FF0007FAD28976C968FAD6C9764969FAD649724
:107000000E949B5D87FD1CC02496FFAD2497FFABBB
:1070100028962FAD28972BAF6C960FAD6C97649682
:107020001FAD64970DC03091A50B3FAB4091A60BEF
:107030004BAF0091A70B1091A80B232F342FD3CF68
:107040006BA97CA98DA99EA90E943D5E2091D50BBC
:107050003091D60B4091D70B5091D80B0E94A25D76
:107060006BAB7CAB8DAB9EAB698B7A8B8B8B9C8B2C
:10707000C501B4010E943D5E2091D90B3091DA0B1D
:107080004091DB0B5091DC0B0E94A25D4B015C0137
:107090006D8B7E8B8F8B988F23966CAD7DAD8EAD77
:1070A0009FAD23970E943D5E2091DD0B3091DE0B5A
:1070B0004091DF0B5091E00B0E94A25D6B017C01BF
:1070C000698F7A8F8B8F9C8FC301B2010E943D5EC6
:1070D0002091E10B3091E20B4091E30B5091E40BD6
:1070E0000E94A25D6996EEADFFAD6997EA5DFD4F26
:1070F00020813181428153810E9470602B013C01CB
:107100002D96EEADFFAD2D97EE0FFF1FE25DFD4F0B
:1071100060817181882777FD8095982F0E943D5E60
:107120009B01AC01C301B2010E94706020E030E01D
:1071300048EC52E40E94A25D6D8F7E8F8F8F98A3E2
:10714000D1012D913D914D915C9113972F962CAFCC
:107150003DAF4EAF5FAF2F9726303105410551054A
:1071600004F514964D905D906D907C901797B6E065
:107170004B16510461047104A4F4F101408451845C
:1071800062847384F6E04F165104610471044CF478
:10719000DC01CB01BF77F10186A797A7A0ABB1AB0C
:1071A00027C06BA97CA98DA99EA90E941B612B01F8
:1071B0003C01C501B4010E941B619B01AC01C301EC
:1071C000B2010E94C25C4B015C01C701B6010E9482
:1071D0001B619B01AC01C501B4010E94C25C0E940D
:1071E000DD60D1019E966D937D938D939C93D19795
:1071F000D1019E962D913D914D915C91D1976F96C5
:107200002CAF3DAF4EAF5FAF6F9760E070E080E8AE
:107210009FE30E94A25D9B01AC016FA97BADC801F9
:107220000E9470606B017C011091C3068091C206C0
:10723000181B1F70E12FF0E0AA96FFAFEEAFAA97E0
:10724000A701960160E074E284E799E40E94A25DE0
:107250000E9440604B015C01AA968EAD9FADAA973B
:107260000297069798F58091F50B9091F60BA091F7
:10727000F70BB091F80B88169906AA06BB0630F5F5
:10728000BC01CD01681979098A099B09660F771F2E
:10729000881F991F212F30E040E050E00E94646178
:1072A000CA01B9010E943B5E0E944060680D791DD1
:1072B0008A1D9B1D0E943B5E9B01AC0160E074E255
:1072C00084E799E40E94A25D6B017C01A70196010D
:1072D0006F966CAD7DAD8EAD9FAD6F970E94706067
:1072E00027966CAF7DAF8EAF9FAF2797D101929657
:1072F0006D937D938D939C93959750964D905D9053
:107300006D907C905397C301B2010E943B5E2B9617
:107310006CAF7DAF8EAF9FAF2B97A70196010E94F8
:1073200070600E94885D0E940F5E67966CAF7DAFB3
:107330008EAF9FAF6797F10160AF71AF82AF93AF30
:107340008E010F5E1F4F25EE3BE0A6963FAF2EAF9E
:10735000A697AE014F5D5F4F5AAB49ABCE01019688
:10736000A2969FAF8EAFA2971FAE1BAA90E89FABCD
:10737000AFE3ABAFF80161917191819191918F0170
:10738000A70196010E947060A296AEADBFADA29714
:107390006D937D938D939D93A296BFAFAEAFA29751
:1073A0009B01AC015F776B962CAF3DAF4EAF5FAFEB
:1073B0006B97A696AEADBFADA6978D909D90AD9004
:1073C000BD90A696BFAFAEAFA697A50194016B96F0
:1073D0006CAD7DAD8EAD9FAD6B970E949E5F181614
:1073E000F4F46B962CAD3DAD4EAD5FAD6B97C50122
:1073F000B4010E94A25DB62EA72E982E892E262FAC
:10740000372F482F592F6FAD7BA98FA99BAD0E94B5
:107410009B5D87FD04C0BFAEABAA9FAA8BAEE9A956
:10742000FAA90E171F0709F0A5CF20E030E040E8C9
:107430005FE36FAD7BA98FA99BAD0E949B5D87FF2A
:1074400043C07E01F1E1EF0EF11C8E010F5F1F4F73
:107450002FAD3BA94FA95BADD8016D917D918D9169
:107460009C910E947060F801619371938193919354
:107470008F01EE15FF0561F72FAD3BA94FA95BAD5D
:1074800027966CAD7DAD8EAD9FAD27970E94706045
:10749000D10192966D937D938D939C93959767966A
:1074A0006CAD7DAD8EAD9FAD67970E943B5E2FADFD
:1074B0003BA94FA95BAD0E9470600E940F5EF10175
:1074C00060AF71AF82AF93AF6F962CAD3DAD4EAD57
:1074D0005FAD6F972B966CAD7DAD8EAD9FAD2B974D
:1074E0000E94A25D4B015C01D10114962D913D914A
:1074F0004D915C91179723962CAF3DAF4EAF5FAF88
:10750000239718962D913D914D915C911B972BAB34
:107510003CAB4DAB5EAB2F962CAD3DAD4EAD5FADF4
:107520002F97232B242B252B21F523968CAD9DAD56
:10753000AEADBFAD2397892B8A2B8B2BD1F42BA912
:107540003CA94DA95EA9232B242B252B91F4209136
:10755000B90B3091BA0B4091BB0B5091BC0BC501DC
:10756000B4010E9470600E94885D81010C5B1F4F16
:107570001BC081010C5B1F4F63962CAD3DAD4EAD22
:107580005FAD6397232B242B252BB9F42091B50BEA
:107590003091B60B4091B70B5091B80BC501B401B7
:1075A0000E9470600E94885D0E940F5ED8016D93FA
:1075B0007D938D939C93139715C02091BD0B3091B3
:1075C000BE0B4091BF0B5091C00BC501B4010E948E
:1075D00070600E94885D0E940F5EF8016083718375
:1075E00082839383F101EC5BFF4FC080D180E28006
:1075F000F3802091950B3091960B4091970B509111
:10760000980B2FAB38AF49AF5AAF8091990B90913F
:107610009A0BA0919B0BB0919C0B8BAF9CAFADAF25
:10762000BEAF20919D0B30919E0B40919F0B5091CE
:10763000A00B27962CAF3DAF4EAF5FAF2797809141
:10764000A10B9091A20BA091A30BB091A40B2B9630
:107650008CAF9DAFAEAFBFAF2B972F962CAD3DAD8E
:107660004EAD5FAD2F97C701B6010E943661A301F1
:1076700092010E9464618FA998ADA9ADBAAD82173D
:107680009307A407B50780F49C01AD01C301B201C3
:107690000E9436612F962CAD3DAD4EAD5FAD2F975C
:1076A0000E94646169017A01A701960123966CAD7D
:1076B0007DAD8EAD9FAD23970E943661A3019201EF
:1076C0000E9464618BAD9CADADADBEAD82179307DA
:1076D000A407B50780F49C01AD01C301B2010E946B
:1076E000366123962CAD3DAD4EAD5FAD23970E9424
:1076F000646169017A01A70196016BA97CA98DA932
:107700009EA90E943661A30192010E94646127969E
:107710008CAD9DADAEADBFAD279782179307A40783
:10772000B50770F49C01AD01C301B2010E9436613E
:107730002BA93CA94DA95EA90E94646169017A0147
:10774000A701960163966CAD7DAD8EAD9FAD63973D
:107750000E943661A30192010E9464612B968CAD58
:107760009DADAEADBFAD2B9782179307A407B507AC
:1077700080F49C01AD01C301B2010E9436616396A1
:107780002CAD3DAD4EAD5FAD63970E946461690164
:107790007A01F101EC5BFF4FC082D182E282F38279
:1077A000C701B6010E943B5E6B017C01A5019401FB
:1077B0000E94A25DE5966CAF7DAF8EAF9FAFE5975F
:1077C000D101D2966D937D938D939C93D59720E0B4
:1077D00030E040E85BE4C701B6010E94706020E041
:1077E00034E244EF59E40E94A25D0E940A5EF10176
:1077F000648F758F868F978F2091B10B3091B20B6C
:107800004091B30B5091B40B67962CAF3DAF4EAF88
:107810005FAF679720E030E040E05FE367966CADD4
:107820007DAD8EAD9FAD67970E9470606FAF7BABF3
:107830008FAB9BAF8091AD0B9091AE0BA091AF0B36
:10784000B091B00B6B968CAF9DAFAEAFBFAF6B97E7
:1078500020E030E040E05FE3BC01CD010E947060B9
:10786000F62EE72ED82EC92E2091A90B3091AA0B07
:107870004091AB0B5091AC0BA4962CAF3DAF4EAFEB
:107880005FAFA49720E030E040E05FE3A4966CADEA
:107890007DAD8EAD9FADA4970E947060162F072F0F
:1078A000B82EA92E89859A85AB85BC85A8968CAF04
:1078B0009DAFAEAFBFAFA8972D853E854F85588948
:1078C000AE962CAF3DAF4EAF5FAFAE97BC01CD01D2
:1078D0009F772F2D3E2D4D2D5C2D0E949E5F1816FB
:1078E00084F42F2D3E2D4D2D5C2D6FAD7BA98FA9DE
:1078F0009BAD0E949B5D87FD04C0FFAEEBAADFAA93
:10790000CBAE212F302F4B2D5A2DAE966CAD7DADC9
:107910008EAD9FADAE979F770E949E5F181684F440
:10792000212F302F4B2D5A2D6FAD7BA98FA99BADE9
:107930000E949B5D87FD04C01FAF0BABBFAAABAE1F
:10794000D1019296BC916096BFAF6097F101F3A10F
:107950002C96FFAF2C97D1019496BC912496BFAF83
:107960002497F101F5A12896FFAF289760962FADD7
:1079700060972C963FAD2C974B2F5F2F6FAD7BA957
:107980008FA99BAD0E949B5D87FD10C060962FADB7
:1079900060972FAF2C963FAD2C973BAB24964FAD05
:1079A00024974FAB28965FAD28975BAFAA968EAD14
:1079B0009FADAA9702970CF424C190919E06A996B8
:1079C0009FAFA997A0919F06AF96AFAFAF97B09129
:1079D000A006E096BFAFE097E091A106E196EFAF79
:1079E000E19727E137EB41ED58E3692F7A2F8B2F91
:1079F0009E2F0E949E5F18160CF003C12091A206D4
:107A00003091A3064091A4065091A50669817A8120
:107A10008B819C810E94C15C2B013C012091A606B8
:107A20003091A7064091A8065091A9066D817E81EC
:107A30008F8198850E94C15C4B015C012091AA0650
:107A40003091AB064091AC065091AD06A8966CAD56
:107A50007DAD8EAD9FADA8970E94C15C6B017C018E
:107A6000E894F7F82091AE063091AF064091B00649
:107A70005091B106AE966CAD7DAD8EAD9FADAE971B
:107A80000E94C15C9B01AC015F77E9962CAF3DAFD2
:107A90004EAF5FAFE997A3019201C301B2010E940B
:107AA00070602B013C01A5019401C501B4010E9445
:107AB00070609B01AC01C301B2010E94C25C0E94D4
:107AC000DD604B015C0167962CAD3DAD4EAD5FAD09
:107AD00067970E949E5F18166CF4A5019401679643
:107AE0006CAD7DAD8EAD9FAD67970E94A25D5B01D1
:107AF0008C0104C0A12CB12C00E81FE36B962CADC7
:107B00003DAD4EAD5FAD6B97C701B6010E949E5F64
:107B10001816E4F4A70196016B966CAD7DAD8EADA1
:107B20009FAD6B970E94A25DF62EE72ED82EC92E30
:107B3000262F372F482F592FB501C8010E949B5D72
:107B400087FD04C0AF2CBE2C0D2D1C2DA4962CAD92
:107B50003DAD4EAD5FADA497E9966CAD7DAD8EADFC
:107B60009FADE9970E949E5F1816D4F4E9962CAD5C
:107B70003DAD4EAD5FADE997A4966CAD7DAD8EADDC
:107B80009FADA4970E94A25D6B017C019B01AC019B
:107B9000B501C8010E949B5D87FD02C056018701A7
:107BA0009501A80160966FAD60972C967FAD2C97DC
:107BB00024968FAD249728969FAD28970E947060D9
:107BC0007B018C019B01AC01A9966FADA997AF9683
:107BD0007FADAF97E0968FADE097E1969FADE197CF
:107BE0000E949B5D87FF11C0A996EFACA997AF9645
:107BF000FFACAF97E0960FADE097E1961FADE19730
:107C000004C0EFACFBA80FA91BADC701D801F1015F
:107C100082A793A7A4A7B5A7E5966CAD7DAD8EAD61
:107C20009FADE59790589B01AC010E94C25C6F9696
:107C30002CAD3DAD4EAD5FAD6F970E9470609B0166
:107C4000AC016BE077ED83E29BE30E94C15C0E9494
:107C5000DD605B016C019B01AC01B701C8010E94B2
:107C60009B5D87FF02C0902E03C075019C2C1D2DCB
:107C7000C701A92DB12FF10186A397A3A0A7B1A792
:107C800001E09501A60160966FAD60972C967FADDF
:107C90002C9724968FAD249728969FAD28970E9405
:107CA0009B5D18160CF400E0D101D7960C93D79782
:107CB00081E0D6968C9389819A81AB81BC81809337
:107CC000A2069093A306A093A406B093A5068D8167
:107CD0009E81AF81B8858093A6069093A706A09356
:107CE000A806B093A906A8962CAD3DAD4EAD5FADEC
:107CF000A8972093AA063093AB064093AC06509306
:107D0000AD06AE968CAD9DADAEADBFADAE978093DA
:107D1000AE069093AF06A093B006B093B1066096FE
:107D20008FAD60972C969FAD2C972496AFAD24977E
:107D30002896BFAD289780939E0690939F06A093A8
:107D4000A006B093A1069C01AD016FAD7BA98FA9E0
:107D50009BAD0E94A25D2B013C0160962FAD609708
:107D60002C963FAD2C9724964FAD249728965FAD67
:107D70002897B701892D912F0E94A25DAB01BC010C
:107D800093018201C1010E94F22FA0969FADA0979E
:107D90009093C30689A19AA1ABA1BCA18093B2061E
:107DA0009093B306A093B406B093B5068DA19EA19F
:107DB000AFA1B8A58093B6069093B706A093B80676
:107DC000B093B90689A59AA5ABA5BCA58093BA06C0
:107DD0009093BB06A093BC06B093BD068DA59EA54F
:107DE000AFA5B8A98093BE069093BF06A093C00626
:107DF000B093C1060E94A433C858DF4F0FB6F89461
:107E0000DEBF0FBECDBFDF91CF911F910F91FF90CD
:107E1000EF90DF90CF90BF90AF909F908F907F902A
:107E20006F905F904F903F902F9060C5C858DF4F84
:107E30000FB6F894DEBF0FBECDBFDF91CF911F917B
:107E40000F91FF90EF90DF90CF90BF90AF909F90F9
:107E50008F907F906F905F904F903F902F900895FC
:107E6000CF92DF92EF92FF920F931F93CF93DF9306
:107E7000CDB7DEB760970FB6F894DEBF0FBECDBFAB
:107E80006B017A0189012091D50B3091D60B40917D
:107E9000D70B5091D80BFC01608171818281938155
:107EA0000E9470600E9440606093B2067093B306B7
:107EB0008093B4069093B5066D877E878F87988BE5
:107EC0002091D90B3091DA0B4091DB0B5091DC0BF8
:107ED000F60160817181828193810E9470600E94AD
:107EE00040606093B6067093B7068093B80690938F
:107EF000B90669877A878B879C872091DD0B309143
:107F0000DE0B4091DF0B5091E00BF7016081718136
:107F1000828193810E9470600E9440606093BA06E3
:107F20007093BB068093BC069093BD066D837E83E1
:107F30008F8398872091E10B3091E20B4091E30B06
:107F40005091E40BF80160817181828193810E94DC
:107F500070600E9440606093BE067093BF0680937D
:107F6000C0069093C10669837A838B839C839E01AC
:107F70002F5F3F4FAE014B5F5F4FBE01675F7F4F8B
:107F8000CE010D960E94374B10929E0610929F06CE
:107F90001092A0061092A1061092A2061092A306BB
:107FA0001092A4061092A5061092A6061092A7069B
:107FB0001092A8061092A9061092AA061092AB067B
:107FC0001092AC061092AD061092AE061092AF065B
:107FD0001092B0061092B10660960FB6F894DEBF0C
:107FE0000FBECDBFDF91CF911F910F91FF90EF900A
:107FF000DF90CF9008952091E10B3091E20B4091FA
:10800000E30B5091E40BFC016081718182819381CB
:108010000E9470600E9440606093BE067093BF062D
:108020008093C0069093C1068EEB96E00C94734B40
:10803000CF92DF92EF92FF920F931F93CF93DF9334
:1080400000D01F92CDB7DEB7B5ECCB2EBBE0DB2E58
:1080500015EDE12E1BE0F12E05E91BE0F601619123
:108060007191819191916F01F7012191319141912C
:1080700051917F0129833A834B835C830E943B5E4D
:1080800029813A814B815C810E9470600E940F5E61
:10809000F80161937193819391938F01F5EDCF1660
:1080A000FBE0DF06D9F60F900F900F900F90DF9155
:1080B000CF911F910F91FF90EF90DF90CF90089597
:1080C000CF92DF92EF92FF920F931F93CF93DF93A4
:1080D0006C018B017A01EC01C650D44F888187FF77
:1080E00004C0FB011182108223C02CE02C9DC00132
:1080F0002D9D900D11242881AC01420F511D27FDAB
:108100005A952091F90B30E0421753078CF42881DF
:10811000AC01420F511D27FD5A959A01FA01EE0F4D
:10812000FF1FE20FF31FE350F44F208126FD19C01B
:1081300088818F5F88838CE08C9D90018D9D300DB0
:1081400011248881A901480F511D87FD5A958091FE
:10815000F90B90E048175907B4F488818C303CF152
:1081600012C02881820F911D27FD9A95FC01EE0F08
:10817000FF1FE80FF91FE350F44F808160E08F7319
:108180000E942559D5CFF8018081918104968034D1
:108190009C4918F480E49CE904C0F8018081918135
:1081A0000496F701918380838FEF888341C0F801A3
:1081B000808191814881B901640F711D47FD7A95D5
:1081C000AB01FB01EE0FFF1FE40FF51FE350F44F6F
:1081D00041815281840F951FF701918380838881AB
:1081E000A901480F511D87FD5A95FA01EE0FFF1F97
:1081F000E40FF51FE350F44F808186FF19C088819A
:10820000280F311D87FD3A95F901EE0FFF1FE20F90
:10821000F31FE350F44F808161E08F73DF91CF91C2
:108220001F910F91FF90EF90DF90CF900C94255904
:10823000DF91CF911F910F91FF90EF90DF90CF9042
:1082400008951F920F920FB60F9211240BB60F9242
:108250002F933F934F935F936F937F938F939F934E
:10826000AF93BF93EF93FF9348E950E064E970E068
:1082700080E090E025DFFF91EF91BF91AF919F915A
:108280008F917F916F915F914F913F912F910F90BF
:108290000BBE0F900FBE0F901F9018951F920F925C
:1082A0000FB60F9211240BB60F922F933F934F935B
:1082B0005F936F937F938F939F93AF93BF93EF934E
:1082C000FF9348EA50E064EA70E081E090E0F8DE75
:1082D000FF91EF91BF91AF919F918F917F916F919E
:1082E0005F914F913F912F910F900BBE0F900FBE5A
:1082F0000F901F9018951F920F920FB60F92112496
:108300000BB60F922F933F934F935F936F937F938F
:108310008F939F93AF93BF93EF93FF9348E251E006
:1083200064E271E082E090E0CBDEFF91EF91BF91DB
:10833000AF919F918F917F916F915F914F913F91FD
:108340002F910F900BBE0F900FBE0F901F9018959E
:108350002091F90B2432A0F431E0320F3093F90B65
:10836000FC012083822F90E0FC01EE0FFF1FE80F3D
:10837000F91FE350F44F88EB9BE0928381830895CB
:108380002FEFFC0120830895EF92FF920F931F932C
:10839000CF93DF93EC017A0189018881843208F060
:1083A0006FC090E01616170664F4FC01EE0FFF1F75
:1083B000E80FF91FE350F44F6F732081207C262BC8
:1083C0002083FC01EE0FFF1FE80FF91FE350F44F6D
:1083D000808161E08F730E94EC5860E272E06E1958
:1083E0007F0977FF02C06D5F7F4F75956795759523
:1083F0006795698340E659E0401B510B57FF02C067
:108400004D5F5F4F55954795559547954A838881B0
:108410006CE00E9445619CE0899FB001112420E03E
:1084200030E0A901460F571FFA01EE0FFF1FE40FBE
:10843000F51FE350F44F908196FD14C02F5F3F4F1E
:108440002C30310571F790E00097E1F41092900024
:1084500082E080939100109295001092940088BB66
:10846000809371008881282F30E0F901EE0FFF1F03
:10847000E20FF31FE350F44F90819064908321C08A
:108480008FEF1FC08130910569F41092A00082E047
:108490008093A1001092A5001092A40089BB809344
:1084A0007200E0CF0297F1F61092200182E08093F3
:1084B000210110922501109224018ABB8093730040
:1084C000D1CFDF91CF911F910F91FF90EF90089541
:1084D00020E639E040E252E057CFFC0140814432CF
:1084E00080F5818128E830E0281B310987FD33952C
:1084F000220F331F220F331F6217730714F4C901B1
:108500000FC0228188E592E0821B910927FD939597
:10851000880F991F880F991F681779070CF4CB01F2
:1085200002975FB7F894242F30E0F901EE0FFF1F98
:10853000E20FF31FE350F44F880F991F928381835A
:108540005FBF08954F925F92AF92BF92CF92DF923A
:10855000EF92FF920F931F93CF93DF93EC012B01C8
:10856000603282E078070CF044C08A8148E552E02E
:10857000481B510987FD5395440F551F440F551F44
:108580008A01222717FD2095322F898148E850E083
:10859000481B510987FD5395440F551F440F551F24
:1085A0005A01CC24B7FCC094DC2C77FD0CC0CB0165
:1085B000653B710514F084EB90E0BC01882777FDE2
:1085C0008095982F03C060E070E0CB013F932F931C
:1085D0001F930F9314EBE12EF12C00E010E020E04C
:1085E00030E0A9010E946E5C2B010F900F900F905C
:1085F0000F90B201CE01DF91CF911F910F91FF90AB
:10860000EF90DF90CF90BF90AF905F904F9065CF8D
:10861000809348020895809348028093790C0895CE
:1086200010927B0C089580917B0C882309F48DC0F7
:10863000EFE2F7E08491882341F09091C00095FF2C
:10864000FCCF8093C6003196F5CFEFE9F9E0849135
:10865000882341F09091C00095FFFCCF8093C60025
:108660003196F5CF80917B0C80FD1EC080917B0CF4
:1086700084FD1AC080917B0C81FD31C080917B0C00
:1086800085FD2DC080917B0C82FD44C080917B0CC8
:1086900086FD40C08091C00085FFFCCF8AE08093BA
:1086A000C60010927B0C089560917C0C70917D0C3B
:1086B00080917E0C90917F0C0E943D5E2091D50BA5
:1086C0003091D60B4091D70B5091D80B0E94A25DF0
:1086D000AB01BC018BE999E00E94F60CCBCF609115
:1086E000800C7091810C8091820C9091830C0E947F
:1086F0003D5E2091D90B3091DA0B4091DB0B50910C
:10870000DC0B0E94A25DAB01BC0187E999E00E94ED
:10871000F60CB8CF6091840C7091850C8091860C1A
:108720009091870C0E943D5E2091DD0B3091DE0B15
:108730004091DF0B5091E00B0E94A25DAB01BC01A8
:1087400083E999E00E94F60CA5CF08955091AC0CF6
:1087500050FF3BC04CB145FB882780F990E0482F83
:10876000892BA1F180917A0C80FF30C0E091AD0C93
:10877000F091AE0C80819181A281B3811816190607
:108780001A061B061CF58091690C90916A0CA09149
:108790006B0CB0916C0C80937C0C90937D0CA0932F
:1087A0007E0CB0937F0C80917B0C816080937B0C5E
:1087B00080899189A289B3898093960C9093970CB4
:1087C000A093980CB093990C01C040E051FF45C0B4
:1087D000E0B1842F90E0E4FB662760F970E07195CA
:1087E000619571096827792762707727682779274B
:1087F000462F61FF32C080917A0C81FF2EC0E0913C
:10880000AD0CF091AE0C84819581A681B7811816CC
:1088100019061A061B060CF580916D0C90916E0CD2
:10882000A0916F0CB091700C8093800C9093810C90
:10883000A093820CB093830C80917B0C8260809318
:108840007B0C80899189A289B3898093960C90933F
:10885000970CA093980CB093990C52FF44C080B130
:1088600050E082FB222720F930E031952195310933
:10887000242735272470332724273527422F22FF2A
:1088800032C080917A0C82FF2EC0E091AD0CF09145
:10889000AE0C80859185A285B385181619061A0637
:1088A0001B060CF58091710C9091720CA091730CC9
:1088B000B091740C8093840C9093850CA093860CDB
:1088C000B093870C80917B0C846080937B0C8089B3
:1088D0009189A289B3898093960C9093970CA09369
:1088E000980CB093990C40937A0C0895EFE6F0E061
:1088F00080818260808308958091AC0C80FF03C0EA
:10890000899A8FEF02C0899881E080934402809118
:10891000AC0C81FF03C08F9A8FEF02C08F9881E06B
:10892000809345028091AC0C9FB782FF09C0F894F8
:1089300080910B018D7F80930B019FBF8FEF08C04B
:10894000F89480910B01826080930B019FBF81E0BE
:10895000809346028091AC0C83FF03C016988FEF82
:1089600002C0169A81E08093470208951F920F92E9
:108970000FB60F9211240BB60F920F931F932F93E4
:108980003F934F935F936F937F938F939F93AF9397
:10899000BF93EF93FF938091AA0C9091AB0C00973B
:1089A000E1F01092AE0C1092AD0C3091C306209104
:1089B000C206321731F02091C2062F5F2F7020932C
:1089C000C20601979093AB0C8093AA0C88EC90E0C0
:1089D0009093890080938800B3C58091AD0C9091ED
:1089E000AE0C892B09F09BC19091C3068091C20601
:1089F000981771F0E091C2068DE4E89FF001112410
:108A0000EC53F94FDF01A45BBF4F81E08C9302C0B0
:108A1000E0E0F0E0F093AE0CE093AD0C309709F499
:108A200078C1DF01A45BBF4F81E08C9350A180919E
:108A3000AC0C41A158130AC0242F30E080914302AE
:108A4000992787FD90952817390729F05093AC0C8A
:108A50004093430251DF10928E0C10928F0C1092B3
:108A6000900C1092910CE091AD0CF091AE0C60ADB9
:108A700071AD61348CE9780728F461328EE47807AF
:108A800048F002C060E47CE9769567957695679535
:108A900084E007C0613187E2780730F0769567950A
:108AA00082E080938B0C08C081E080938B0C603255
:108AB000710510F460E270E060527109611588E0A0
:108AC0007807D0F0872F9927880F991F880F991F53
:108AD0008255924FFC01329645915491AA27659F89
:108AE0009001649F210D3A1F06942A1F3A1F1124FA
:108AF000FC01859194911DC0CB01969587958C7F43
:108B00008255964FFC01459154910296FC01859146
:108B10009491FB01E770FF278E9F90018F9F300D8E
:108B20009E9F300D1124E3E036952795EA95E1F7F5
:108B3000CA01821B930B84369105A0F4EEE3F3E0A7
:108B40008191882339F09091C00095FFFCCF8093EC
:108B5000C600F6CF4AE050E08EE993E00E94F80BA1
:108B600084E690E09093890C8093880C80918B0C24
:108B700080938A0CE091AD0CF091AE0C64AD75ADB4
:108B800070938D0C60938C0C61348CE9780728F419
:108B900061328EE4780748F002C060E47CE97695A3
:108BA00067957695679584E007C0613187E278071D
:108BB00030F07695679582E080938B0C08C081E059
:108BC00080938B0C6032710510F460E270E06052AB
:108BD0007109611588E07807E0F0872F9927880FE1
:108BE000991F880F991F8255924FFC01329625914B
:108BF0003491AA27639FA001629F410D5A1F0694DA
:108C00004A1F5A1F1124FC0125913491241B350B56
:108C10001EC0CB01969587958C7F8255964FFC019F
:108C2000259134910296FC0145915491FB01E77026
:108C3000FF274E9FC0014F9F900D5E9F900D112406
:108C4000F3E096958795FA95E1F7281B390B2436C2
:108C50003105A0F4EEE3F3E08191882339F090919F
:108C6000C00095FFFCCF8093C600F6CF4AE050E0ED
:108C70008EE993E00E94F80B24E630E0C901A0E001
:108C8000B0E08093920C9093930CA093940CB093CB
:108C9000950C3093890020938800E091AD0CF09101
:108CA000AE0C80899189A289B389B695A7959795CD
:108CB0008795B095A095909581959F4FAF4FBF4FE9
:108CC0008093A60C9093A70CA093A80CB093A90C2A
:108CD00080939A0C90939B0CA0939C0CB0939D0C4A
:108CE00080939E0C90939F0CA093A00CB093A10C2A
:108CF0008093A20C9093A30CA093A40CB093A50C0A
:108D00001092960C1092970C1092980C1092990C4D
:108D100006C080ED97E09093890080938800809151
:108D2000AD0C9091AE0C892B09F40AC480914802D5
:108D300081110CDD20E080918B0C90E0422F5527B3
:108D400047FD5095481759070CF0CAC18091C000E3
:108D500087FF14C03091C6009FB7F894E0911F04BC
:108D600081E08E0F8F7740912004841731F0F0E07E
:108D7000E156FC4F308380931F049FBFE091AD0C00
:108D8000F091AE0C8091A60C9091A70CA091A80C2C
:108D9000B091A90C4081518162817381840F951F2C
:108DA000A61FB71F8093A60C9093A70CA093A80CA6
:108DB000B093A90C181619061A061B060CF4889A0B
:108DC000E091AD0CF091AE0C8091A20C9091A30CAF
:108DD000A091A40CB091A50C448155816681778146
:108DE000840F951FA61FB71F8093A20C9093A30C0E
:108DF000A093A40CB093A50C181619061A061B060E
:108E00000CF48E9AE091AD0CF091AE0C80919E0C1A
:108E100090919F0CA091A00CB091A10C4085518520
:108E200062857385840F951FA61FB71F80939E0CC4
:108E300090939F0CA093A00CB093A10C1816190648
:108E40001A061B0644F49FB7F89480910B018860C2
:108E500080930B019FBFE091AD0CF091AE0C80911F
:108E60009A0C90919B0CA0919C0CB0919D0C448508
:108E7000558566857785840F951FA61FB71F80933C
:108E80009A0C90939B0CA0939C0CB0939D0C18167D
:108E900019061A061B060CF4149A8091A60C9091E0
:108EA000A70CA091A80CB091A90C181619061A06C7
:108EB0001B0684F5E091AD0CF091AE0C4089518910
:108EC00062897389841B950BA60BB70B8093A60C44
:108ED0009093A70CA093A80CB093A90C40914402C6
:108EE0008091690C90916A0CA0916B0CB0916C0C04
:108EF000552747FD5095652F752F840F951FA61F89
:108F0000B71F8093690C90936A0CA0936B0CB0937D
:108F10006C0C88988091A20C9091A30CA091A40C49
:108F2000B091A50C181619061A061B0684F5E091D7
:108F3000AD0CF091AE0C4089518962897389841B14
:108F4000950BA60BB70B8093A20C9093A30CA09348
:108F5000A40CB093A50C4091450280916D0C9091AA
:108F60006E0CA0916F0CB091700C552747FD509579
:108F7000652F752F840F951FA61FB71F80936D0C4B
:108F800090936E0CA0936F0CB093700C8E988091A0
:108F90009E0C90919F0CA091A00CB091A10C181662
:108FA00019061A061B06BCF5E091AD0CF091AE0C4B
:108FB0004089518962897389841B950BA60BB70B75
:108FC00080939E0C90939F0CA093A00CB093A10C47
:108FD000409146028091710C9091720CA091730C9B
:108FE000B091740C552747FD5095652F752F840F50
:108FF000951FA61FB71F8093710C9093720CA093BE
:10900000730CB093740C9FB7F89480910B01877F19
:1090100080930B019FBF80919A0C90919B0CA09123
:109020009C0CB0919D0C181619061A061B0684F5A7
:10903000E091AD0CF091AE0C408951896289738941
:10904000841B950BA60BB70B80939A0C90939B0CEB
:10905000A0939C0CB0939D0C409147028091750C9D
:109060009091760CA091770CB091780C552747FD24
:109070005095652F752F840F951FA61FB71F8093DE
:10908000750C9093760CA093770CB093780C149891
:109090008091960C9091970CA091980CB091990C9E
:1090A0000196A11DB11D8093960C9093970CA093EF
:1090B000980CB093990C4091960C5091970C60913C
:1090C000980C7091990CE091AD0CF091AE0C8089E8
:1090D0009189A289B389481759076A077B07B0F0BD
:1090E0004091960C5091970C6091980C7091990C4E
:1090F000E091AD0CF091AE0C84899589A689B78971
:1091000084179507A607B70718F4DFC02F5F13CEA3
:109110004091920C5091930C6091940C7091950C2D
:10912000048D158D268D378DAA27419FB12D529F15
:10913000C001629F900D619F800D911D429FB00DF7
:10914000811D9A1F519FB00D811D9A1F609FB00D08
:10915000811D9A1F509FB10D8A1F9A1FB6958A1FB5
:109160009A1F349F800D911D359F900D112444ADA1
:1091700055AD480F591F50938D0C40938C0C80AD0A
:1091800091ADA2ADB3AD60E070E084179507A6077E
:10919000B70720F490938D0C80938C0C60918C0C0D
:1091A00070918D0C61348CE9780728F461328EE47B
:1091B000780748F002C060E47CE97695679576957B
:1091C000679584E007C0613187E2780730F07695D3
:1091D000679582E080938B0C08C081E080938B0CB4
:1091E0006032710510F460E270E06052710961153F
:1091F00088E07807E0F0872F9927880F991F880F5C
:10920000991F8255924FFC01329625913491AA27DD
:10921000639FA001629F410D5A1F06944A1F5A1F67
:109220001124FC0125913491241B350B1EC0CB0168
:10923000969587958C7F8255964FFC0125913491A8
:109240000296FC0145915491FB01E770FF274E9F68
:10925000C0014F9F900D5E9F900D112413E09695D5
:1092600087951A95E1F7281B390B24363105A0F4B0
:10927000EEE3F3E08191882339F09091C00095FFEF
:10928000FCCF8093C600F6CF4AE050E08EE993E031
:109290000E94F80B24E630E0309389002093880088
:1092A0008091920C9091930CA091940CB091950C9C
:1092B000820F931FA11DB11D8093920C9093930C6C
:1092C000A093940CB093950CFCC04091960C5091D7
:1092D000970C6091980C7091990C808D918DA28D56
:1092E000B38D84179507A607B70708F0DEC0409135
:1092F0008E0C50918F0C6091900C7091910C048D9C
:10930000158D268D378DAA27419FB12D529FC00103
:10931000629F900D619F800D911D429FB00D811D38
:109320009A1F519FB00D811D9A1F609FB00D811D26
:109330009A1F509FB10D8A1F9A1FB6958A1F9A1FB8
:10934000349F800D911D359F900D112420918C0C20
:1093500030918D0CE05CFF4F2817390780F0281BF7
:10936000390B80819181A281B381A90160E070E015
:10937000481759076A077B0720F49C0102C0208127
:10938000318121348CE9380728F421328EE4380702
:1093900048F002C020E43CE936952795369527959C
:1093A00084E007C0213187E2380730F036952795F1
:1093B00082E080938B0C08C081E080938B0C20327C
:1093C000310510F420E230E0B901605271096115F5
:1093D00088E07807E0F0872F9927880F991F880F7A
:1093E000991F8255924FFC01329625913491AA27FC
:1093F000639FA001629F410D5A1F06944A1F5A1F86
:109400001124FC0125913491241B350B1EC0CB0186
:10941000969587958C7F8255964FFC0125913491C6
:109420000296FC0145915491FB01E770FF274E9F86
:10943000C0014F9F900D5E9F900D112443E09695C3
:1094400087954A95E1F7281B390B24363105A0F49E
:10945000EEE3F3E08191882339F09091C00095FF0D
:10946000FCCF8093C600F6CF4AE050E08EE993E04F
:109470000E94F80B24E630E03093890020938800A6
:1094800080918E0C90918F0CA091900CB091910CCA
:10949000820F931FA11DB11D80938E0C90938F0C92
:1094A000A093900CB093910C0CC08091880C90917B
:1094B000890C909389008093880080918A0C809316
:1094C0008B0C2091880030918900809184009091CC
:1094D000850040962817390730F4809184009091D8
:1094E0008500409604C080918800909189009093F7
:1094F0008900809388004091960C5091970C609160
:10950000980C7091990CE091AD0CF091AE0C8089A3
:109510009189A289B389481759076A077B0780F0A8
:109520001092AE0C1092AD0C9091C3068091C206C1
:10953000981731F08091C2068F5F8F708093C206BA
:10954000FF91EF91BF91AF919F918F917F916F911B
:109550005F914F913F912F911F910F910F900BBEF3
:109560000F900FBE0F901F901895819A879AEAE08E
:10957000F1E08081826080830E9A3B9A579A5F9ACD
:10958000829A8A9AE7E0F1E08081816080839FB7C8
:10959000F894E8E0F1E08081816080839FBF0A9ABF
:1095A000129A3F9A479A6D98759A0C98149A0A984D
:1095B000129A809A88985F9A10927106869A8E986D
:1095C0008A9A10927206EAE0F1E0808188608083D6
:1095D0009FB7F894EBE0F1E08081877F80839FBFA5
:1095E0009FB7F894E8E0F1E08081816080839FBFBD
:1095F000109273060C9A1498129A399A4198A1E81D
:10960000B0E08C918F7E8C938C9188608C93E0E895
:10961000F0E080818D7F808380818E7F8083808158
:109620008F73808380818F7C80838C91887F826020
:109630008C9380E090E4909389008093880010924E
:10964000850010928400EFE6F0E0808182608083E4
:1096500081E08093480278944FC99091C30680912D
:10966000C206981719F00E941024F7CF0895CF93DF
:10967000DF93EFB7F894EC0188819981AA81BB81CF
:109680008093690C90936A0CA0936B0CB0936C0C54
:10969000EB0188819981AA81BB8180936D0C9093A5
:1096A0006E0CA0936F0CB093700CEA0188819981C5
:1096B000AA81BB818093710C9093720CA093730C60
:1096C000B093740CE90188819981AA81BB81809350
:1096D000750C9093760CA093770CB093780CEFBF39
:1096E000DF91CF9108952FB7F894FC01808191818B
:1096F000A281B3818093750C9093760CA093770C24
:10970000B093780C2FBF08952FB7F894880F991F46
:10971000880F991F8759934FFC0160817181828165
:1097200093812FBF089599DF0C94F82188E893E185
:109730009093AB0C8093AA0C80916F008D7F8093E7
:109740006F009091C3068091C206981769F09091BE
:10975000C3068091C2069817A1F38091C2068F5F5D
:109760008F708093C206EDCF1092AE0C1092AD0CAC
:1097700080916F00826080936F000895FC011182D8
:109780001082148215821682178210861186128624
:109790001386138212820895CF93DF93EC018881A0
:1097A0009981019741F4198218820E941E57688797
:1097B00079878A879B87DF91CF910895CF93DF9335
:1097C000EC0188819981019751F482E090E09983BE
:1097D00088830E941E57688779878A879B87DF91D5
:1097E000CF9108950F931F93CF93DF93EC0188815E
:1097F0009981019719F40E941E5704C068857985E4
:109800008A859B850C811D812E813F81601B710B98
:10981000820B930B28EE33E040E050E00E9464613D
:109820008A819B81820F931FDF91CF911F910F91AE
:109830000895CF93DF93EC01888199818130910560
:10984000D9F0029729F4CE01CDDF9B838A830AC029
:109850001C821D821E821F82188619861A861B860C
:109860001B821A8281E090E0998388830E941E57B0
:109870006C837D838E839F83DF91CF910895609168
:10988000FD0D7091FE0D882777FD8095982F0E9421
:109890003D5E20E030E04AEF5EE30E94706020E031
:1098A00030E040E85DE30E94706020E030E0A90114
:1098B0000E94C25C6093ED0D7093EE0D8093EF0DEE
:1098C0009093F00D1092E70D1092E80D1092E90DB3
:1098D0001092EA0DA8958FB7F8941092CD0D8FBF16
:1098E00008952091560230915702409158025091AC
:1098F000590260E070E08FE793E40E94A25D6093FC
:10990000DB0C7093DC0C8093DD0C9093DE0C1092DA
:10991000B10D1092B20D1092B30D1092B40D0895C6
:109920002F923F924F925F926F927F928F929F926F
:10993000AF92BF92CF92DF92EF92FF920F931F935D
:10994000CF93DF9300D000D0CDB7DEB78C01FC0100
:10995000EE0FFF1FE95FF14F208031809C01220F45
:10996000331F220F331F3E832D83F901E351F24F42
:1099700080809180A280B380B101882777FD809597
:10998000982F0E943D5EA50194010E94C15C6B016D
:109990007C01ED81FE81ED51F34F60837183828301
:1099A000938320ED3CEC4CE45DE3609152027091B6
:1099B000530280915402909155020E9470602B01D5
:1099C0003C018D819E818B53924F9A838983DC0168
:1099D0002D913D914D915C91C501B4010E94C15CF6
:1099E0009B01AC01C301B2010E9470602B013C01DC
:1099F000ED81FE81E754F24FFC83EB8323E333E3F5
:109A000043E75FE360817181828193810E9470608E
:109A10009B01AC01C301B2010E94C25C2B013C015D
:109A2000AB81BC816D937D938D939C931397E9815A
:109A3000FA8180829182A282B38220E030E040E20B
:109A400051E4C701B6010E949E5F98012652334F30
:109A50005901181624F481E0D9018C9361C120E0EA
:109A600030E040E251ECC701B6010E949B5D87FDEA
:109A700002C0232821F481E0F501808384C1D5014F
:109A80008C91882349F0ED81FE81E753F24F1082DB
:109A90001182128213821C9220915A0230915B0231
:109AA00040915C0250915D02C701B6010E94706056
:109AB0004B015C01ED81FE81EF53F24F60837183B6
:109AC00082839383ED81FE81E753F24F20813181C0
:109AD00042815381C701B6010E94C25CD62EE72E97
:109AE000F82EC92EED81FE81E152F34F30802180A6
:109AF000B281B98323812B83232D322D4B2F5B81A0
:109B00000E949B5D87FD16C0ED81FE81E552F34FFB
:109B1000308021803281398383818B83232D322DC4
:109B20004981582F6D2D7E2D8F2D9C2D0E949E5F7B
:109B300018161CF4F980CB8002C03D2C2E2C832DEE
:109B4000922DAF2DBC2DED81FE81E753F24F808326
:109B50009183A283B38320915602309157024091A2
:109B6000580250915902632D722D8F2D9C2D0E9409
:109B700070609B01AC01ED81FE81E354F24F608384
:109B8000718382839383C501B4010E94C25CA301E7
:109B900092010E94C15C6B017C01ED81FE81EB545E
:109BA000F24F10821182128213828091AE0490E0F3
:109BB0000817190709F087C083E090E0A5DDAD81A3
:109BC000BE81AF54B24F8D909D90AD90BC901397D5
:109BD0002091E70C3091E80C86169706A806B90686
:109BE000F4F4A9014F5F5F4F5093E80C4093E70CEA
:109BF000F901EE0FFF1FEE0FFF1FE751F34F8B012F
:109C00009C01081919092A093B0900831183228341
:109C100033836D937D938D939C93139711C0C901EA
:109C200001969093E80C8093E70CF901EE0FFF1F6B
:109C3000EE0FFF1FE751F34F108211821282138241
:109C40002091E70C3091E80C80910F029091100266
:109C50002817390724F01092E80C1092E70CE091D5
:109C6000E70CF091E80CEE0FFF1FEE0FFF1FE7511E
:109C7000F34F60817181828193810E943D5E2091CA
:109C8000E10B3091E20B4091E30B5091E40B0E9409
:109C9000A25D20914E0230914F02409150025091AE
:109CA00051020E9470609B01AC01ED81FE81EB547A
:109CB000F24F6083718382839383C701B6010E9450
:109CC000C25C6B017C0120E030E04FE753E4C70148
:109CD000B6010E949E5F181654F5ED81FE81ED518C
:109CE000F34FC080D180E280F38020E030E0A90112
:109CF000C701B6010E949E5F181694F40D811E8163
:109D00000753124FA7019601D8016D917D918D9156
:109D10009C910E94C15CF80160837183828393836C
:109D2000C12CD12C8FE7E82E83E4F82E2FC020E041
:109D300030E0A901C701B6010E949B5D87FF26C0E4
:109D4000ED81FE81ED51F34FC080D180E280F38040
:109D500020E030E0A901C701B6010E949B5D87FFAA
:109D600012C00D811E810753124FA7019601D80121
:109D70006D917D918D919C910E94C15CF8016083F1
:109D8000718382839383C12CD12C7601C701B601E4
:109D900026960FB6F894DEBF0FBECDBFDF91CF91F0
:109DA0001F910F91FF90EF90DF90CF90BF90AF90F9
:109DB0009F908F907F906F905F904F903F902F90EB
:109DC00008951092DF0C1092E00C1092E10C1092AA
:109DD000E20C209156023091570240915802509166
:109DE000590260E070E08FE793E40E94A25D609307
:109DF000DB0C7093DC0C8093DD0C9093DE0C1092E6
:109E0000B10D1092B20D1092B30D1092B40D249AB0
:109E1000E1E0F1E0808180648083808180628083E2
:109E200087ED80937A0010927E0010927D0080E88A
:109E300088BDEEE6F0E08081846080836AEF70E0A8
:109E400080E090E00C944D57CF92DF92EF92FF921A
:109E50000F931F93CF93DF938C01FC01FF27DF014A
:109E6000AA0FBB1FAA0FBB1FA351B24FCD90DD900D
:109E7000ED90FC90EE0FFF1FE95FF14F6081718163
:109E8000882777FD8095982F0E943D5E20E030E086
:109E900040EC50E40E94C15C9B01AC01C701B601DB
:109EA0000E949B5DE801CC0FDD1FCC0FDD1F87FFFB
:109EB0001DC0000F111F0D52134F20E030E040E095
:109EC00050E4C701B6010E94C25C0E940A5EF8011C
:109ED00071836083B3D7C153D34F605E714B8F4F93
:109EE0009F4F688379838A839B8306C0C153D34F76
:109EF000188219821A821B82DF91CF911F910F91D4
:109F0000FF90EF90DF90CF9008951092080E10927E
:109F1000070E80E090E098DF1092060E1092050E7A
:109F200082E994E039CCCF93DF93EA014091360285
:109F3000442309F448C0E5E3F7E04491442381F069
:109F40005091C00055FFFCCF4093C6003196F5CF2D
:109F50005091C00055FFFCCF4093C6006F5F7F4F0C
:109F6000FB0144914111F4CFE0EFF1E12491222370
:109F700041F03091C00035FFFCCF2093C6003196F0
:109F8000F5CF97FF03C0ECEEF1E113C04AE050E0DB
:109F9000BC018EE993E00E94BB0B8091C00085FF5D
:109FA000FCCF0EC09091C00095FFFCCF8093C600FF
:109FB000319684918111F6CF8091C00085FFFCCF4E
:109FC0008AE08093C6008091BA0C81110AC0109279
:109FD000360281E08093BA0CCE01DF91CF910C94D0
:109FE0000A22DF91CF9191CF2F923F924F925F92B1
:109FF0006F927F928F929F92AF92BF92CF92DF9299
:10A00000EF92FF920F931F93CF93DF93CDB7DEB7FD
:10A0100028970FB6F894DEBF0FBECDBF1C017A8320
:10A0200069832B833C834D835E8327013801B88687
:10A03000AF827401D7FE03C001E010E001C08601C9
:10A04000000F111F000F111FF801EE54F34F808015
:10A050009180A280B380A3019201C501B4010E9446
:10A060009B5D882319F0F10111821082F10180813A
:10A0700091818230910509F44AC02CF4009741F196
:10A08000019789F18FC08330910509F450C004977E
:10A0900009F088C04EEB51E16EEA71E1C6012896E5
:10A0A0000FB6F894DEBF0FBECDBFDF91CF911F91E9
:10A0B0000F91FF90EF90DF90CF90BF90AF909F9067
:10A0C0008F907F906F905F904F903F902F902BCF0D
:10A0D000E981FA81108211821282138281E090E07C
:10A0E000F1019183808320E030E0A901C301B20136
:10A0F0000E949E5F18160CF055C0F801EE54F34F05
:10A10000408251826282738282E090E00CC0A5019D
:10A1100094016B817C818D819E810E949E5F87FD71
:10A1200041C083E090E0F101918380833BC0B7019F
:10A13000882777FD8095982F0E943D5E9B01AC019A
:10A14000C501B4010E94C15C9B01AC016B817C81A3
:10A150008D819E810E949E5F87FD08C06FD6E98138
:10A16000FA8160837183828393831CC067D66B01FD
:10A170007C0128EE33E0AF81B8850E94B761E981A8
:10A18000FA810081118122813381600F711F821F4A
:10A19000931FC61AD70AE80AF90AF7FC03C084E03D
:10A1A00090E0C1CF28960FB6F894DEBF0FBECDBFAA
:10A1B000DF91CF911F910F91FF90EF90DF90CF90A3
:10A1C000BF90AF909F908F907F906F905F904F90D7
:10A1D0003F902F9008954F925F926F927F928F924F
:10A1E0009F92AF92BF92CF92DF92EF92FF920F9326
:10A1F0001F938091CD0D882309F4A6C040DB1ED6A5
:10A200002B013C016091070E7091080E882777FDA5
:10A210008095982F0E943D5E2091ED0D3091EE0DBE
:10A220004091EF0D5091F00DE4E08E2E912CF8E26C
:10A23000AF2EB12CC12CD12C7B018C016EEC7DE0BA
:10A240008EED9DE0D1DE80E090E06ADB4B015C01A9
:10A25000C090ED0DD090EE0DE090EF0DF090F00D70
:10A2600020E030E0A901C701B6010E949E5F1816E8
:10A27000CCF460914C0270914D02882777FD809557
:10A28000982F0E943D5E9B01AC01C701B6010E9460
:10A290009B5D87FF07C0C501B4010E940A5E7595EA
:10A2A000679501C060E06093D50C8091CF0C9091D0
:10A2B000D00CA091D10CB091D20C0097A105B105A2
:10A2C00029F1A3019201281B390B4A0B5B0B57FDA7
:10A2D0001DC06091D30C7091D40C882777FD8095B8
:10A2E000982F0E943D5E9B01AC01C701B6010E9400
:10A2F0009B5D87FD04C080E090E0A6DD07C04DEDCA
:10A3000051E16EEC71E180E090E00DDE8091D60CC1
:10A310009091D70CA091D80CB091D90CA3019201C7
:10A32000281B390B4A0B5B0B57FD0EC038E8430E58
:10A3300033E1531E611C711C4092D60C5092D70C15
:10A340006092D80C7092D90C1F910F91FF90EF90F2
:10A35000DF90CF90BF90AF909F908F907F906F9045
:10A360005F904F9008952F923F924F925F926F921D
:10A370007F928F929F92AF92BF92CF92DF92EF9295
:10A38000FF920F931F93CF93DF93CDB7DEB7AD97B7
:10A390000FB6F894DEBF0FBECDBF6D8B7E8B8F8B5B
:10A3A000988F7A013AA729A70BA748D5698F7A8F8A
:10A3B0008B8F9C8FEF2819F4E2E5F3E017C0E5E6F8
:10A3C000F3E08191882339F09091C00095FFFCCF94
:10A3D0008093C600F6CF8091C00085FFFCCF62C19C
:10A3E0009091C00095FFFCCF8093C60081918111B0
:10A3F000F7CF8091C00085FFFCCF8AE08093C60034
:10A4000084DD8FE78093D50C298D3A8D4B8D5C8D43
:10A4100029A33AA34BA35CA3198A30E43A8B4CE1FD
:10A420004B8B56E45C8B1D861E861F86188A812CFA
:10A43000912C54018D8E9E8EAF8EB8A27501640151
:10A44000FFE74F2E512C612C712C8FE790E0A0E09C
:10A45000B0E089839A83AB83BC831DA21EA21FA296
:10A4600018A691E09D8300E010E01CA61DA6312CEB
:10A47000212CE4D469877A878B879C878091CD0DC6
:10A48000882309F4BBC0FBD9A091ED0DACA7B09116
:10A49000EE0DBDA73090EF0D2090F00D9D01432DE6
:10A4A000522D6D857E858F8598890E949E5F181636
:10A4B00034F0ECA5ED87FDA5FE873F86288A2CA504
:10A4C0003DA5432D522D69897A898B899C890E94EB
:10A4D0009B5D87FD06C02CA5298B3DA53A8B3B8A49
:10A4E0002C8A4D81442309F443C02D893E894F892C
:10A4F000588D6CA57DA5832D922D0E949E5F181608
:10A500000CF07CC089859A85AB85BC8529A13AA1D0
:10A510004BA15CA1821B930BA40BB50BAC01BD013D
:10A52000485853416109710977FD68C049815A81D2
:10A530006B817C8144195509660977097595679582
:10A54000579547954093D50C8DA39EA3AFA3B8A76D
:10A550003D893D874E894E875F895F87888D888BCF
:10A5600029853A854B855C85298F3A8F4B8F5C8F87
:10A570002D893E894F89588D6CA57DA5832D922DFF
:10A580000E949B5D87FF07C389859A85AB85BC8543
:10A59000298D3A8D4B8D5C8D821B930BA40BB50BD3
:10A5A000AC01BD01485853416109710977FDF3C2FF
:10A5B0000115110509F031C189819A81AB81BC81F6
:10A5C000840D951DA61DB71DB595A79597958795E3
:10A5D0008093D50C0F5F1F4F9D89998BAE89AA8BF5
:10A5E000BF89BB8BE88DEC8B29853A854B855C85D3
:10A5F00029A33AA34BA35CA331E03D8320E030E0E4
:10A6000040EA51E46D897E898F89988D0E94C25CF1
:10A610009B01AC016CA57DA5832D922D0E949E5FB0
:10A62000181694F4E6ECF2E18491882341F09091BD
:10A63000C00095FFFCCF8093C6003196F5CF809186
:10A64000C00085FFFCCF2EC089859A85AB85BC856F
:10A65000880F991FAA1FBB1F29A13AA14BA15CA17A
:10A66000821B930BA40BB50B298D3A8D4B8D5C8D02
:10A67000821B930BA40BB50B81389F44A241B105FB
:10A68000A8F0E9EAF2E18491882341F09091C000BA
:10A6900095FFFCCF8093C6003196F5CF8091C00026
:10A6A00085FFFCCF8AE08093C60077C249A55AA5F2
:10A6B000401751070CF0DDCEEDE4F2E184918823E0
:10A6C00041F09091C00095FFFCCF8093C600319679
:10A6D000F5CF8091C00085FFFCCF8AE08093C60053
:10A6E000E8E3F2E18491882341F09091C00095FF66
:10A6F000FCCF8093C6003196F5CF22E030E0B70161
:10A70000A6018EE993E00E948D0C8091C00085FF28
:10A71000FCCF8AE08093C600E3E2F2E184918823D3
:10A7200041F09091C00095FFFCCF8093C600319618
:10A73000F5CF22E030E04D8D5E8D6F8D78A18EE9F2
:10A7400093E00E948D0C8091C00085FFFCCF8AE0D1
:10A750008093C600EEE0F2E18491882341F090916D
:10A76000C00095FFFCCF8093C6003196F5CF22E064
:10A7700030E0B501A4018EE993E00E948D0C809138
:10A78000C00085FFFCCF8AE08093C6005BA55523FF
:10A7900009F403C2C0925A02D0925B02E0925C02BA
:10A7A000F0925D022CE933E549E45EE36D8D7E8D28
:10A7B0008F8D98A10E94706060935602709357022B
:10A7C00080935802909359022CE933E549E45EE303
:10A7D000C501B4010E94A25D6093520270935302BE
:10A7E0008093540290935502AD960FB6F894DEBF55
:10A7F0000FBECDBFDF91CF911F910F91FF90EF90D2
:10A80000DF90CF90BF90AF909F908F907F906F9090
:10A810005F904F903F902F9064C82DA13EA14FA113
:10A8200058A5280F391F4A1F5B1F2D833E834F8376
:10A8300058872DA13EA14FA158A5281B390B4A0BC3
:10A840005B0BCA01B901A30192010E9436612D81FF
:10A850003E814F8158850E94866129013A01898194
:10A860009A81AB81BC81480E591E6A1E7B1E94E101
:10A8700049165104610471040CF1ACEE4A165104FE
:10A88000610471043CF4B0E84B1651046104710496
:10A8900034F422C05BEE452E512C612C712C498280
:10A8A0005A826B827C822EEF30E040E050E0241927
:10A8B00035094609570929013A0112C084E190E09F
:10A8C000A0E0B0E089839A83AB83BC8344E1442E4B
:10A8D000512C612C712C04C049825A826B827C827B
:10A8E000EFE2F3E18491882341F09091C00095FF5D
:10A8F000FCCF8093C6003196F5CF2AE030E0498145
:10A900005A816B817C818EE993E00E94980BEAE288
:10A91000F3E18491882341F09091C00095FFFCCF32
:10A920008093C6003196F5CF2AE030E0B301A20152
:10A930008EE993E00E94980BE3E2F3E1849188238F
:10A9400041F09091C00095FFFCCF8093C6003196F6
:10A95000F5CF22E030E049895A896B897C898EE9FC
:10A9600093E00E948D0CECE1F3E18491882341F0A7
:10A970009091C00095FFFCCF8093C6003196F5CF33
:10A9800022E030E04D855E856F8578898EE993E021
:10A990000E948D0C8091C00085FFFCCF8AE08093DF
:10A9A000C600033011050CF407CEC301B2010E94AA
:10A9B0003D5E20E030E040E850E40E9470606B01B2
:10A9C0007C0129893A894B895C896D857E858F85D3
:10A9D0009889D7D72BED3FE049E450E40E9470609E
:10A9E00020E030E040E05FE30E9470609B01AC013A
:10A9F000C701B6010E94A25D6B017C016D817E8161
:10AA00008F8198850E943D5E20E030E04AE754E463
:10AA10000E94A25D4B015C01E6E1F3E18491882391
:10AA200041F09091C00095FFFCCF8093C600319615
:10AA3000F5CF22E030E0B701A6018EE993E00E9455
:10AA40008D0CE0E1F3E18491882341F09091C00006
:10AA500095FFFCCF8093C6003196F5CF22E030E021
:10AA6000B501A4018EE993E00E948D0C8091C00095
:10AA700085FFFCCF8AE08093C6002AE939E949E1E5
:10AA80005FE3C701B6010E9470606B017C019B010E
:10AA9000AC0178D7A50194010E94A25D6D8F7E8FD5
:10AAA0008F8F98A3A5019401C701B6010E94706021
:10AAB00020E030E040E05EE30E9470604B015C010A
:10AAC000E2E0F3E18491882341F09091C00095FF8A
:10AAD000FCCF8093C6003196F5CF8091C00085FFF2
:10AAE000FCCF8AE08093C600ECEFF2E184918823EA
:10AAF00041F09091C00095FFFCCF8093C600319645
:10AB0000F5CF22E030E0B701A6018EE993E00E9484
:10AB10008D0C8091C00085FFFCCF8AE08093C60039
:10AB2000E6EFF2E18491882341F09091C00095FF17
:10AB3000FCCF8093C6003196F5CF22E030E04D8DFA
:10AB40005E8D6F8D78A18EE993E00E948D0C8091CF
:10AB5000C00085FFFCCF8AE08093C600E0EFF2E101
:10AB60008491882341F09091C00095FFFCCF8093A1
:10AB7000C6003196F5CF22E030E0B501A4018EE9A0
:10AB800093E00E948D0C8091C00085FFFCCF8AE08D
:10AB90008093C60011CD1D8231CDAD960FB6F894CD
:10ABA000DEBF0FBECDBFDF91CF911F910F91FF9000
:10ABB000EF90DF90CF90BF90AF909F908F907F905D
:10ABC0006F905F904F903F902F9008951F920F923B
:10ABD0000FB60F9211240BB60F928F939F93EF93A2
:10ABE000FF9380914B0281111CC08091D50C809302
:10ABF000B10C882311F02C9A01C02C988091E60D9D
:10AC00008093B00C9FB7882329F0F89480910201BB
:10AC1000806204C0F894809102018F7D80930201CC
:10AC20009FBF9091B10C80914B02981708F42C981B
:10AC30009091B00C80914B02981740F49FB7F89414
:10AC4000809102018F7D809302019FBF80914B0212
:10AC50008F5F8F7780934B02E0914902F0914A0217
:10AC6000ED30F105B8F5EE58FF4F0C94A26181E08C
:10AC700090E002C082E090E090934A028093490203
:10AC800029C083E090E0F8CF84E090E0F5CF85E044
:10AC900090E0F2CF86E090E0EFCF87E090E0ECCF5D
:10ACA00088E090E0E9CF89E090E0E6CF8AE090E0AC
:10ACB000E3CF8BE090E0E0CF10924A02109249027D
:10ACC0008091AF0C8F5F8093AF0C04C010924A024A
:10ACD000109249028091AF0C8031C8F18091CD0D66
:10ACE00081110BC08091BB0C9091BC0C9093EC0D2A
:10ACF0008093EB0D81E08093CD0D1092AF0C1092FC
:10AD0000BF0C1092C00C1092C10C1092C20C109289
:10AD1000C30C1092C40C1092C50C1092C60C109269
:10AD2000C70C1092C80C1092C90C1092CA0C109249
:10AD3000CB0C1092CC0C1092CD0C1092CE0C109229
:10AD4000BB0C1092BC0C1092BD0C1092BE0CFF916B
:10AD5000EF919F918F910F900BBE0F900FBE0F90B0
:10AD60001F9018952CE933E549E45EE30C9470607C
:10AD70002CE933E549E45EE3E5C62CE933E549E433
:10AD80005EE3E0C62CE933E549E45EE30C947060D1
:10AD900028E288E190E00FB6F894A89580936000CF
:10ADA0000FBE2093600008951F920F920FB60F926E
:10ADB00011242F933F938F939F93AF93BF938091D1
:10ADC000100E9091110EA091120EB091130E3091B1
:10ADD0000F0E23E0230F2D3720F40196A11DB11D86
:10ADE00005C026E8230F0296A11DB11D20930F0E6A
:10ADF0008093100E9093110EA093120EB093130E29
:10AE00008091140E9091150EA091160EB091170E10
:10AE10000196A11DB11D8093140E9093150EA09361
:10AE2000160EB093170EBF91AF919F918F913F91E6
:10AE30002F910F900FBE0F901F9018952FB7F89479
:10AE40006091100E7091110E8091120E9091130E60
:10AE50002FBF08953FB7F8948091140E9091150E6E
:10AE6000A091160EB091170E26B5A89B05C02F3FD6
:10AE700019F00196A11DB11D3FBF6627782F892FBC
:10AE80009A2F620F711D811D911D42E0660F771F81
:10AE9000881F991F4A95D1F70895CF92DF92EF92BC
:10AEA000FF92CF93DF936B017C01D4DFEB01C114E0
:10AEB000D104E104F10479F063D5CCDF6C1B7D0B88
:10AEC000683E7340A0F381E0C81AD108E108F10898
:10AED000C851DC4FECCFDF91CF91FF90EF90DF9026
:10AEE000CF900895789484B5826084BD84B58160E4
:10AEF00084BD85B5826085BD85B5816085BDEEE682
:10AF0000F0E0808181608083E1E8F0E01082808160
:10AF100082608083808181608083E0E8F0E08081CE
:10AF200081608083E1EBF0E0808184608083E0EBEE
:10AF3000F0E0808181608083E1E9F0E080818260DF
:10AF40008083808181608083E0E9F0E0808181609E
:10AF50008083E1EAF0E0808182608083808181608B
:10AF60008083E0EAF0E0808181608083E1E2F1E0CB
:10AF7000808182608083808181608083E0E2F1E073
:10AF8000808181608083EAE7F0E080818460808353
:10AF900080818260808380818160808380818068FD
:10AFA00080831092C10008951F93CF93DF93182FD1
:10AFB000EB0161E011D1209711F460E004C0CF3FB4
:10AFC000D10531F461E0812FDF91CF911F913DC117
:10AFD000E12FF0E0E95CFC4E449150E0FA0131973A
:10AFE000E231F10508F09BC0E158FF4F0C94A261DB
:10AFF00084B5806884BDC7BD97C084B5806284BDB8
:10B00000C8BD92C080918000806880938000D093FA
:10B010008900C093880088C08091800080628093FE
:10B020008000D0938B00C0938A007EC08091800006
:10B03000886080938000D0938D00C0938C0074C092
:10B040008091B00080688093B000C093B3006CC062
:10B050008091B00080628093B000C093B40064C05F
:10B0600080919000806880939000D0939900C09365
:10B0700098005AC080919000806280939000D09395
:10B080009B00C0939A0050C080919000886080938C
:10B090009000D0939D00C0939C0046C08091A0007A
:10B0A00080688093A0008091A0008F7B8093A00097
:10B0B000D093A900C093A80037C08091A0008062FF
:10B0C0008093A000D093AB00C093AA002DC08091C4
:10B0D000A00088608093A000D093AD00C093AC0026
:10B0E00023C080912001806880932001D0932901A2
:10B0F000C093280119C080912001806280932001B3
:10B10000D0932B01C0932A010FC080912001886049
:10B1100080932001D0932D01C0932C0105C0C0382D
:10B12000D1050CF04FCF49CFDF91CF911F910895FA
:10B1300090E0FC013197E231F10508F04CC0EF5688
:10B14000FF4F0C94A261809180008F7703C08091A3
:10B1500080008F7D80938000089580918000877F9C
:10B16000F9CF84B58F7702C084B58F7D84BD0895F3
:10B170008091B0008F7703C08091B0008F7D809365
:10B18000B0000895809190008F7707C08091900063
:10B190008F7D03C080919000877F809390000895F9
:10B1A0008091A0008F7707C08091A0008F7D03C0A1
:10B1B0008091A000877F8093A00008958091200156
:10B1C0008F7707C0809120018F7D03C0809120017F
:10B1D000877F809320010895CF93DF9390E0FC0157
:10B1E000E358FC4E2491FC01ED53FC4E84918823DE
:10B1F00049F190E0880F991FFC01E35CFB4EA5919B
:10B20000B4918D5D9B4EFC01C591D4919FB76111A6
:10B2100008C0F8948C91209582238C938881822396
:10B220000AC0623051F4F8948C91322F3095832308
:10B230008C938881822B888304C0F8948C91822B14
:10B240008C939FBFDF91CF9108950F931F93CF935E
:10B25000DF931F92CDB7DEB7282F30E0F901E95C0C
:10B26000FC4E8491F901E358FC4E1491F901ED5321
:10B27000FC4E04910023C1F0882319F0698358DF44
:10B280006981E02FF0E0EE0FFF1FED5DFB4EA59111
:10B29000B4919FB7F8948C91611103C010958123EC
:10B2A00001C0812B8C939FBF0F90DF91CF911F9195
:10B2B0000F910895CF93DF93282F30E0F901E95CD7
:10B2C000FC4E8491F901E358FC4ED491F901ED5301
:10B2D000FC4EC491CC2389F081112ADFEC2FF0E0E1
:10B2E000EE0FFF1FE75FFB4EA591B4912C912D232C
:10B2F00081E090E021F480E002C080E090E0DF9106
:10B30000CF910895FC01818D228D90E0805C9F4F4C
:10B31000821B91098F7399270895FC01918D828D6D
:10B32000981731F0828DE80FF11D858D90E008951A
:10B330008FEF9FEF0895FC01918D828D981761F03A
:10B34000828DDF01A80FB11D5D968C91928D9F5F5C
:10B350009F73928F90E008958FEF9FEF089580E0A4
:10B3600090E0892B41F080E090E0892B21F00E9451
:10B370000000811123C080E090E0892B41F080E043
:10B3800090E0892B21F00E94000081111AC08FE407
:10B390009BE5892B39F080E090E0892B19F07FD173
:10B3A000811112C08AEF9BE5892B99F080E090E033
:10B3B000892B79F01FD281110AC008950E940000E4
:10B3C000DACF0E940000E3CF0E940000EBCF0C9484
:10B3D00000000895FC01848DDF01A80FB11DA35A60
:10B3E000BF4F2C91848D90E001968F739927848FA5
:10B3F000A689B7892C93A089B1898C9180648C939C
:10B40000938D848D981306C00288F389E02D808186
:10B410008F7D80830895CF93DF93EC01888D8823FF
:10B42000C1F0EA89FB89808185FD05C0A889B989B9
:10B430008C9186FD0EC00FB607FCF5CF808185FF8D
:10B44000F2CFA889B9898C9185FFEDCFCE01C2DFFB
:10B45000E8CFDF91CF910895CF92DF92FF920F93C3
:10B460001F93CF93DF931F92CDB7DEB76C0181E0BE
:10B47000D60158968C9358975B969C915B975C96F7
:10B480008C915C97981307C05096ED91FC91519761
:10B49000808185FD2DC0F601038D10E00F5F1F4FE9
:10B4A0000F731127F02EF601848DF81210C00FB61D
:10B4B00007FCF9CFD6015096ED91FC915197808110
:10B4C00085FFF1CFC601698385DF6981ECCF838D6C
:10B4D000E80FF11DE35AFF4F6083D6015B960C9392
:10B4E0005B975296ED91FC915397808180620CC0DE
:10B4F000D6015696ED91FC91579760835096ED9149
:10B50000FC91519780818064808381E090E00F906E
:10B51000DF91CF911F910F91FF90DF90CF90089511
:10B52000BF92CF92DF92EF92FF92CF93DF93EC0125
:10B530006A017B01B22EE889F98982E08083411596
:10B5400081EE58076105710599F060E079E08DE3BF
:10B5500090E0A7019601B8D621503109410951095F
:10B560005695479537952795211580E1380790F036
:10B57000E889F989108260E874E88EE190E0A7011B
:10B580009601A2D621503109410951095695479596
:10B5900037952795EC85FD853083EE85FF852083E3
:10B5A000188EEC89FD89B082EA89FB8980818061EF
:10B5B0008083EA89FB89808188608083EA89FB89AE
:10B5C000808180688083EA89FB8980818F7D808388
:10B5D000DF91CF91FF90EF90DF90CF90BF900895D3
:10B5E0001F920F920FB60F9211240BB60F922F934A
:10B5F0008F939F93EF93FF93E091280EF091290E84
:10B600008081E0912E0EF0912F0E82FD12C090816C
:10B610008091310E8F5F8F732091320E821751F01F
:10B62000E091310EF0E0E85EF14F958F8093310E9E
:10B6300001C08081FF91EF919F918F912F910F9089
:10B640000BBE0F900FBE0F901F9018951F920F9278
:10B650000FB60F9211240BB60F922F933F934F9377
:10B660005F936F937F938F939F93AF93BF93EF936A
:10B67000FF9388E19EE0AEDEFF91EF91BF91AF9125
:10B680009F918F917F916F915F914F913F912F91FA
:10B690000F900BBE0F900FBE0F901F90189588E172
:10B6A0009EE030DE21E0892B09F420E0822F08950E
:10B6B00010921B0E10921A0E88EE93E0A0E0B0E0FC
:10B6C00080931C0E90931D0EA0931E0EB0931F0E20
:10B6D00082E993E09093190E8093180E85ED90E027
:10B6E0009093250E8093240E84ED90E09093270E86
:10B6F0008093260E80ED90E09093290E8093280E83
:10B7000081ED90E090932B0E80932A0E82ED90E0D5
:10B7100090932D0E80932C0E86ED90E090932F0E3B
:10B7200080932E0E1092310E1092320E1092330E24
:10B730001092340E08951F920F920FB60F9211249B
:10B740000BB60F922F938F939F93EF93FF93E091FC
:10B75000C50EF091C60E8081E091CB0EF091CC0E1B
:10B7600082FD12C090818091CE0E8F5F8F732091E9
:10B77000CF0E821751F0E091CE0EF0E0EB54F14F76
:10B78000958F8093CE0E01C08081FF91EF919F91A4
:10B790008F912F910F900BBE0F900FBE0F901F90A7
:10B7A00018951F920F920FB60F9211240BB60F929D
:10B7B0002F933F934F935F936F937F938F939F93B9
:10B7C000AF93BF93EF93FF9385EB9EE003DEFF9172
:10B7D000EF91BF91AF919F918F917F916F915F9109
:10B7E0004F913F912F910F900BBE0F900FBE0F9076
:10B7F0001F90189585EB9EE085DD21E0892B09F4EB
:10B8000020E0822F08951092B80E1092B70E88EEA5
:10B8100093E0A0E0B0E08093B90E9093BA0EA093AD
:10B82000BB0EB093BC0E82E993E09093B60E80936A
:10B83000B50E85E391E09093C20E8093C10E84E330
:10B8400091E09093C40E8093C30E80E391E09093B7
:10B85000C60E8093C50E81E391E09093C80E80934D
:10B86000C70E82E391E09093CA0E8093C90E86E3DF
:10B8700091E09093CC0E8093CB0E1092CE0E10924E
:10B88000CF0E1092D00E1092D10E0895CF92DF926B
:10B89000EF92FF920F931F93CF93DF937C016A0186
:10B8A000EB0100E010E00C151D0571F06991D70166
:10B8B000ED91FC910190F081E02DC7011995892B44
:10B8C00019F00F5F1F4FEFCFC801DF91CF911F918C
:10B8D0000F91FF90EF90DF90CF9008954F925F927D
:10B8E0006F927F92AF92BF92CF92DF92EF92FF92D0
:10B8F0000F931F93CF93DF93CDB7DEB729013A01A2
:10B90000621B730B840B950B2A893B894C895D89DB
:10B910002A193B094C095D092A8B3B8B4C8B5D8BAB
:10B920009B01AC016A897B898C899D899FD4E4182D
:10B93000F50806091709A8019701E8D42A0D3B1D4F
:10B940004C1D5D1DCA01B901DF91CF911F910F916F
:10B95000FF90EF90DF90CF90BF90AF907F906F906F
:10B960005F904F9008950895BDDAFDDF0E941B0E91
:10B97000CFEAD9E50E94F32A2097E1F3F0DCFACF71
:10B9800008955058BB27AA270ED076C23FD230F078
:10B9900044D220F031F49F3F11F41EF40FC20EF494
:10B9A000E095E7FBDCC1E92F89D280F3BA17620783
:10B9B00073078407950718F071F49EF5B8C20EF46A
:10B9C000E0950B2EBA2FA02D0B01B90190010C01AF
:10B9D000CA01A0011124FF27591B99F0593F50F4C7
:10B9E000503E68F11A16F040A22F232F342F44271F
:10B9F000585FF3CF469537952795A795F040539517
:10BA0000C9F77EF41F16BA0B620B730B840BBAF0E6
:10BA10009150A1F0FF0FBB1F661F771F881FC2F751
:10BA20000EC0BA0F621F731F841F48F48795779565
:10BA30006795B795F7959E3F08F0B3CF9395880F1C
:10BA400008F09927EE0F979587950895DFD158F064
:10BA500080E891E009F49EEFE0D128F040E851E061
:10BA600059F45EEF09C0AAC162C2E92FE07826D27C
:10BA700068F3092E052AC1F3261737074807590727
:10BA800038F00E2E07F8E02569F0E025E0640AC0E2
:10BA9000EF6307F8009407FADB01B9019D01DC01AF
:10BAA000CA01AD01EF935DD0E7D10AD05F91552374
:10BAB00031F02BED3FE049E450FD49EC63CF0895B0
:10BAC000DF93DD27B92FBF7740E85FE3161617062F
:10BAD00048075B0710F4D92F96D29F938F937F93DB
:10BAE0006F93A9D3E6E4F1E06CD1C6D12F913F91D9
:10BAF0004F915F9101D3DD2349F09058A2EA2AEDDE
:10BB00003FE049EC5FE3D0785D274DDFDF91B4C1C2
:10BB1000F7D180F09F3740F491110EF409C260E034
:10BB200070E080E89FE3089526F01B16611D711DEB
:10BB3000811D1BC135C1EFD008F481E0089575D196
:10BB4000E395ABC10CD098C168D140F05FD130F023
:10BB500021F45F3F19F003C15111EAC12FC1AED1E9
:10BB600098F39923C9F35523B1F3951B550BBB27C4
:10BB7000AA2762177307840738F09F5F5F4F220F71
:10BB8000331F441FAA1FA9F333D00E2E3AF0E0E86A
:10BB900030D091505040E695001CCAF729D0FE2FB6
:10BBA00027D0660F771F881FBB1F26173707480748
:10BBB000AB07B0E809F0BB0B802DBF01FF279358FE
:10BBC0005F4F2AF09E3F510568F0C9C0B1C15F3F89
:10BBD000ECF3983EDCF3869577956795B795F795E6
:10BBE0009F5FC9F7880F911D9695879597F90895DE
:10BBF000E1E0660F771F881FBB1F6217730784077A
:10BC0000BA0720F0621B730B840BBA0BEE1F88F788
:10BC1000E095089504D06894B1118AC1089556D171
:10BC200088F09F5790F0B92F9927B751A0F0D1F025
:10BC3000660F771F881F991F1AF0BA95C9F712C0AF
:10BC4000B13081F074D1B1E0089571C1672F782FC0
:10BC50008827B85F39F0B93FCCF38695779567951B
:10BC6000B395D9F73EF490958095709561957F4F87
:10BC70008F4F9F4F0895E89409C097FB3EF490952D
:10BC80008095709561957F4F8F4F9F4F9923A9F0B5
:10BC9000F92F96E9BB279395F69587957795679544
:10BCA000B795F111F8CFFAF4BB0F11F460FF1BC088
:10BCB0006F5F7F4F8F4F9F4F16C0882311F096E91B
:10BCC00011C0772321F09EE8872F762F05C06623C9
:10BCD00071F096E8862F70E060E02AF09A95660F82
:10BCE000771F881FDAF7880F9695879597F908953B
:10BCF00007D180F09F3740F491110EF019C160E038
:10BD000070E080E89FEB089526F41B16611D711DFD
:10BD1000811D2BC045C0990F0008550FAA0BE0E804
:10BD2000FEEF16161706E807F907C0F012161306FD
:10BD3000E407F50798F0621B730B840B950B39F43D
:10BD40000A2661F0232B242B252B21F408950A26A3
:10BD500009F4A140A6958FEF811D811D089597F9E3
:10BD60009F6780E870E060E00895882371F477238E
:10BD700021F09850872B762F07C0662311F499275E
:10BD80000DC09051862B70E060E02AF09A95660F06
:10BD9000771F881FDAF7880F9695879597F908958A
:10BDA0009F3F31F0915020F4879577956795B7952F
:10BDB000880F911D9695879597F908959FEF80ECD0
:10BDC0000895DF93CF931F930F93FF92EF92DF922B
:10BDD0007B018C01689405C0DA2EEF018DD1FE0144
:10BDE000E894A5912591359145915591AEF3EF01D8
:10BDF000DADDFE019701A801DA9479F7DF90EF9080
:10BE0000FF900F911F91CF91DF91089500240A9424
:10BE10001616170618060906089500240A94121625
:10BE20001306140605060895C9CF50D0E8F3E89428
:10BE3000E0E0BB279F57F0F02AED3FE049EC06C059
:10BE4000EE0FBB0F661F771F881F28F0B23A6207FC
:10BE50007307840728F0B25A620B730B840BE395C7
:10BE60009A9572F7803830F49A95BB0F661F771F4A
:10BE7000881FD2F7904896CF092E0394000C11F436
:10BE8000882352F0BB0F40F4BF2B11F460FF04C0B5
:10BE90006F5F7F4F8F4F9F4F0895EF93E0FF06C076
:10BEA000A2EA2AED3FE049EC5FEB7DDDE5DF0F9094
:10BEB000039401FC9058E3E7F1E0C7C157FD9058A7
:10BEC000440F551F59F05F3F71F04795880F97FB5E
:10BED000991F61F09F3F79F0879508951216130618
:10BEE0001406551FF2CF4695F1DF08C01616170647
:10BEF0001806991FF1CF869571056105089408957C
:10BF0000E5DFA0F0BEE7B91788F4BB279F3860F4DF
:10BF10001616B11D672F782F8827985FF7CF869563
:10BF200077956795B11D93959639C8F30895E89470
:10BF3000BB2766277727CB0197F90895ECDE08F435
:10BF40008FEF089563DF19F068DF09F037CF07CF6F
:10BF5000B901CA0125CF9F775F77B0DF98F39923A6
:10BF6000B9F35523B9F3FF27951758F4E52FE91BCB
:10BF7000ED3070F75E3B10F0F1E41CC09034E0F45B
:10BF80000AC0E92FE51BED3028F79E3B10F0F1E4E5
:10BF900011C0503488F4F9EA88232AF09A95660F84
:10BFA000771F881FDAF744232AF05A95220F331F90
:10BFB000441FDAF79F1B5F1BFF931F930F93FF92A2
:10BFC000EF9279018A01BB27AB2F9B01AC0196D080
:10BFD0009701A801BF937B018C01AA27BA2FB90151
:10BFE000CA018CD0AF919701A801EF90FF900F91FB
:10BFF0001F91D9DC41DFE1D04F9140FF08955527D3
:10C0000047FD509509C09B01AC0160E070E080E8FD
:10C010009FE398CDA4CEC4CE59DFE8F39923D9F39A
:10C02000940F511DBBF39150504094F059F0882368
:10C0300032F0660F771F881F91505040C1F79E3F26
:10C04000510544F7880F911D9695879597F90895A6
:10C050005F3FACF0983E9CF0BB278695779567953F
:10C06000B79508F4B1609395C1F7BB0F58F711F479
:10C0700060FFE8CF6F5F7F4F8F4F9F4FE3CF58CF69
:10C0800025DF58F19E5758F19851A0F0E9F098300B
:10C0900020F5092E9927660F771F881F991F0A948C
:10C0A000D1F712C0062E672F782F8827985F11F4DA
:10C0B000000C07C0993FB4F38695779567959395E3
:10C0C000D9F7611D711D811D3EF490958095709585
:10C0D00061957F4F8F4F9F4F0895689429CF27CF49
:10C0E0000BD0CACE93DE28F098DE18F0952309F025
:10C0F00036CE64CE11241CCFE1DEA0F3959FD1F3A0
:10C10000950F50E0551F629FF001729FBB27F00D05
:10C11000B11D639FAA27F00DB11DAA1F649F66275A
:10C12000B00DA11D661F829F2227B00DA11D621FA9
:10C13000739FB00DA11D621F839FA00D611D221F63
:10C14000749F3327A00D611D231F849F600D211D47
:10C15000822F762F6A2F11249F5750408AF0E1F0EA
:10C1600088234AF0EE0FFF1FBB1F661F771F881F33
:10C1700091505040A9F79E3F510570F0F0CDD8CEB8
:10C180005F3FECF3983EDCF3869577956795B7951E
:10C19000F795E7959F5FC1F7FE2B880F911D969548
:10C1A000879597F908959F9340DE0F9007FCEE5F07
:10C1B00074CE11F40EF402CEF3CD88DED0F39923C1
:10C1C000D9F3CEF39F57550B87FF38D00024A0E654
:10C1D00040EA900180585695979528F4805C660F48
:10C1E000771F881F20F026173707480730F4621B97
:10C1F000730B840B202931294A2BA6951794079499
:10C20000202531254A2758F7660F771F881F20F011
:10C2100026173707480730F4620B730B840B200D89
:10C22000311D411DA09581F7B901842F9158880FC8
:10C230009695879508959B01AC0152CF915050403F
:10C24000660F771F881FD2F708959F938F937F9370
:10C250006F93FF93EF939B01AC0142DFEF91FF914E
:10C26000B0DD2F913F914F915F913ACFDB018F93DA
:10C270009F9383D0BF91AF91A29F800D911DA39FEB
:10C28000900DB29F900D11240895991B79E004C080
:10C29000991F961708F0961B881F7A95C9F7809505
:10C2A000089597FB072E16F4009406D077FD08D06A
:10C2B00078D007FC05D03EF4909581959F4F089566
:10C2C000709561957F4F0895A1E21A2EAA1BBB1BA2
:10C2D000FD010DC0AA1FBB1FEE1FFF1FA217B30752
:10C2E000E407F50720F0A21BB30BE40BF50B661F68
:10C2F000771F881F991F1A9469F76095709580952C
:10C3000090959B01AC01BD01CF010895052E97FBCF
:10C3100016F400940FD057FD05D0D6DF07FC02D0ED
:10C3200046F408C050954095309521953F4F4F4FAA
:10C330005F4F089590958095709561957F4F8F4FD1
:10C340009F4F0895EE0FFF1F0590F491E02D199473
:10C35000A29FB001B39FC001A39F700D811D112446
:10C36000911DB29F700D811D1124911D0895F0DF64
:10C37000B7FF0895821B930B0895EADFA59F900DE8
:10C38000B49F900DA49F800D911D11240895B7FFB7
:10C39000F4CFF3DF821B930B08950790F691E02D05
:10C3A0001994AA1BBB1B51E107C0AA1FBB1FA617EC
:10C3B000B70710F0A61BB70B881F991F5A95A9F74E
:10C3C00080959095BC01CD0108958F929F92AF9278
:10C3D000BF92CF92DF92EF92FF920F931F93CF9372
:10C3E000DF938B016115710521F0DB018C931196B0
:10C3F0009C93EC015E01BFEFAB1ABB0A7501C880CC
:10C400008C2D90E07BD2892B11F0E501F3CFEDE28A
:10C41000CE1208C07E01F2E0EF0EF11CC980DD24CF
:10C42000D39409C02BE2C21205C07E0142E0E40EA3
:10C43000F11CC980D12CE701219743E050E06FE562
:10C4400074E1CE0163D2892BB9F4239645E050E024
:10C450006AE574E1CE015AD2892B09F425960115BB
:10C46000110519F0D801CD93DC93D11000C160E023
:10C4700070E080E89FE704C143E050E067E574E1C5
:10C48000CE0144D2892B59F40115110509F4F4C0E9
:10C49000B2E0EB0EF11CF801F182E082EDC0F70191
:10C4A00060E070E0CB01C0E0D0E07F01A0EDAA2EFB
:10C4B000AC0C29E02A1528F14D2D4260B42E2D2D0B
:10C4C0002870D2FE04C0211124C0219622C021115F
:10C4D0002197A5E0B0E09B01AC014FDF660F771F0D
:10C4E000881F991F6A0D711D811D911D6839A9E969
:10C4F0007A078A07A9E19A0760F0BD2DB660BB2EC6
:10C5000008C02EEFA2120AC0D3FC50C04D2D4860C7
:10C51000B42E3196D701CC90DB2CC7CF2C2D2F7D9C
:10C52000253409F043C0A081AD3241F4BD2DB06186
:10C53000DB2E7F0122E0E20EF11C0CC07F01AB324A
:10C5400031F04FEFE41AF40A21E030E006C0A2E037
:10C55000EA0EF11CA18122E030E0A053AA3018F0CD
:10C56000E21AF30A23C0F70120E030E02038BCE0F3
:10C570003B075CF4A901440F551F440F551F240FBE
:10C58000351F220F331F2A0F311DAF014F5F5F4F41
:10C590007A01A081A053AA3010F4FA01E7CFD4FEAB
:10C5A00003C0319521953109C20FD31FD1FE09C0B7
:10C5B0000115110531F0E1E0EE1AF108D801ED9214
:10C5C000FC9259DB2D2D2370233019F04B015C01B7
:10C5D00006C04B015C01B7FAB094B7F8B09420E004
:10C5E00030E0A901C501B401A6DA882309F43CC0F2
:10C5F000D7FF06C0D195C195D10906E714E102C065
:10C600000EE814E16801B8E1CB1AD10890E2E92EF6
:10C61000F12CCE15DF056CF0F8012591359145918F
:10C620005491C501B4015CDD4B015C01CE19DF09F9
:10C63000F0CF04501109F594E7940C151D0549F746
:10C640008A2D880F8B2D881F8F3F41F020E030E02E
:10C65000A901C501B4016FDA811106C082E290E040
:10C660009093570F8093560FC501B40109C060E045
:10C6700070E080E89FEF04C060E070E080EC9FE72E
:10C68000DF91CF911F910F91FF90EF90DF90CF90AE
:10C69000BF90AF909F908F9008952F923F925F929E
:10C6A0006F927F928F929F92AF92BF92CF92DF92C2
:10C6B000EF92FF920F931F93CF93DF938B01EA01C9
:10C6C0006115710521F0DB018C9311969C932097E5
:10C6D00039F09E01225031092332310508F0F8C0AB
:10C6E0007C016701BFEFCB1ADB0A5601F7016080BE
:10C6F000862D90E003D1892B11F07601F2CFFDE277
:10C700006F120AC0570182E0A80EB11CD701119622
:10C710006C90772473940BC0BBE26B1207C0570177
:10C72000E2E0AE0EB11CD70111966C90712CCE01D7
:10C730008F7E892B89F4B0E36B1222C0F5018081D2
:10C740008F7D883541F56180F2E0AF0EB11C872DF9
:10C750008260782EC0E1D0E0C830D105F1F04CF411
:10C76000C230D10511F5C12CD12CE12CB0E4FB2E47
:10C770002EC0CA30D10531F0C031D10519F115C034
:10C78000209751F7CAE0D0E0ACECCA2EDC2CEC2CA0
:10C79000ACE0FA2E1CC02097F9F6C8E0D0E0C12C1E
:10C7A000D12CE12CF0E1FF2E12C060E070E080E0BF
:10C7B00090E89E01442737FD4095542F85DD69019F
:10C7C0007A0105C0C12CD12CE12CE8E0FE2EF50148
:10C7D00060E020E030E0A9014E01AA2497FCA0947B
:10C7E000BA2C1F0170ED572E560CA9E0A51570F458
:10C7F0008FEB860D8A3118F499EC592E06C08FE91B
:10C80000860D8A3128F589EA582E560C852D90E040
:10C810008C179D07ECF467FD17C0C216D306E4061B
:10C82000F50678F0C501B40121DD9B01AC01250DB1
:10C83000311D411D511D213031054105B0E85B0717
:10C8400010F06FEF01C061E03196D1016C90C9CF5B
:10C85000872D81700115110571F0662329F031973C
:10C86000D801ED93FC9307C071FE19C03297D8012F
:10C87000ED93FC9314C067FF12C0882329F020E0D9
:10C8800030E040E050E804C02FEF3FEF4FEF5FE7AC
:10C8900082E290E09093570F8093560F16C0882342
:10C8A00041F050954095309521953F4F4F4F5F4F48
:10C8B0000CC057FF0AC082E290E09093570F80931C
:10C8C000560F2FEF3FEF4FEF5FE7B901CA0104C0EA
:10C8D00060E070E080E090E0DF91CF911F910F91D8
:10C8E000FF90EF90DF90CF90BF90AF909F908F9090
:10C8F0007F906F905F903F902F90089591117EC22E
:10C90000803219F089508550D0F70895FB01DC0181
:10C910004150504088F08D9181341CF08B350CF4DF
:10C92000805E659161341CF06B350CF4605E861B93
:10C93000611171F3990B0895881BFCCFFB01DC0199
:10C940004150504048F005900D920020C9F701C0B9
:10C950001D9241505040E0F70895FB015591552339
:10C96000A9F0BF01DC014D9145174111E1F759F4E0
:10C97000CD010590002049F04D9140154111C9F3BA
:10C98000FB014111EFCF81E090E001970895FC0198
:10C990008191861721F08823D9F799270895319737
:10C9A000CF010895FB01DC018D91019080190110E8
:10C9B000D9F3990B0895FB01DC0101900D92002041
:10C9C000E1F708950F931F93CF93DF93CDB7DEB7B1
:10C9D0002E970FB6F894DEBF0FBECDBF0E891F890C
:10C9E0008EE08C831A8309838FEF9FE79E838D836C
:10C9F000AE01465E5F4F688D798DCE01019610D0F5
:10CA0000EF81F885E00FF11F10822E960FB6F89493
:10CA1000DEBF0FBECDBFDF91CF911F910F91089563
:10CA20002F923F924F925F926F927F928F929F923E
:10CA3000AF92BF92CF92DF92EF92FF920F931F932C
:10CA4000CF93DF93CDB7DEB72C970FB6F894DEBF48
:10CA50000FBECDBF7C016B018A01FC0117821682DB
:10CA6000838181FFB0C1CE0101964C01F701938112
:10CA7000F60193FD859193FF81916F01882309F45D
:10CA80009EC1853239F493FD859193FF81916F01A9
:10CA9000853221F4B70190E0CAD1E8CF512C312C76
:10CAA00020E02032A0F48B3269F030F4803259F06B
:10CAB000833269F420612CC08D3239F0803339F42F
:10CAC000216026C02260246023C0286021C027FD89
:10CAD00027C030ED380F3A3078F426FF06C0FAE070
:10CAE0005F9E300D1124532E13C08AE0389E300D06
:10CAF0001124332E20620CC08E3221F426FD5FC13A
:10CB0000206406C08C3611F4206802C0883641F4D7
:10CB1000F60193FD859193FF81916F018111C1CF42
:10CB2000982F9F7D9554933028F40C5F1F4FFFE39F
:10CB3000F9830DC0833631F0833771F0833509F006
:10CB400057C021C0F801808189830E5F1F4F4424A4
:10CB50004394512C540114C03801F2E06F0E711C43
:10CB6000F801A080B18026FF03C0652D70E002C0EF
:10CB70006FEF7FEFC5012C874FD12C0183012C85EE
:10CB80002F77222E16C03801F2E06F0E711CF801CB
:10CB9000A080B18026FF03C0652D70E002C06FEF5A
:10CBA0007FEFC5012C872DD12C012C852068222EEA
:10CBB000830123FC19C0832D90E048165906A0F488
:10CBC000B70180E290E033D13A94F5CFF50127FC2C
:10CBD000859127FE81915F01B70190E028D1311046
:10CBE0003A94F1E04F1A51084114510479F7DEC02C
:10CBF000843611F0893631F5F80127FF07C06081CE
:10CC00007181828193810C5F1F4F08C060817181A7
:10CC1000882777FD8095982F0E5F1F4F2F76B22EB5
:10CC200097FF09C090958095709561957F4F8F4FC4
:10CC30009F4F2068B22E2AE030E0A4012AD1A82E0E
:10CC4000A81843C0853729F42F7EB22E2AE030E0A1
:10CC500025C0F22FF97FBF2E8F36C1F018F488352A
:10CC600079F0ADC0803719F0883721F0A8C02F2F98
:10CC70002061B22EB4FE0DC08B2D8460B82E09C089
:10CC800024FF0AC09F2F9660B92E06C028E030E02E
:10CC900005C020E130E002C020E132E0F801B7FE3B
:10CCA00007C060817181828193810C5F1F4F06C034
:10CCB0006081718180E090E00E5F1F4FA401E9D098
:10CCC000A82EA818FB2DFF77BF2EB6FE0BC02B2D6C
:10CCD0002E7FA51450F4B4FE0AC0B2FC08C02B2D60
:10CCE0002E7E05C07A2C2B2D03C07A2C01C0752C0A
:10CCF00024FF0DC0FE01EA0DF11D8081803311F487
:10CD0000297E09C022FF06C07394739404C0822F49
:10CD1000867809F0739423FD12C020FF06C05A2CB8
:10CD2000731418F4530C5718732C731460F4B70170
:10CD300080E290E02C877BD073942C85F6CF73141F
:10CD400010F4371801C0312C24FF11C0B70180E363
:10CD500090E02C876CD02C8522FF16C021FF03C0E9
:10CD600088E590E002C088E790E0B7010CC0822F10
:10CD7000867851F021FD02C080E201C08BE227FDE0
:10CD80008DE2B70190E053D0A51430F4B70180E3F1
:10CD900090E04DD05A94F8CFAA94F401EA0DF11D19
:10CDA0008081B70190E043D0A110F6CF332009F481
:10CDB0005DCEB70180E290E03AD03A94F7CFF70128
:10CDC0008681978102C08FEF9FEF2C960FB6F89463
:10CDD000DEBF0FBECDBFDF91CF911F910F91FF90AE
:10CDE000EF90DF90CF90BF90AF909F908F907F900B
:10CDF0006F905F904F903F902F90089599278827CC
:10CE00000895FC010590615070400110D8F780959D
:10CE100090958E0F9F1F0895FC0161507040019006
:10CE20000110D8F7809590958E0F9F1F08950F934E
:10CE30001F93CF93DF93182F092FEB018B8181FD77
:10CE400003C08FEF9FEF20C082FF10C04E815F8133
:10CE50002C813D81421753077CF4E881F9819F01C1
:10CE60002F5F3F4F39832883108306C0E885F985FB
:10CE7000812F1995892B29F72E813F812F5F3F4FF5
:10CE80003F832E83812F902FDF91CF911F910F91A0
:10CE90000895FA01AA27283051F1203181F1E89450
:10CEA0006F936E7F6E5F7F4F8F4F9F4FAF4FB1E09D
:10CEB0003ED0B4E03CD0670F781F891F9A1FA11D98
:10CEC000680F791F8A1F911DA11D6A0F711D811D99
:10CED000911DA11D20D009F468943F912AE0269F5E
:10CEE00011243019305D3193DEF6CF010895462FBD
:10CEF0004770405D4193B3E00FD0C9F7F6CF462F9E
:10CF00004F70405D4A3318F0495D31FD4052419306
:10CF100002D0A9F7EACFB4E0A695979587957795C3
:10CF20006795BA95C9F700976105710508959B014A
:10CF3000AC010A2E06945795479537952795BA95D3
:10CF4000C9F7620F731F841F951FA01D0895F894E1
:02CF5000FFCF11
:10CF52000000580F80000100000000002A43021464
:10CF6200000105004600C0D4010000004843000053
:10CF72004843000048430000803F000040406400F6
:10CF820064000080BB4401CDCCCC3D000052430084
:10CF9200007A43FF01000000010C0001FF3F000086
:10CFA200C84260F51044C86E593E9A99B1410200D8
:10CFB200020004000000C8440000204400A8A64566
:10CFC2000000FA430000C842000096430000A0405F
:10CFD2000000C84164000000B80B000064000000BB
:10CFE20010270000545249474745524544006F708C
:10CFF200656E005265706F7274696E6720656E644B
:10D0020073746F70207374617475730020703A00CA
:10D0120020693A0020643A0020633A00496E766142
:10D022006C6964206578747275646572004163741A
:10D032006976652045787472756465723A20004D90
:10D0420031313200000001003600370026000300B3
:10D05200FFFF3C003D0038001A00FFFF2E003000A9
:10D062003E001800FFFFFFFF0C00080008001A0036
:10D072001C0018000A004300440058595A45000099
:10D08200FA4300803B4500007043000000005374E7
:10D0920065707261746520746F6F20686967683AA1
:10D0A2002000504944204175746F74756E65207379
:10D0B2007461727400504944204175746F74756EC6
:10D0C20065206661696C656421204261642065782F
:10D0D200747275646572206E756D6265720000000F
:0ED0E20000002C5A465C82599B598D590B5AFE
:00000001FF
